:20022B00AF8290E6C2E4F0BF010790E60174E3F02290E60174E0F02290E6827445F0744598
:20024B00F090E670E4F00000000090E602E4F00000000090E603E4F00000000090E609E4ED
:20026B00F00000000090E60B7403F00000000090E6007410F00000000090E60174E0F000F6
:20028B0000000090E613E4F00000000090E615E4F00000000090E619E4F00000000090E6BE
:2002AB001BE4F00000000090E61074A0F00000000090E61174A0F00000000090E61274A093
:2002CB00F00000000090E61474E0F00000000090E6047480F00000000090E6047402F00017
:2002EB0000000090E6047406F00000000090E604E4F090E68DF00000000090E6497482F029
:20030B000000000090E6497482F00000000090E6497482F00000000090E6497482F00000E3
:20032B00000090E6187410F00000000090E61A7408F00000000090E6247402F000000000B4
:20034B0090E625E4F090E67AE04401F075AF077580FF75B2007590FF75B30075A0FF75B46F
:20036B000075B0FF75B50075B1FF75B600220212A8AF827E00EF24FB50030205A7EF2F2FEB
:20038B0090038F7302039E0204070204700204D9020541E51D45B2602AE51E6007E51D453C
:2003AB00B2FF8007E51DF4FD55B2FF8FB2E51F6007E51D4580FF8007E51DF4FD5580FF8FB2
:2003CB00808028E51F6007E51D4580FF8007E51DF4FD5580FF8F80E51E6007E51D45B2FFFA
:2003EB008007E51DF4FD55B2FF8FB2E51D558060047F0180027F008F060205A7E51D45B338
:20040B00602AE51E6007E51D45B3FF8007E51DF4FD55B3FF8FB3E51F6007E51D4590FF8060
:20042B0007E51DF4FD5590FF8F908028E51F6007E51D4590FF8007E51DF4FD5590FF8F904E
:20044B00E51E6007E51D45B3FF8007E51DF4FD55B3FF8FB3E51D559060047F0180027F009F
:20046B008F060205A7E51D45B4602AE51E6007E51D45B4FF8007E51DF4FD55B4FF8FB4E59B
:20048B001F6007E51D45A0FF8007E51DF4FD55A0FF8FA08028E51F6007E51D45A0FF8007C8
:2004AB00E51DF4FD55A0FF8FA0E51E6007E51D45B4FF8007E51DF4FD55B4FF8FB4E51D559B
:2004CB00A060047F0180027F008F060205A7E51D45B5602AE51E6007E51D45B5FF8007E5F2
:2004EB001DF4FD55B5FF8FB5E51F6007E51D45B0FF8007E51DF4FD55B0FF8FB08028E51FCC
:20050B006007E51D45B0FF8007E51DF4FD55B0FF8FB0E51E6007E51D45B5FF8007E51DF4D4
:20052B00FD55B5FF8FB5E51D55B060047F0180027F008F068066E51D45B6602AE51E60070E
:20054B00E51D45B6FF8007E51DF4FD55B6FF8FB6E51F6007E51D45B1FF8007E51DF4FD559A
:20056B00B1FF8FB18028E51F6007E51D45B1FF8007E51DF4FD55B1FF8FB1E51E6007E51D4B
:20058B0045B6FF8007E51DF4FD55B6FF8FB6E51D55B160047F0180027F008F068E8222AF2A
:2005AB0082BF80028027BF810302068BBF82030206CDBF8303020709BF8503020730BF86BB
:2005CB0003020799BFA2030207E302097990E6B8E0FFBF402790E6BBE0FE7F0090E6BAE0C6
:2005EB007C004207EC420690E6BCE0FDEF4E70088D8212022B0206877582002290E6A0E047
:20060B00FF20E1F890E740744EF090E7417445F090E742744DF090E7437449F090E015E0D7
:20062B00FF90E744F0E58030E2047F0080027F0190E745EFF090E7467411F090E7477426E4
:20064B00F090E74874FFF090E74974FFF090E74A7420F090E74B7414F090E74C7403F09021
:20066B00E74D7411F090E74EE4F090E74FF090E68AF00000000090E68B7410F075820122F8
:20068B0090E6B8E0FFBF4002800302097990E68BE4F090E6A0E0FF20E1F890E740E0FCA341
:2006AB00E0FDA3E0FEA3E0FF90E6BCE0F51D90E6BAE0F51E8C828D838EF0EF120B777582F2
:2006CB00012290E6B8E0FFBF4002800302097990E68BE4F090E6A0E0FF20E1F890E740E07D
:2006EB00FCA3E0FDA3E0FEA3E0FF90E6BAE0F51D8C828D838EF0EF120A627582012290E6B5
:20070B00B8E0FFBF4002800302097990E6BAE0FCA3E0FDA3E0FEA3E08C828D838EF01212DF
:20072B00EA7582012290E6B8E0FFBFC002800302097990E6BAE0FF90E6BBE0FE90E6BCE0E5
:20074B00FD90E6BDE0FCEF24FB4005EE24F850047582002290E6A0E0FB20E1F88EF005F05B
:20076B007401800225E0D5F0FBF51D8D1E8C1F8F8212037CAF8290E740EFF090E68AE4F00D
:20078B000000000090E68B7401F07582012290E6B8E0FFBF4002800302097990E6BCE0FFA8
:2007AB0090E6BDE0FEEF7004758201221FBF0400501590E6BAE0FDEEC454F024802DF51D73
:2007CB008F821209F2800DEEC454F02480F51D8F821209F27582012290E6B8E0FFBFC002F1
:2007EB0080030208CB90E6BBE0FE7F0090E6BAE0FD7C0090E000ED4FF0EC4EA3F090E6BFE1
:20080B00E0FE7F0090E6BEE0FD7C0090E002ED4FF0EC4EA3F090E002E0FEA3E0FF4E7003E5
:20082B0002097590E6A0E0FF20E1F890E002E0FEA3E0FFC3EE9440EF940040047E407F00E4
:20084B007D008D037C00C3EB9EEC9F5010ED2440F582E434E7F5837423F00D80E590E6BC63
:20086B00E024FF920790E000E0FCA3E0FD8E037524407525E78B238C828D83C007C006C001
:20088B0005C004C00312133DD003D004D005D006D00790E68AE4F00000000090E68BEBF086
:2008AB0090E000EE2CF0EF3DA3F090E002E0FCA3E0FD90E002ECC39EF0ED9FA3F00208202E
:2008CB0090E6B8E0FFBF4002800302097590E6BBE0FE7F0090E6BAE0FD7C0090E004ED4F35
:2008EB00F0EC4EA3F090E6BFE0FE7F0090E6BEE0FD7C0090E006ED4FF0EC4EA3F090E0062C
:20090B00E0FEA3E0FF4E606290E68BE4F090E6A0E0FF20E1F890E68BE0FF7E0090E6BCE029
:20092B0024FF920890E004E0FCA3E0FD8F267527407528E78C828D83C007C006C005C004D6
:20094B0012142BD004D005D006D00790E004EF2CF0EE3DA3F090E006E0FCA3E0FD90E00660
:12096B00ECC39FF0ED9EA3F080937582012275820022D8
:011BDC000008
:20097D008582087582012285088222E582FF7014AD1DAE1EAF1F8D828E838FF0E4121A4CB7
:20099D007582012275820022E582FF7044E51D704090E6837401F0E0FF90E68374204FF032
:2009BD0090E6837411F0E0FF90E68374204FF090E6837402F0E0FF90E68374204FF090E681
:1509DD00837416F0E0FF90E68374204FF075820122758200222A
:2009F200AF827D627E0AEF75F003A42416F58274E035F0F583E0FBA3E0FCA3E0FF8B828C3B
:200A1200838FF0121AD7F9A3121AD7FA74022BFBE43CFC90E008E9F0EAA3F090E008E0F94F
:200A3200A3E0FA496029E92DF582EA3EF583E51DF08B828C838FF0121AD7F9A3121AD7FAFF
:100A5200A3AB82AC8390E008E9F0EAA3F080CC2259
:201AF800BA000000C700D000D900E200EB00F400FD0006017A02BB0500002F0036003D0001
:201B180044004B0052005900600075007C0083008A00910098009F00A600CA00D300DC002E
:201B3800E500EE00F7000001090170022E04A105FC060000160066022404B90512070000EF
:201B58001000250029003100340038003B003F004200460049004D005000540057005B0084
:201B78005E0062006500700077007A007E008100850088008C008F00930096009A009D0040
:201B9800A100A400A800AC00B700BC00C000CC00CE00D500D700DE00E000E700E900F0009D
:201BB800F200F900FB00020104010B010E0189028B0237043904CA05CC0514071607900804
:041BD8009D08000064
:0F1BDD00FC1A80121B804C1B80581B80F81A804A
:200A6200AC82AD83AEF0FFAB1D8B021BEA6019C2B3EC13920092B2EFC313FFEE13FEED1399
:200A8200FDEC13FCD2B380E1C2B322E5821392B1D2B313C2B392B1D2B313C2B392B1D2B3FD
:200AA20013C2B392B1D2B313C2B392B1D2B313C2B392B1D2B313C2B392B1D2B313C2B392DA
:200AC200B1D2B300C2B322759AE7759B80A882C2B3E59C1392B1D2B313C2B392B1D2B31363
:200AE200C2B392B1D2B313C2B392B1D2B313C2B392B1D2B313C2B392B1D2B313C2B392B1FC
:200B0200D2B313C2B392B1D2B3D8C4C2B322759AE7759B80A882C2B3859C80D2B3D8F7C2EF
:200B2200B322AF82E582A2B01392B1D2B3C2B3A2B01392B1D2B3C2B3A2B01392B1D2B3C213
:200B4200B3A2B01392B1D2B3C2B3A2B01392B1D2B3C2B3A2B01392B1D2B3C2B3A2B0139203
:200B6200B1D2B3C2B3A2B01392B1D2B300C2B3F582228F8222AF82AE83ADF0FC90E025EFDB
:200B8200F0EEA3F0EDA3F0ECA3F090E029E51DF090E02AE51EF02290E025E0FCA3E0FDA315
:200BA200E0FEA3E0FFEC4D4E4F7003020D8EE5BA20E1FBE5BA20E2FB90E025E0FCA3E0FDC5
:200BC200A3E0FEA3E0FFC3ED9402EE9400EF9400B3E433FB600A780079027A007B00800826
:200BE2008C008D018E028F0390E68DE0FF750980750AE7750BC0750CE790E025E0FBA3E0D6
:200C0200FCA3E0FDA3E0FE880D890EE4F50FF510EBB50D0EECB50E0AEDB50F06EEB51002DC
:200C22008003020D0BE824FFFDE934FFFE5305F888048D03ECC39BFCEEC423CDC423541F45
:200C42006DCD541FCD6DCDFE8D061DEE603FAB0BAE0C850982850A83E0FA0509E4B5090285
:200C6200050A8A82C007C006C005C004C003120B24AA82D003D004D005D006D0078B828E4D
:200C820083EAF0050BE4B50BBF050C80BB850982850A83E0FE0509E4B50902050A90E00BFA
:200CA200EEF090E00AE4F090E00C7401F08C0690E00CE0FD6043EE60401E90E02AE0FD3044
:200CC200E005EE7002D2B290E00BE0FD13920192B1EDC313FD90E00BF030B00C90E00CE095
:200CE200FD90E00AE0FC4DF0D2B3C2B390E00CE025E0FD90E00CF080B6AD0BAE0C90E00A7C
:200D0200E0FC8D828E83F08051E9C423C8C423541F68C8541FC868C8F9880618EE603BADB2
:200D22000BAE0C850982850A83E0FC0509E4B50902050A8C82C007C006C005C000120B24CC
:200D4200AC82D000D005D006D0078D828E83ECF0050BE4B50BC3050C80BF90E68DE4F090E7
:200D6200E68FEFF090E025E0FCA3E0FDA3E0FEA3E0FF90E025ECC3950DF0ED950EA3F0EE42
:200D8200950FA3F0EF9510A3F0020B9990E029E4F02290E025E0FCA3E0FDA3E0FEA3E0FFCA
:200DA200EC4D4E4F7003020EDCE5BA20E1FB90E025E0FCA3E0FDA3E0FEA3E0FFC3ED940227
:200DC200EE9400EF9400B3E433FB600A780079027A007B0080088C008D018E028F0390E6BB
:200DE2008DE090E025E0FCA3E0FDA3E0FEA3E0FF88118912E4F513F514ECB5110EEDB512F3
:200E02000AEEB51306EFB514028003020EA9750980750AE7E824FFFEE934FFFF5306F88EAD
:200E220005E8C39DFDEFC423CEC423541F6ECE541FCE6ECEFF8E071EEF601F850982850AF0
:200E420083E0FF0509E4B50902050A8F82C006C005120A8DD005D00680DB850982850A8300
:200E6200E090E00DF090E00E7401F08D0790E00EE0FE6039EF60361F90E02AE0FE30E00586
:200E8200EF7002D2B290E00DE0FE13920292B1EEC31390E00DF0D2B3C2B390E00EE025E098
:200EA200FE90E00EF080C6758240120AC990E68DE4F090E025E0FCA3E0FDA3E0FEA3E0FF97
:200EC20090E025ECC39511F0ED9512A3F0EE9513A3F0EF9514A3F0020D9490E029E4F02289
:200EE20090E02AE0FF30E1047FFF80027F00EF13920390E025E0FBA3E0FCA3E0FDA3E0FE5C
:200F0200EB4C4D4E70030210B0E5BA20E2FB90E025E0FBA3E0FCA3E0FDA3E0FEC3EC9402F7
:200F2200ED9400EE9400B3E433FA600CE4F515751602F517F51880088B158C168D178E18D4
:200F4200AD15AE168D03EEC423CBC423541F6BCB541FCB6BCBFCED540760027401FCC007F7
:200F6200EC2BFC750BC0750CE790E025E0F8A3E0F9A3E0FAA3E0FF8D158E16E4F517F51889
:200F8200E8B5150EE9B5160AEAB51706EFB518028005D00702104CD007ED24FFF9EE34FF9C
:200FA200FA5301F88906EDC39EFEEAC423C9C423541F69C9541FC969C9FA890519ED603359
:200FC200AA0BAD0C8F82C007C006C005C004C002C001120B24A882D001D002D004D005D070
:200FE20006D0078A828D83E8F0050BE4B50BCB050C80C790E00FE4F090E0107401F0A2036A
:2010020092B190E010E0FD6031EE602E1E90E02AE0FD30E005EE7002D2B230B00C90E01027
:20102200E0FD90E00FE0FA4DF0D2B3C2B390E010E025E0FD90E010F080C8AD0BAE0C90E045
:201042000FE0FA8D828E83F080378B068E051EED602FAB0BAD0C8F82C007C006C005C0048A
:20106200C003120B24AA82D003D004D005D006D0078B828D83EAF0050BE4B50BCF050C800A
:20108200CB90E68FECF090E025E0FBA3E0FCA3E0FDA3E0FE90E025EBC39515F0EC9516A39B
:2010A200F0ED9517A3F0EE9518A3F0020EF490E029E4F02290E02AE0FF30E1047FFF8002C3
:2010C2007F00C00790E025E0FBA3E0FCA3E0FDA3E0FEEB24FFF8EC34FFF9ED34FFFAEE347E
:2010E200FFFF5300F8880690E011EBC39EF08819E9C423C519C423541F6519C519541FC51D
:20110200196519C519F51AEAC42354E0451AF51A8A1BEFC423C51BC423541F651BC51B546D
:201122001FC51B651BC51BF51CD007AB19AC1AAD1BAE1C151974FFB5190C151AB51A0715B5
:201142001BB51B02151CEB4C4D4E600B8F82C007120A8DD00780D4EF13920492B190E0112A
:20116200E0FFEF60141F90E02AE0FE30E005EF7002D2B2D2B3C2B380E990E029E4F0229018
:20118200E025E0FCA3E0FDA3E0FEA3E0FFEC4D4E4F6051E5BA20E1FB90E68DE0FF30050BA5
:2011A2008F82C007120B10D00780098F82C007120AC9D00790E68DE4F090E025E0FBA3E06A
:2011C200FCA3E0FDA3E0FE8F0079007A007F0090E025EBC398F0EC99A3F0ED9AA3F0EE9F85
:2011E200A3F0809B90E029E4F02290E025E0FCA3E0FDA3E0FEA3E0FFEC4D4E4F700302125F
:20120200A2E5BA20E2FB90E025E0FCA3E0FDA3E0FEA3E0FFC3EC9440ED9400EE9400EF9491
:2012220000B3E433FB600A784079007A007B0080088C008D018E028F03750BC0750CE78863
:2012420007EF602DAD0BAE0C758200C007C006C005C000120B24AC82D000D005D006D007CD
:201262008D828E83ECF0050BE4B50B02050C1F80D090E68FE8F090E025E0FCA3E0FDA3E0E9
:20128200FEA3E0FF79007A007B0090E025ECC398F0ED99A3F0EE9AA3F0EF9BA3F00211EC42
:2012A20090E029E4F02290E029E0FF24F8500122EF240A83F582EF240C83F583E473E9D055
:2012C200D3D6D9DCE1E61212121212121212020B99020D94020EE20210B6D205021181C227
:2012E200050211811211EC22AA82AB83ACF0FDD2B30000000000000000000000C2B3000035
:15130200000000001ABAFFE71BBBFFE31CBCFFDF1DBDFFDB22D8
:061BEC00000000000000F3
:2013170090E678E0FF30E0F8EF30E202D322C32290E678E0FF30E0F8EF30E202D322EF2028
:20133700E102D322C322AE82AF833007047DAA80027DA290E678E0FC20E6F890E6787480CA
:20135700F090E679EDF0C007C006C005121327D005D006D0075002D3228F0490E679ECF0F5
:20137700C007C006C005121327D005D006D0075002D32290E679EEF0C005121327D00550EC
:2013970002D32290E6787480F090E67974014DF01213175002D32290E679E01213175002EC
:2013B700D3227F00AD237E001DBDFF011E8F037C00C3EB9DEC64808EF063F08095F0501FEE
:2013D700EF2524FDE43525FE90E679E08D828E83F0C007121317D0075002D3220F80C590A1
:2013F700E6787420F0C007121317D0075002D322EF2524FFE43525FE90E679E08F828E836F
:20141700F01213175002D32290E6787440F090E679E0C322AE82AF833008047DAA80027D38
:20143700A290E678E0FC20E6F890E6787480F090E679EDF0C007C006C005121327D005D04A
:2014570006D0075002D3228F0490E679ECF0C007C006C005121327D005D006D0075002D3AE
:201477002290E679EEF0C005121327D0055002D322AE27AF287C00C3EC9526502A8E828F8E
:2014970083E0FBA3AE82AF8390E679EBF0C007C006C005C004121317D004D005D006D00760
:2014B7005002D3220C80D090E678E0FF4440F090E678E0FF20E6F890E6787480F090E679A5
:2014D700EDF0C005121317D0055002D32290E678E0FF4440F090E678E0FF20E6F890E67801
:0714F700E0FF30E1D2C32247
:201E00001201000200000040501D2B6002000102000109022E0001010080FA0904000004A9
:201E2000FF0000000705010200020007058102000200070502020002000705860200020059
:201E40000A0600020000004001000902190001010080320904000001FFFFFF000705060238
:031E60000002007D
:201E64000403090414034D0061006B006500530074007500660066002C03460050004700A1
:201E840041004C0069006E006B002F00460058003200200032003000310034003000330026
:061EA400310031000000D6
:040000000201B9320E
:01000B0032C2
:0100130032BA
:01001B0032B2
:0100230032AA
:01002B0032A2
:030033000215565D
:01003B003292
:01004300328A
:01004B003282
:01005300327A
:01005B003272
:01006300326A
:03006B0002155922
:03007300021A4B23
:03007B0002164822
:0300830002161E44
:03008B00021580DB
:030093000215CF84
:03009B0002164505
:0300A300021A75C9
:0300AB00021A76C0
:0300B300021A77B7
:0300BB00021A7AAC
:0300C300021A4AD4
:0300CB00021A67AF
:0300D300021A68A6
:0300DB00021A6A9C
:0300E30002164AB8
:0300EB00021AF303
:0300F300021646AC
:0300FB00021647A3
:0301030002164998
:03010B0002164B8E
:0301130002164C85
:03011B00021AD6EF
:03012300021A734A
:03012B00021A783D
:03013300021A7B32
:03013B00021A7D28
:03014300021A7429
:03014B00021A791C
:03015300021A7C11
:03015B00021A7E07
:03016300021AD5A8
:03016B00021A6B0A
:03017300021A6D00
:03017B00021A6FF6
:03018300021A71EC
:03018B00021A6CE9
:03019300021A6EDF
:03019B00021A70D5
:0301A300021A72CB
:0301AB00021A69CC
:0301B300021A49E4
:04021200C209C20A51
:030228000201B61A
:0301B6000214FE32
:2014FE00120243E500D2E890E668E04408F090E65CE04401F090E65CE04410F090E65CE04F
:20151E004420F090E65CE04408F0D2DDD2AF90E680E0FF20E11590E680E0440AF09005DCCB
:20153E00121A7F90E680E0FF54F7F012037910090280F812164D80F3C2DC32C0E0C082C057
:20155E0083C007C0D075D000D209AF9174EF5FF59190E65D7401F0D0D0D007D083D082D0C7
:20157E00E032C022C0E0C0F0C082C083C007C006C005C004C003C002C001C000C0D075D093
:20159E0000758200121939AF9174EF5FF59190E65D7410F0D0D0D000D001D002D003D00449
:2015BE00D005D006D007D083D082D0F0D0E0D02232C022C0E0C0F0C082C083C007C006C04E
:2015DE0005C004C003C002C001C000C0D075D000758201121939AF9174EF5FF59190E65D92
:2015FE007420F0D0D0D000D001D002D003D004D005D006D007D083D082D0F0D0E0D02232D4
:20161E00C0E0C082C083C007C0D075D000D20AAF9174EF5FF59190E65D7408F0D0D0D007D1
:07163E00D083D082D0E0321E
:011645003272
:011646003271
:011647003270
:01164800326F
:01164900326E
:01164A00326D
:01164B00326C
:01164C00326B
:0601E800E478FFF6D8FDEB
:12021600752A00752B00752C4A752D1E752E12752F1E75
:20164D0090E6B9E0FF24F45003021748EF240A83F582EF241083F583E4737F9448A9484883
:20166D00BE48C4DCF62A1616171617171617161616171217BFE582600302175D90E6A0E06C
:20168D00FF4401F002175D121848E582600302175D90E6A0E0FF4401F002175D1218B6E57C
:2016AD0082600302175D90E6A0E0FF4401F002175D12196402175D120984AF8290E740EFA7
:2016CD00F090E68AE4F090E68B7401F002175D90E6BAE0F58212097DE582600302175D906E
:2016ED00E6A0E0FF4401F0806790E6BCE0FF751D29751E00751F408F82120988E582700A94
:20170D0090E6A0E0FF4401F0804690E740E529F090E68AE4F090E68B7401F0803390E6BCF8
:20172D00E0FF90E6BAE0F51D8F821209A5E582701F90E6A0E0FF4401F0801590E6B9E0F511
:20174D00821205AAE582700890E6A0E0FF4401F090E6A0E04480F022AF828F0653067FEED8
:20176D0024F750030217BBEE240A83F582EE240D83F583E4739498ABBBAFBBB3BBB7171744
:20178D001717171717171790E6A022EF30E7067EA27FE680047EA17FE68E828F832290E610
:2017AD00A32290E6A42290E6A52290E6A6229000002290E6B8E0FFBF8002801FBF8102803F
:2017CD0005BF826F803490E740E4F090E741F090E68AF090E68B7402F0805CE52B25E0FF19
:2017ED00E52A420790E740EFF090E741E4F090E68AF090E68B7402F0803D90E6BCE0F582C5
:20180D00121765AE82AF83EE4F7003F582228E828F83E0FE30E0047F0180027F0090E74036
:20182D00EFF090E741E4F090E68AF090E68B7402F08004758200227582012290E6B8E0FF15
:20184D006005BF0257801190E6BAE0FFBF0105752B0080517582002290E6BAE0703A90E6DF
:20186D00BCE0F582121765AE82AF83E0FD5305FE8E828F83EDF090E6BCE0FF53070F90E636
:20188D00BCE05480C423541FFE90E6832FF090E683E0FF4420F0800D7582002290E6B9E07A
:2018AD00F5820205AA7582012290E6B8E0FF6005BF026C801B90E6BAE0FFBF020280699054
:2018CD00E6BAE0FFBF0105752B01805C7582002290E6BAE0704590E6BCE0F582121765AE97
:2018ED0082AF83EE4F7003F582228E828F83E0FD4305018E828F83EDF090E6BCE0FF53072C
:20190D000F90E6BCE05480C423541FFE90E6832FF090E683E0FF4420F0800D7582002290F3
:20192D00E6B9E0F5820205AA75820122AF82D20B10AF02C20BEF600E752C12752D1E752ECA
:20194D004A752F1E800C752C4A752D1E752E12752F1EA20B92AF2290E6BBE0FFBF0102805E
:20196D0019BF02028029BF03028033BF0603021A1DBF0703021A32021A417E007F1E8F0639
:20198D0090E6B3EEF07E007F1E90E6B4EEF022AF2D90E6B3EFF0AE2C90E6B4EEF0227E6424
:2019AD007D1E7F8090E6BAE0F51D7B008B020BEAB51D0280428E008D018F028E828D838F6F
:2019CD00F0121AD728F8E439F9880689058A0774012EF9E43DFA8F0489828A838CF0121A1A
:2019ED00D7F9B9030280067E007D007F00EE4D6006C3E51D9B50B5EE4D600D8D0790E6B3E1
:201A0D00EFF090E6B4EEF02290E6A0E04401F0227E407F1E8F0690E6B3EEF07E407F1E9081
:1C1A2D00E6B4EEF022AF2F90E6B3EFF0AE2E90E6B4EEF02290E6A0E04401F022CA
:2001C6007916E94400601B7A01901BDC78157592E0E493F2A308B800020592D9F4DAF275F9
:0201E60092FF86
:011A4900326A
:011A4A003269
:011A4B003268
:1B1A4C0020F71130F6138883A88220F509F6A8837583002280FEF280F5F02299
:011A6700324C
:011A6800324B
:011A6900324A
:011A6A003249
:03004300021F0099
:201F000002155900021A4B000216480002161E00021580000215CF0002164500021A7400EA
:201F2000021A7500021A7600021A7700021A7A00021A4A00021A6700021A6800021A6A0062
:201F400002164A00021A7400021AF30002164600021647000216490002164B0002164C009B
:201F6000021AD600021A7400021A7400021A7400021A7300021A7800021A7B00021A7D006C
:201F8000021A7900021A7C00021A7E00021AD500021A6B00021A6D00021A6F00021A710061
:181FA000021A6C00021A6E00021A7000021A7200021A6900021A490013
:011A6B003248
:011A6C003247
:2001EE007800E84400600A79007592E0E4F309D8FC7815E84400600C790190E000E4F0A349
:04020E00D8FCD9FA45
:011A6D003246
:011A6E003245
:011A6F003244
:011A70003243
:011A71003242
:011A72003241
:011A73003240
:011A7400323F
:011A7500323E
:011A7600323D
:011A7700323C
:011A7800323B
:011A7900323A
:011A7A003239
:011A7B003238
:011A7C003237
:011A7D003236
:011A7E003235
:201A7F00AE82AF8390E600E05418C423541FFDB40100E433FD60067CB17D00801C90E600E1
:201A9F00E05418C423541FFBBB01067A617B0180047AC27B028A048B058C1D8D1E151D7418
:161ABF00FFB51D02151EE51D451E70F11EBEFF011FEE4F70E42297
:011AD50032DE
:011AD60032DD
:0D01B90075812F121AF4E58260030201B671
:1C1AD70020F71430F6148883A88220F507E6A88375830022E280F7E49322E0221E
:011AF30032C0
:041AF40075820022D5
:00000001FF
