:0E022D00AA8290E6C2E4F0BA010790E60174DE
:03023B00E3F022CB
:07023E0090E60174E0F022DC
:0E02450090E6827445F07445F090E670E4F0A7
:0E0253000000000090E602E4F00000000090C1
:0E026100E603E4F00000000090E609E4F0007F
:0E026F0000000090E60B7403F0000000009009
:0E027D00E6007410F00000000090E60174E04E
:0E028B00F00000000090E613E4F00000000018
:0E02990090E615E4F00000000090E619E4F095
:0E02A7000000000090E61BE4F0000000009054
:0E02B500E61074A0F00000000090E61174A0A6
:0E02C300F00000000090E61274A0F0000000B1
:0E02D1000090E61474E0F00000000090E604D7
:0E02DF007480F00000000090E6047402F0004D
:0E02ED0000000090E6047406F000000000908F
:0D02FB00E604E4F090E68DF00000000090B5
:0E030800E6497482F00000000090E64974821D
:0E031600F00000000090E6497482F000000044
:0E0324000090E6497482F00000000090E61898
:0E0332007410F00000000090E61A7408F0004D
:0E03400000000090E6247402F000000000901F
:0E034E00E625E4F090E67AE04401F075AF0792
:0E035C007580FF75B2007590FF75B30075A037
:0E036A00FF75B40075B0FF75B50075B1FF7575
:03037800B60022AA
:03037B000211EF7D
:0C037E00AA827B00EA24FB50030205A9C0
:07038A00EA2A2A9003917397
:070391000203A002040902AF
:0603980004720204DB0206
:02039E00054315
:0A03A000E51645B2602AE517600774
:0703AA00E51645B2FA8007D9
:0703B100E516F4FC55B2FA59
:0A03B8008AB2E5186007E5164580DB
:0303C200FA8007B7
:0703C500E516F4FC5580FA77
:0403CC008A8080287B
:0A03D000E5186007E5164580FA8085
:0103DA00071B
:0703DB00E516F4FC5580FA61
:0A03E2008A80E5176007E51645B2B2
:0303EC00FA80078D
:0703EF00E516F4FC55B2FA1B
:0203F6008AB2C9
:0A03F800E516558060047A018002CA
:020402007A007E
:050404008A030205A9B6
:0A040900E51645B3602AE517600709
:07041300E51645B3FA80076E
:07041A00E516F4FC55B3FAEE
:0A0421008AB3E5186007E516459060
:03042B00FA80074D
:07042E00E516F4FC5590FAFD
:040435008A90802801
:0A043900E5186007E5164590FA800B
:0104430007B1
:07044400E516F4FC5590FAE7
:0A044B008A90E5176007E51645B337
:03045500FA800723
:07045800E516F4FC55B3FAB0
:02045F008AB35E
:0A046100E516559060047A01800250
:02046B007A0015
:05046D008A030205A94D
:0A047200E51645B4602AE51760079F
:07047C00E51645B4FA800704
:07048300E516F4FC55B4FA84
:0A048A008AB4E5186007E51645A0E6
:03049400FA8007E4
:07049700E516F4FC55A0FA84
:04049E008AA0802888
:0A04A200E5186007E51645A0FA8092
:0104AC000748
:0704AD00E516F4FC55A0FA6E
:0A04B4008AA0E5176007E51645B4BD
:0304BE00FA8007BA
:0704C100E516F4FC55B4FA46
:0204C8008AB4F4
:0A04CA00E51655A060047A018002D7
:0204D4007A00AC
:0504D6008A030205A9E4
:0A04DB00E51645B5602AE517600735
:0704E500E51645B5FA80079A
:0704EC00E516F4FC55B5FA1A
:0A04F3008AB5E5186007E51645B06C
:0304FD00FA80077B
:07050000E516F4FC55B0FA0A
:040507008AB080280E
:0A050B00E5186007E51645B0FA8018
:0105150007DE
:07051600E516F4FC55B0FAF4
:0A051D008AB0E5176007E51645B542
:03052700FA800750
:07052A00E516F4FC55B5FADB
:020531008AB589
:0A053300E51655B060047A0180025D
:02053D007A0042
:04053F008A03806645
:0A054300E51645B6602AE5176007CB
:07054D00E51645B6FA800730
:07055400E516F4FC55B6FAB0
:0A055B008AB6E5186007E51645B101
:03056500FA800712
:07056800E516F4FC55B1FAA1
:04056F008AB18028A5
:0A057300E5186007E51645B1FA80AF
:01057D000776
:07057E00E516F4FC55B1FA8B
:0A0585008AB1E5176007E51645B6D8
:03058F00FA8007E8
:07059200E516F4FC55B6FA72
:020599008AB620
:0A059B00E51655B160047A018002F4
:0205A5007A00DA
:0205A7008A03C5
:0305A9008B822220
:0705AC00AA82BA8002802739
:0605B300BA81030206827A
:0605B900BA82030206C431
:0605BF00BA8303020700ED
:0605C500BA8503020727BE
:0605CB00BA86030207904E
:0605D100BAA2030207DAE2
:0305D700020970A6
:0E05DA0090E6B8E0FABA402690E6BBE0FB7A65
:0D05E8000090E6BAE07D004202ED42039073
:0E05F500E6BCE0FCEA4B70078C8212022D80FF
:010603007A7C
:0406040075820022D9
:0E06080090E6A0E0FA20E1F890E740744EF092
:0D06160090E7417445F090E742744DF0907C
:0E062300E7437449F090E015E0FA90E744F0E8
:09063100E58030E2047A00800249
:02063A007A0143
:0E063C0090E745EAF090E7467411F090E7472A
:0D064A007426F090E748E4F090E749F09046
:0D065700E74AF090E74BF090E74CE4F0909C
:0E066400E74DF090E74EF090E74FF090E68AF9
:0C067200E4F00000000090E68B7410F033
:04067E00758201225E
:0A06820090E6B8E0FABA40028003E7
:03068C00020970F0
:05068F0090E68BE4F091
:0E06940090E6A0E0FA20E1F890E740E0FAA33B
:0D06A200E0FBA3E0FCA3E0FD90E6BCE0F56A
:0A06AF001690E6BAE0F5178A828B78
:0B06B900838CF0ED120B6B75820122A8
:0A06C40090E6B8E0FABA40028003A5
:0306CE00020970AE
:0506D10090E68BE4F04F
:0E06D60090E6A0E0FA20E1F890E740E0FAA3F9
:0D06E400E0FBA3E0FCA3E0FD90E6BAE0F52A
:0C06F100168A828B838CF0ED120A58757B
:0306FD0082012255
:0A07000090E6B8E0FABA4002800368
:03070A0002097071
:0E070D0090E6BAE0FAA3E0FBA3E0FCA3E08ACA
:0C071B00828B838CF012122B758201225D
:0A07270090E6B8E0FABAC0028003C1
:030731000209704A
:0E07340090E6BAE0FA90E6BBE0FB90E6BCE08F
:0E074200FC90E6BDE0FDEA24FB4005EB24F848
:02075000500453
:04075200758200228A
:0E07560090E6A0E0FE20E1F88BF005F07401C3
:02076400800211
:0207660025E08C
:08076800D5F0FBF5168C178D8E
:0C077000188A8212037EAA8290E740EAF9
:0E077C00F090E68AE4F00000000090E68B7436
:06078A0001F0758201225E
:0A07900090E6B8E0FABA40028003D8
:03079A00020970E1
:0E079D0090E6BCE0FA90E6BDE0FBEA70047561
:0307AB00820122A6
:0407AE001ABA04006F
:0E07B200501590E6BAE0FCEBC454F024802C05
:0907C000F5168A821209E9800D88
:0B07C900EBC454F02480F5168A821265
:0207D40009E931
:0407D6007582012205
:0A07DA0090E6B8E0FABAC00280030E
:0307E4000208C246
:0E07E70090E6BBE0FB7A0090E6BAE0FC7D00F5
:0E07F50090E000EC4AF0ED4BA3F090E6BFE080
:0E080300FB7A0090E6BEE0FC7D0090E002EC87
:060811004AF0ED4BA3F0DC
:0E08170090E002E0FAA3E0FB4A700302096CD5
:0E08250090E6A0E0FA20E1F890E002E0FAA3ED
:0E083300E0FBC3EA9440EB940040047A407B63
:0108410000B6
:020842007C0038
:0E0844008C057E00C3ED9AEE9B5010EC244014
:0D085200F582E434E7F5837423F00C80E5B3
:0C085F0090E6BCE024FF920290E000E074
:0A086B00FCA3E0FD8A06750A407543
:0A0875000BE78E098C828D83C00210
:0E087F00C003C004C005C00612127ED006D011
:0E088D0005D004D003D00290E68AE4F000000B
:0E089B00000090E68BEEF090E000EA2CF0EB0F
:0E08A9003DA3F090E002E0FCA3E0FD90E00231
:0B08B700ECC39AF0ED9BA3F0020817C1
:0A08C20090E6B8E0FABA40028003A5
:0308CC0002096CB2
:0E08CF0090E6BBE0FB7A0090E6BAE0FC7D000C
:0E08DD0090E004EC4AF0ED4BA3F090E6BFE093
:0E08EB00FB7A0090E6BEE0FC7D0090E006EC9B
:0608F9004AF0ED4BA3F0F4
:0E08FF0090E006E0FAA3E0FB4A606290E68B10
:02090D00E4F014
:0E090F0090E6A0E0FA20E1F890E68BE0FA7B9B
:0C091D000090E6BCE024FF920390E00490
:0A092900E0FCA3E0FD8A0C750D4010
:0C093300750EE78C828D83C002C003C0EB
:0E093F0004C00512136AD005D004D003D00204
:0E094D0090E004EA2CF0EB3DA3F090E006E011
:0E095B00FCA3E0FD90E006ECC39AF0ED9BA338
:03096900F0809388
:04096C00758201226D
:04097000758200226A
:011B70000074
:070974008582087582012253
:04097B008508822247
:0A097F00E582FA7014AA16AB17AC5B
:0C098900188A828B838CF0E41219E2754E
:03099500820122BA
:040998007582002242
:0C099C00E582FA7044E516704090E68396
:0D09A8007401F0E0FA90E68374204AF090AC
:0E09B500E6837411F0E0FA90E68374204AF0B5
:0E09C30090E6837402F0E0FA90E68374204A16
:0E09D100F090E6837416F0E0FA90E68374204E
:0609DF004AF075820122BE
:0409E50075820022F5
:0A09E900AA827B587C0AEA75F0032D
:0A09F300A42416F582E434E0F58335
:0E09FD00E0FAA3E0FDA3E0FE8A828D838EF077
:0E0A0B00121A6BFFA3121A6BF874022AFAE497
:0A0A19003DFD90E008EFF0A3E8F0C7
:0E0A230090E008E0FFA3E0F84F6029EF2BF50C
:0C0A310082E83CF583E516F08A828D8394
:0E0A3D008EF0121A6BFFA3121A6BF8A3AA8296
:0C0A4B00AD8390E008EFF0A3E8F080CC51
:010A5700227C
:041A8C00B80000009E
:0E1A9000C500CE00D700E000E900F200FB0028
:081A9E0004017602BD05000001
:0E1AA6002D0034003B00420049005000570064
:0E1AB4005E0073007A00810088008F009600AB
:0E1AC2009D00A400C800D100DA00E300EC0093
:0E1AD000F500FE0007016C022A04A3050B07B7
:021ADE00000006
:0C1AE000140064022204BB052107000072
:0E1AEC001000230027002F00320036003900C2
:0E1AFA003D004000440047004B004E005200EB
:0E1B0800550059005C00600063006E0075001F
:0E1B160078007C007F00830086008A008D002E
:0E1B24009100940098009B009F00A200A60074
:0E1B3200AA00B500BA00BE00CA00CC00D30065
:0E1B4000D500DC00DE00E500E700EE00F0005E
:0E1B4E00F700F9000001020109010C018502F7
:0E1B5C00870233043504CC05CE052307250788
:061B6A00DB07E8070000A4
:031B7100901A8047
:031B7400A61A802E
:031B7700E01A80F1
:031B7A00EC1A80E2
:031B7D008C1A803F
:090A5800AA82AB83ACF0FDAE16DE
:0E0A61008E071EEF6017C2B3EA1392B2EDC308
:0E0A6F0013FDEC13FCEB13FBEA13FAD2B38079
:010A7D00E395
:030A7E00C2B322DE
:0E0A8100E5821392B1D2B313C2B392B1D2B3D5
:0E0A8F0013C2B392B1D2B313C2B392B1D2B3B9
:0E0A9D0013C2B392B1D2B313C2B392B1D2B3AB
:0E0AAB0013C2B392B1D2B313C2B392B1D2B39D
:040AB90000C2B322A2
:080ABD00759AE7759B80A88281
:0E0AC500C2B3E59C1392B1D2B313C2B392B187
:0E0AD300D2B313C2B392B1D2B313C2B392B175
:0E0AE100D2B313C2B392B1D2B313C2B392B167
:0E0AEF00D2B313C2B392B1D2B313C2B392B159
:070AFD00D2B3D8C4C2B3223A
:080B0400759AE7759B80A88239
:0C0B0C00C2B3859C80D2B3D8F7C2B322DC
:0E0B1800AA82E582A2B01392B1D2B3C2B3A2F8
:0E0B2600B01392B1D2B3C2B3A2B01392B1D247
:0E0B3400B3C2B3A2B01392B1D2B3C2B3A2B097
:0E0B42001392B1D2B3C2B3A2B01392B1D2B328
:0E0B5000C2B3A2B01392B1D2B3C2B3A2B0131B
:0D0B5E0092B1D2B300C2B3F582228A822286
:0E0B6B00AA82AB83ACF0FD90E025EAF0A3EB8C
:0C0B7900F0A3ECF0A3EDF090E029E516ED
:080B8500F090E02AE517F022D0
:0E0B8D0090E025E0FAA3E0FBA3E0FCA3E0FD6E
:090B9B00EA4B4C4D7003020D827F
:050BA400E5BA20E1FBB1
:0E0BA900E5BA20E2FB90E025E0FAA3E0FBA312
:0E0BB700E0FCA3E0FDC3EB9402EC9400ED948F
:0E0BC50000B3E433FE600A7E007F0278007900
:030BD30000800897
:080BD6008A068B078C008D01DB
:0A0BDE0090E68DE0FA752280752381
:080BE800E77524C07525E790B4
:0E0BF000E025E0FBA3E0FCA3E0FDA3E0F88E0F
:050BFE00268F27E4F53D
:050C030028F529EBB506
:080C0800260EECB5270AEDB53C
:080C10002806E8B52902800363
:030C1800020CFDCE
:0E0C1B00EE24FFFBEF34FFFC5303F88E058B35
:0E0C290000EDC398FDECC423CBC423541F6B15
:070C3700CB541FCB6BCBFC7B
:0A0C3E008B041BEC603FAC24A825DA
:090C4800852282852383E0F90571
:060C510022E4B5220205B9
:010C57002379
:0D0C58008982C002C003C004C005C00012A4
:0E0C65000B18A982D000D005D004D003D00215
:0A0C73008C828883E9F00524E4B5C3
:060C7D0024BF052580BB29
:090C8300852282852383E0FB0534
:060C8C0022E4B52202057E
:010C9200233E
:0B0C930090E00BEBF090E00AE4F09022
:070C9E00E00C7401F08D036E
:0E0CA50090E00CE0FC6041EB603E1B90E02A0A
:0A0CB300E0FC30E005EB7002D2B265
:0D0CBD0090E00BE0FC1392B1ECC313FC902F
:0C0CCA00E00BF030B00C90E00CE0FC906F
:060CD600E00AE0FD4CF015
:0E0CDC00D2B3C2B390E00CE025E0FC90E00C37
:030CEA00F080B8DF
:050CED00AB24AC2590D2
:0B0CF200E00AE0FD8B828C83F0805351
:0E0CFD00EFC423CEC423541F6ECE541FCE6E00
:040D0B00CEFF8E0386
:0A0D0F008B041BEC603BAC24AD2507
:090D1900852282852383E0FE059A
:060D220022E4B5220205E7
:010D280023A7
:0E0D29008E82C002C003C004C005120B18AEBB
:0E0D370082D005D004D003D0028C828D83EED2
:080D4500F00524E4B524C30508
:030D4D002580BF3F
:0E0D500090E68DE4F090E68FEAF090E025E06A
:0E0D5E00FAA3E0FBA3E0FCA3E0FD90E025EA91
:0A0D6C00C39526F0EB9527A3F0ECE9
:0A0D76009528A3F0ED9529A3F002E3
:020D80000B8DD9
:060D820090E029E4F022DC
:0E0D880090E025E0FAA3E0FBA3E0FCA3E0FD71
:090D9600EA4B4C4D7003020ECE35
:0E0D9F00E5BA20E1FB90E025E0FAA3E0FBA31B
:0E0DAD00E0FCA3E0FDC3EB9402EC9400ED9497
:0E0DBB0000B3E433FE600A7E007F0278007908
:030DC9000080089F
:080DCC008A068B078C008D01E3
:0E0DD40090E68DE090E025E0FAA3E0FBA3E0BE
:0A0DE200FCA3E0FD8E2A8F2BE4F540
:050DEC002CF52DEAB515
:080DF1002A0EEBB52B0AECB54C
:080DF9002C06EDB52D0280036C
:030E0100020E9B43
:0A0E04007522807523E7EE24FFFA43
:0E0E0E00EF34FFFB5302F88A04EEC39CFCEBAA
:0E0E1C00C423CAC423541F6ACA541FCA6ACA18
:010E2A00FBCC
:0A0E2B008A031AEB601F85228285FE
:080E35002383E0FB0522E4B574
:040E3D002202052365
:0E0E41008B82C002C004120A81D004D002804D
:010E4F00DBC7
:080E5000852282852383E090D6
:0B0E5800E00DF090E00E7401F08C0241
:0E0E630090E00EE0FB6037EA60341A90E02A5F
:0A0E7100E0FB30E005EA7002D2B2A7
:0E0E7B0090E00DE0FB1392B1EBC31390E00D7D
:0D0E8900F0D2B3C2B390E00EE025E0FB9084
:050E9600E00EF080C831
:060E9B00758240120ABD41
:0E0EA10090E68DE4F090E025E0FAA3E0FBA3DC
:0C0EAF00E0FCA3E0FD90E025EAC3952ADA
:0A0EBB00F0EB952BA3F0EC952CA3AF
:090EC500F0ED952DA3F0020D885B
:060ECE0090E029E4F0228F
:0C0ED40090E02AE0FA30E1047AFF80028E
:020EE0007A0096
:040EE200EA5401FBD2
:0E0EE60090E025E0FCA3E0FDA3E0FEA3E0FF0A
:090EF400EC4D4E4F70030210A9F1
:0E0EFD00E5BA20E2FB90E025E0FCA3E0FDA3B7
:0E0F0B00E0FEA3E0FFC3ED9402EE9400EF942D
:0B0F190000B3E433F8600E752E007585
:060F24002F02753000757C
:040F2A00310080080A
:050F2E008C2E8D2F8EBA
:030F3300308F31CB
:0A0F3600AC2EAD2F8C06EDC423CEC7
:0E0F4000C423541F6ECE541FCE6ECEFFEC5451
:050F4E000760027401C0
:0A0F5300FFC003EF2EF52E7524C039
:0C0F5D007525E790E025E0F8A3E0F9A37B
:0A0F6900E0FBA3E0FF8C328D33E4BF
:060F7300F534F535E8B588
:080F7900320EE9B5330AEBB5B5
:080F81003406EFB535028005CE
:050F8900D0030210443A
:0E0F8E00D003EC24FFFFED34FFF85307F88F7B
:0E0F9C0005ECC39DFCE8C423CFC423541F6F93
:090FAA00CF541FCF6FCFF88F0563
:0A0FB3008D071DEF6033AF24A82561
:0E0FBD008A82C002C003C004C005C007C00085
:0E0FCB00120B18A982D000D007D005D004D098
:0C0FD90003D0028F828883E9F00524E435
:070FE500B524CB052580C7F0
:0E0FEC0090E00FE4F090E0107401F0EB24FFB1
:020FFA0092B1B2
:0E0FFC0090E010E0FD6031EC602E1C90E02AC9
:0A100A00E0FD30E005EC7002D2B208
:0E10140030B00C90E010E0FD90E00FE0FF4DDA
:01102200F0DD
:0E102300D2B3C2B390E010E025E0FD90E010E3
:03103100F080C884
:05103400AC24AD259085
:0B103900E00FE0FF8C828D83F0803719
:021044008E0418
:0A1046008C051CED602FAD24AE25D3
:0D1050008A82C002C003C004C005C00612A1
:0E105D000B18AF82D006D005D004D003D0020D
:0A106B008D828E83EFF00524E4B5BA
:0610750024CF052580CB0D
:0C107B0090E68FE52EF090E025E0FCA34D
:0E108700E0FDA3E0FEA3E0FF90E025ECC395A2
:0910950032F0ED9533A3F0EE9565
:09109E0034A3F0EF9535A3F00234
:0210A7000EE653
:0610A90090E029E4F022B2
:0C10AF0090E02AE0FA30E105753AFF807D
:0110BB000331
:0310BC00753A0082
:0E10BF0090E025E0FBA3E0FCA3E0FDA3E0FE33
:0E10CD00EB24FFFFEC34FFF8ED34FFF9EE34B6
:0E10DB00FFFA5307F88F0490E011EBC39CF06E
:0A10E9008F36E8C423C536C4235433
:0810F3001F6536C536541FC508
:0410FB00366536C55B
:0910FF0036F537E9C42354E0453D
:0411080037F53789F7
:0A110C0038EAC423C538C423541F79
:071116006538C538541FC500
:04111D00386538C534
:0411210038F539ABB9
:0411250036AC37AD00
:0311290038AE39A4
:0E112C008B078C008D018E021BBBFF091CBCC3
:07113A00FF051DBDFF011EB2
:0C114100EF48494A6018853A82C003C09C
:0E114D0004C005C006120A81D006D005D004E9
:04115B00D00380CD70
:0A115F00E53A1392B190E011E0FAB6
:0E116900EA60141A90E02AE0FB30E005EA701C
:0311770002D2B2EF
:06117A00D2B3C2B380E90C
:0611800090E029E4F022DA
:0E11860090E025E0FAA3E0FBA3E0FCA3E0FD6F
:06119400EA4B4C4D604FD8
:0C119A00E5BA20E1FB90E68DE0FA3000A1
:0C11A6000B8A82C002120B04D0028009E8
:0911B2008A82C002120ABDD002BB
:0E11BB0090E68DE4F090E025E0FBA3E0FCA3BD
:0E11C900E0FDA3E0FE7F007800790090E025B5
:0E11D700EBC39AF0EC9FA3F0ED98A3F0EE9915
:0411E500A3F0809D56
:0611E90090E029E4F02271
:0D11EF0090E029E0FA24F94032EA2A2A9023
:0311FC0011FF736D
:0711FF0002122A0212140281
:06120600121702121A0289
:06120C00121D0212200277
:021212001225A3
:03121400020B8D3D
:03121700020D883D
:03121A00020ED4ED
:03121D000210AF0D
:05122000D2000211865E
:05122500C20012118659
:01122A0022A1
:07122B00AA82AB83ACF0FDC9
:0E123200D2B30000000000000000000000C267
:0E124000B30000000000001ABAFFE71BBBFF5E
:0A124E00E31CBCFFDF1DBDFFDB2227
:041B80000000000061
:011B84000060
:011B8500005F
:0E12580090E678E0FA30E0F8EA30E202D322C5
:02126600C322A1
:0E12680090E678E0FA30E0F8EA30E202D322B5
:06127600EA20E102D32290
:02127C00C3228B
:0B127E00AA82AB833002047CAA80022D
:021289007CA245
:0E128B0090E678E0FD20E6F890E6787480F0BA
:0E12990090E679ECF0C002C003C004121268A7
:0A12A700D004D003D0025002D3227D
:0E12B10090E679EBF0C002C003C00412126890
:0A12BF00D004D003D0025002D32265
:0E12C90090E679EAF0C004121268D0045002D8
:0212D700D32220
:0E12D90090E6787480F090E67974014CF01283
:0612E70012585002D32250
:0B12ED0090E679E01212585002D32264
:0212F8007A007A
:0912FA00AB097C001BBBFF011CC9
:0E1303008A057E00C3ED9BEE64808CF063F0E3
:0B1311008095F0501FEA250AFBE43530
:0C131C000BFC90E679E08B828C83F0C023
:0A13280002121258D0025002D32224
:031332000A80C569
:0E13350090E6787420F0C002121258D00250D8
:0313430002D322B0
:09134600EA250AFAE4350BFB90DC
:0E134F00E679E08A828B83F01212585002D3A6
:01135D00226D
:0C135E0090E6787440F090E679E0C3223D
:0B136A00AA82AB833003047CAA80023F
:021375007CA258
:0E13770090E678E0FD20E6F890E6787480F0CD
:0E13850090E679ECF0C002C003C004121268BA
:0A139300D004D003D0025002D32290
:0E139D0090E679EBF0C002C003C004121268A3
:0A13AB00D004D003D0025002D32278
:0E13B50090E679EAF0C004121268D0045002EB
:0213C300D32233
:0613C500AA0DAB0E7D0035
:0C13CB00C3ED950C502A8A828B83E0FE53
:0E13D700A3AA82AB8390E679EEF0C002C003B9
:0E13E500C004C005121258D005D004D003D0A9
:0513F300025002D322AC
:0313F8000D80D095
:0813FB0090E678E0FA4440F0AE
:0814030090E678E0FA20E6F81B
:0E140B0090E6787480F090E679ECF0C0041260
:081419001258D0045002D32246
:0814210090E678E0FA4440F087
:0E14290090E678E0FA20E6F890E678E0FA30F7
:04143700E1D2C32219
:0E1E00001201000200000040501D2B60020085
:041E0E0001020001CC
:091E120009022E0001010080FA12
:0E1E1B000904000004FF00000007050102009A
:0E1E2900020007058102000200070502020008
:091E37000200070586020002000A
:0A1E40000A06000200000040010045
:091E4A00090219000101008032B7
:0E1E53000904000001FFFFFF00070506020062
:021E610002007D
:041E64000403090466
:0E1E680014034D0061006B0065005300740010
:061E760075006600660025
:0E1E7C002C0346005000470041004C00690056
:0E1E8A006E006B002F00460058003200200052
:0E1E98003200300031003300310032003100E2
:021EA60030000A
:021EA800000038
:040000000201BB320C
:01000B0032C2
:0100130032BA
:01001B0032B2
:0100230032AA
:01002B0032A2
:0300330002151C97
:01003B003292
:01004300328A
:01004B003282
:01005300327A
:01005B003272
:01006300326A
:03006B0002151F5C
:030073000219E18E
:03007B000215E883
:030083000215CD96
:03008B0002153724
:03009300021582D1
:03009B000215E566
:0300A300021A0935
:0300AB00021A0A2C
:0300B300021A0B23
:0300BB00021A0E18
:0300C3000219E03F
:0300CB000219FB1C
:0300D3000219FC13
:0300DB000219FE09
:0300E3000215EA19
:0300EB00021A876F
:0300F3000215E60D
:0300FB000215E704
:030103000215E9F9
:03010B000215EBEF
:030113000215ECE6
:03011B00021A6A5B
:03012300021A07B6
:03012B00021A0CA9
:03013300021A0F9E
:03013B00021A1194
:03014300021A0895
:03014B00021A0D88
:03015300021A107D
:03015B00021A1273
:03016300021A6914
:03016B000219FF77
:03017300021A016C
:03017B00021A0362
:03018300021A0558
:03018B00021A0055
:03019300021A024B
:03019B00021A0441
:0301A300021A0637
:0301AB000219FD39
:0301B3000219DF4F
:04021400C204C20559
:03022A000201B618
:0501B60012143B80FE65
:0C143B00120245E500D2E890E668E044AB
:0E14470008F090E65CE04401F090E65CE044C2
:0E14550010F090E65CE04420F090E65CE0448D
:0E14630008F0D2DDD2AF90E680E0FA20E1156D
:0E14710090E680E0440AF09005DC121A139019
:07147F00E680E0FA54F7F0EB
:0814860012037B100402800335
:03148E001215ED47
:0514910010050280F0CF
:0E14960090E682E0FA44C0F090E6817401F026
:0C14A40043870100000000000000E5117B
:0E14B000702690E682E0FA30E60B90E682E0CD
:0714BE00FA30E0030214966E
:0E14C50090E682E0FA30E70B90E682E0FA3023
:0514D300E10302149684
:0E14D80090E682E0FA30E60890E682E0FA2024
:0214E600E0160E
:0B14E80090E682E0FA20E70302148681
:0B14F30090E682E0FA20E1030214867C
:0E14FE00900005121A1390E680E04401F09071
:0E150C00000F121A1390E680E0FA54FEF0026F
:02151A00148635
:03151C00C2DC32FC
:0C151F00C0E0C082C083D2045391EF9062
:0C152B00E65D7401F0D083D082D0E03285
:0C153700C021C0E0C0F0C082C083C00230
:0E154300C003C004C005C006C007C000C00140
:0E155100C0D075D0007582001218E35391EFE0
:0E155F0090E65D7410F0D0D0D001D000D0071F
:0E156D00D006D005D004D003D002D083D082A7
:07157B00D0F0D0E0D02132D6
:0C158200C021C0E0C0F0C082C083C002E5
:0E158E00C003C004C005C006C007C000C001F5
:0E159C00C0D075D0007582011218E35391EF94
:0E15AA0090E65D7420F0D0D0D001D000D007C4
:0E15B800D006D005D004D003D002D083D0825C
:0715C600D0F0D0E0D021328B
:0C15CD00C0E0C082C083D2055391EF90B3
:0C15D900E65D7408F0D083D082D0E032D0
:0115E50032D3
:0115E60032D2
:0115E70032D1
:0115E80032D0
:0115E90032CF
:0115EA0032CE
:0115EB0032CD
:0115EC0032CC
:0601EA00E478FFF6D8FDE9
:0801C8007916E94400601B7A7E
:0501D00001901B707896
:0301D5001575920B
:0A01D800E0E493F2A308B80002056A
:0801E20092D9F4DAF27592FFE4
:07021800751000751100755F
:03021F00124A750B
:03022200131E7533
:030225001412753B
:02022800151EA1
:0C15ED0090E6B9E0FA24F450030216ED79
:0715F900EA2A2A9016007394
:071600000216240216390254
:0616070016ED02164E0272
:06160D0016ED0216ED02CD
:0616130016630216ED0251
:06161900166902168102B1
:05161F00169B0216CF2E
:0A162400121761E58260030217024D
:0B162E0090E6A0E0FA4401F002170271
:0A1639001217EDE5826003021702AC
:0B16430090E6A0E0FA4401F00217025C
:0A164E0012185BE582600302170228
:0B16580090E6A0E0FA4401F002170247
:0616630012190E0217022D
:0E16690012097BAA8290E740EAF090E68AE43C
:0A167700F090E68B7401F0021702F8
:0E16810090E6BAE0F582120974E58260030279
:02168F00170240
:0A16910090E6A0E0FA4401F0806743
:09169B0090E6BCE0FA75160F752B
:0816A40017007518408A82123C
:0E16AC00097FE582700A90E6A0E0FA4401F0A2
:0216BA00804668
:0C16BC0090E740E50FF090E68AE4F09023
:0716C800E68B7401F0803392
:0C16CF0090E6BCE0FA90E6BAE0F5168A5E
:0E16DB008212099CE582701F90E6A0E0FA449E
:0416E90001F0801577
:0E16ED0090E6B9E0F5821205ACE58270089037
:0716FB00E6A0E0FA4401F053
:0817020090E6A0E04480F02213
:0E170A00AA82747F5AFB24F74049EB2B2B90E8
:03171800171B7329
:07171B0002173602173A0223
:06172200174D02175D02E5
:06172800175102175D02DB
:06172E00175502175D02D1
:02173400175943
:0417360090E6A02277
:0A173A00EA30E7067AA27BE680049D
:041744007AA17BE625
:051748008A828B832260
:04174D0090E6A3225D
:0417510090E6A42258
:0417550090E6A52253
:0417590090E6A6224E
:04175D0090000022D6
:0A17610090E6B8E0FABA8002802298
:05176B00BA81028008B4
:05177000BA820280377F
:031775000217E573
:0E17780090E740E4F090E741F090E68AF090B0
:07178600E68B7402F0805CA9
:0A178D00E51125E0FAE51042029094
:0E179700E740EAF090E741E4F090E68AF09037
:0717A500E68B7402F0803DA9
:0E17AC0090E6BCE0F58212170AAA82AB83EA2F
:0617BA004B7003F58222D2
:0D17C0008A828B83E0FA30E0047A01800217
:0217CD007A00A0
:0E17CF0090E740EAF090E741E4F090E68AF0FF
:0817DD0090E68B7402F0800419
:0417E50075820022E7
:0417E90075820122E2
:0C17ED0090E6B8E0FA6005BA02578011DF
:0C17F90090E6BAE0FABA01057511008014
:011805005191
:0418060075820022C5
:0D180A0090E6BAE0703A90E6BCE0F582127C
:0E181700170AAA82AB83E0FC5304FE8A828B80
:0E18250083ECF090E6BCE0FA53020F90E6BCB4
:0E183300E05480C423541FFB90E6832AF090FB
:09184100E683E0FA4420F0800D7A
:04184A007582002281
:09184E0090E6B9E0F5820205AC58
:041857007582012273
:0C185B0090E6B8E0FA6008BA0202801FB4
:031867000218D68E
:0B186A0090E6BAE0FABA02030218DFB1
:0C18750090E6BAE0FABA01057511018096
:011881005D09
:041882007582002249
:0D18860090E6BAE0704690E6BCE0F58212F4
:0D189300170AAA82AB83EA4B7003F582228C
:0E18A0008A828B83E0FC4304018A828B83ECF6
:0E18AE00F090E6BCE0FA53020F90E6BCE05466
:0D18BC0080C423541FFB90E683EB2AF090BC
:0918C900E683E0FA4420F0800DF2
:0418D20075820022F9
:0918D60090E6B9E0F5820205ACD0
:0418DF0075820122EB
:0918E300AA82D20610AF02C2066F
:0718EC00EA600E751212758F
:0318F300131E754C
:0318F600144A751C
:0418F900151E800C2C
:0418FD0075124A75A1
:03190100131E753D
:0319040014127545
:02190700151EAB
:05190900A20692AF22CE
:0A190E0090E6BBE0FABA010280196E
:05191800BA0202802765
:05191D00BA0302803056
:06192200BA06030219B62B
:06192800BA07030219C911
:03192E000219D7C4
:0A1931007A007B1E90E6B3EBF07A1B
:09193B00007B1E90E6B4EAF022E4
:0919440090E6B3E513F0AA12903D
:05194D00E6B4EAF022FF
:0A1952007A647B1E7C8090E6BAE008
:03195C00FD7E000D
:09195F008E070EEDB5070280367B
:0E1968008A828B838CF0121A6B2AFAE43BFB06
:0E19760074012AFFE43BF88C018F828883897C
:0A198400F0121A6BFFBF0302800689
:06198E007A007B007C00E2
:0A199400EA4B4C6005C3ED9E50C104
:0E199E00EA4B4C600B90E6B3EBF090E6B4EA37
:0219AC00F02227
:0819AE0090E6A0E04401F022E4
:0A19B6007A407B1E90E6B3EBF07A56
:0919C000407B1E90E6B4EAF0221F
:0919C90090E6B3E515F0AA1490B4
:0519D200E6B4EAF0227A
:0819D70090E6A0E04401F022BB
:0119DF0032D5
:0119E00032D4
:0119E10032D3
:0E19E20020F71030F6118883A88220F507F652
:0519F000A883758300CF
:0119F50022CF
:0319F600F280F785
:0219F900F022DA
:0119FB0032B9
:0119FC0032B8
:0119FD0032B7
:0119FE0032B6
:03004300021F0099
:091F000002151F000219E10002A4
:081F090015E8000215CD0002ED
:081F11001537000215820002E1
:081F190015E500021A080002A0
:081F21001A0900021A0A00026D
:081F29001A0B00021A0E00025F
:081F310019E0000219FB000297
:081F390019FC000219FE000270
:081F410015EA00021A08000273
:081F49001A87000215E60002F0
:081F510015E7000215E900028A
:081F590015EB000215EC00027B
:081F61001A6A00021A080002CE
:081F69001A0800021A08000228
:081F71001A0700021A0C00021D
:081F79001A0F00021A11000208
:081F81001A0D00021A10000203
:081F89001A1200021A6900029D
:081F910019FF00021A01000211
:081F99001A0300021A05000200
:081FA1001A0000021A020002FE
:081FA9001A0400021A060002EE
:071FB10019FD000219DF0019
:0119FF0032B5
:0801F0007800E84400600A7980
:0301F800007592FD
:0601FB00E0E4F309D8FC6A
:080201007815E84400600C7957
:0B0209000190E000E4F0A3D8FCD9FA5B
:011A000032B3
:011A010032B2
:011A020032B1
:011A030032B0
:011A040032AF
:011A050032AE
:011A060032AD
:011A070032AC
:011A080032AB
:011A090032AA
:011A0A0032A9
:011A0B0032A8
:011A0C0032A7
:011A0D0032A6
:011A0E0032A5
:011A0F0032A4
:011A100032A3
:011A110032A2
:011A120032A1
:0E1A1300AA82AB8390E600E05418C423541F4F
:041A2100FCB4010010
:0B1A2500E433FC60067CB17D00801CF7
:0E1A300090E600E05418C423541FFEBE0106C9
:061A3E007E617F018004BF
:041A44007EC27F02DD
:041A48008E048F0574
:041A4C008C168D1750
:081A5000151674FFB51602150E
:011A58001776
:0A1A5900E516451770F11ABAFF01F7
:011A63001B67
:051A6400EA4B70E422D2
:011A6900324A
:011A6A003249
:0301BB0075813A11
:0A01BE00121A88E58260030201B600
:0E1A6B0020F71430F6148883A88220F507E6D1
:061A7900A8837583002222
:031A7F00E280F70B
:031A8200E49322C8
:021A8500E0225D
:011A8700322C
:041A88007582002241
:00000001FF
