:0E022D00AA8290E6C2E4F0BA010790E60174DE
:03023B00E3F022CB
:07023E0090E60174E0F022DC
:0E02450090E670E4F00000000090E602E4F0A5
:0E0253000000000090E603E4F00000000090C0
:0E026100E609E4F00000000090E60B7403F0E4
:0E026F000000000090E6007410F00000000097
:0E027D0090E60174E0F00000000090E613E44B
:0E028B00F00000000090E615E4F00000000016
:0E02990090E619E4F00000000090E61BE4F08F
:0E02A7000000000090E61074A0F000000000BF
:0E02B50090E61174A0F00000000090E61274B4
:0E02C300A0F00000000090E61474E0F00000CF
:0D02D100000090E6047480F0000000009032
:0E02DE00E6047402F00000000090E6047406CE
:0E02EC00F00000000090E604E4F090E68DF0D3
:0E02FA000000000090E6497482F00000000051
:0E03080090E6497482F00000000090E649740F
:0E03160082F00000000090E6497482F00000C2
:0D032400000090E6187410F000000000903A
:0E033100E61A7408F00000000090E624740242
:0E033F00F00000000090E625E4F090E67AE081
:0E034D004401F075AF077580FF75B200759022
:0E035B00FF75B30075A0FF75B40075B0FF7597
:09036900B50075B1FF75B6002264
:030372000211DE97
:0C037500AA827B00EA24FB50030205A0D2
:07038100EA2A2A90038873A9
:0703880002039702040002CA
:06038F0004690204D20221
:02039500053A27
:0A039700E51645B2602AE51760077D
:0703A100E51645B2FA8007E2
:0703A800E516F4FC55B2FA62
:0A03AF008AB2E5186007E5164580E4
:0303B900FA8007C0
:0703BC00E516F4FC5580FA80
:0403C3008A80802884
:0A03C700E5186007E5164580FA808E
:0103D1000724
:0703D200E516F4FC5580FA6A
:0A03D9008A80E5176007E51645B2BB
:0303E300FA800796
:0703E600E516F4FC55B2FA24
:0203ED008AB2D2
:0A03EF00E516558060047A018002D3
:0203F9007A0088
:0503FB008A030205A0C9
:0A040000E51645B3602AE517600712
:07040A00E51645B3FA800777
:07041100E516F4FC55B3FAF7
:0A0418008AB3E5186007E516459069
:03042200FA800756
:07042500E516F4FC5590FA06
:04042C008A9080280A
:0A043000E5186007E5164590FA8014
:01043A0007BA
:07043B00E516F4FC5590FAF0
:0A0442008A90E5176007E51645B340
:03044C00FA80072C
:07044F00E516F4FC55B3FAB9
:020456008AB367
:0A045800E516559060047A01800259
:020462007A001E
:050464008A030205A05F
:0A046900E51645B4602AE5176007A8
:07047300E51645B4FA80070D
:07047A00E516F4FC55B4FA8D
:0A0481008AB4E5186007E51645A0EF
:03048B00FA8007ED
:07048E00E516F4FC55A0FA8D
:040495008AA0802891
:0A049900E5186007E51645A0FA809B
:0104A3000751
:0704A400E516F4FC55A0FA77
:0A04AB008AA0E5176007E51645B4C6
:0304B500FA8007C3
:0704B800E516F4FC55B4FA4F
:0204BF008AB4FD
:0A04C100E51655A060047A018002E0
:0204CB007A00B5
:0504CD008A030205A0F6
:0A04D200E51645B5602AE51760073E
:0704DC00E51645B5FA8007A3
:0704E300E516F4FC55B5FA23
:0A04EA008AB5E5186007E51645B075
:0304F400FA800784
:0704F700E516F4FC55B0FA14
:0404FE008AB0802818
:0A050200E5186007E51645B0FA8021
:01050C0007E7
:07050D00E516F4FC55B0FAFD
:0A0514008AB0E5176007E51645B54B
:03051E00FA800759
:07052100E516F4FC55B5FAE4
:020528008AB592
:0A052A00E51655B060047A01800266
:020534007A004B
:040536008A0380664E
:0A053A00E51645B6602AE5176007D4
:07054400E51645B6FA800739
:07054B00E516F4FC55B6FAB9
:0A0552008AB6E5186007E51645B10A
:03055C00FA80071B
:07055F00E516F4FC55B1FAAA
:040566008AB18028AE
:0A056A00E5186007E51645B1FA80B8
:01057400077F
:07057500E516F4FC55B1FA94
:0A057C008AB1E5176007E51645B6E1
:03058600FA8007F1
:07058900E516F4FC55B6FA7B
:020590008AB629
:0A059200E51655B160047A018002FD
:02059C007A00E3
:02059E008A03CE
:0305A0008B822229
:0705A300AA82BA8002802742
:0605AA00BA81030206798C
:0605B000BA82030206BB43
:0605B600BA83030206F700
:0605BC00BA850302071ED0
:0605C200BA860302078760
:0605C800BAA2030207C9FC
:0305CE0002095FC0
:0E05D10090E6B8E0FABA402690E6BBE0FB7A6E
:0D05DF000090E6BAE07D004202ED4203907C
:0E05EC00E6BCE0FCEA4B70078C8212022D8008
:0105FA007A86
:0405FB0075820022E3
:0E05FF0090E6A0E0FA20E1F890E740744EF09C
:0D060D0090E7417445F090E742744DF09085
:0E061A00E7437449F090E015E0FA90E744F0F1
:09062800E58030E2047A00800252
:020631007A014C
:0E06330090E745EAF090E7467411F090E74733
:0D0641007426F090E748E4F090E749F0904F
:0D064E00E74AF090E74BF090E74CE4F090A5
:0E065B00E74DF090E74EF090E74FF090E68A02
:0C066900E4F00000000090E68B7410F03C
:040675007582012267
:0A06790090E6B8E0FABA40028003F0
:0306830002095F0A
:0506860090E68BE4F09A
:0E068B0090E6A0E0FA20E1F890E740E0FAA344
:0D069900E0FBA3E0FCA3E0FD90E6BCE0F573
:0A06A6001690E6BAE0F5178A828B81
:0B06B000838CF0ED120B5A75820122C2
:0A06BB0090E6B8E0FABA40028003AE
:0306C50002095FC8
:0506C80090E68BE4F058
:0E06CD0090E6A0E0FA20E1F890E740E0FAA302
:0D06DB00E0FBA3E0FCA3E0FD90E6BAE0F533
:0C06E800168A828B838CF0ED120A477595
:0306F4008201225E
:0A06F70090E6B8E0FABA4002800372
:0307010002095F8B
:0E07040090E6BAE0FAA3E0FBA3E0FCA3E08AD3
:0C071200828B838CF012121A7582012277
:0A071E0090E6B8E0FABAC0028003CA
:0307280002095F64
:0E072B0090E6BAE0FA90E6BBE0FB90E6BCE098
:0E073900FC90E6BDE0FDEA24FB4005EB24F851
:0207470050045C
:040749007582002293
:0E074D0090E6A0E0FE20E1F88BF005F07401CC
:02075B0080021A
:02075D0025E095
:08075F00D5F0FBF5168C178D97
:0C076700188A82120375AA8290E740EA0B
:0E077300F090E68AE4F00000000090E68B743F
:0607810001F07582012267
:0A07870090E6B8E0FABA40028003E1
:0307910002095FFB
:0D07940090E6BCE0FA90E6BDE0FBBA040080
:0E07A100501590E6BAE0FCEBC454F024802C16
:0907AF00F5168A821209D8800DAA
:0B07B800EBC454F02480F5168A821276
:0207C30009D853
:0407C5007582012216
:0A07C90090E6B8E0FABAC00280031F
:0307D3000208B168
:0E07D60090E6BBE0FB7A0090E6BAE0FC7D0006
:0E07E40090E000EC4AF0ED4BA3F090E6BFE091
:0E07F200FB7A0090E6BEE0FC7D0090E002EC99
:060800004AF0ED4BA3F0ED
:0E08060090E002E0FAA3E0FB4A700302095BF7
:0E08140090E6A0E0FA20E1F890E002E0FAA3FE
:0E082200E0FBC3EA9440EB940040047A407B74
:0108300000C7
:020831007C0049
:0E0833008C057E00C3ED9AEE9B5010EC244025
:0D084100F582E434E7F5837423F00C80E5C4
:0C084E0090E6BCE024FF920290E000E085
:0A085A00FCA3E0FD8A06750A407554
:0A0864000BE78E098C828D83C00221
:0E086E00C003C004C005C00612126DD006D033
:0E087C0005D004D003D00290E68AE4F000001C
:0E088A00000090E68BEEF090E000EA2CF0EB20
:0E0898003DA3F090E002E0FCA3E0FD90E00242
:0B08A600ECC39AF0ED9BA3F0020806E3
:0A08B10090E6B8E0FABA40028003B6
:0308BB0002095BD4
:0E08BE0090E6BBE0FB7A0090E6BAE0FC7D001D
:0E08CC0090E004EC4AF0ED4BA3F090E6BFE0A4
:0E08DA00FB7A0090E6BEE0FC7D0090E006ECAC
:0608E8004AF0ED4BA3F005
:0E08EE0090E006E0FAA3E0FB4A606290E68B21
:0208FC00E4F026
:0E08FE0090E6A0E0FA20E1F890E68BE0FA7BAD
:0C090C000090E6BCE024FF920390E004A1
:0A091800E0FCA3E0FD8A0C750D4021
:0C092200750EE78C828D83C002C003C0FC
:0E092E0004C005121359D005D004D003D00226
:0E093C0090E004EA2CF0EB3DA3F090E006E022
:0E094A00FCA3E0FD90E006ECC39AF0ED9BA349
:03095800F0809399
:04095B00758201227E
:04095F00758200227B
:011B5F000085
:070963008582087582012264
:04096A008508822258
:0A096E00E582FA7014AA16AB17AC6C
:0C097800188A828B838CF0E41219D17570
:03098400820122CB
:040987007582002253
:0C098B00E582FA7044E516704090E683A7
:0D0997007401F0E0FA90E68374204AF090BD
:0E09A400E6837411F0E0FA90E68374204AF0C6
:0E09B20090E6837402F0E0FA90E68374204A27
:0E09C000F090E6837416F0E0FA90E68374205F
:0609CE004AF075820122CF
:0409D4007582002206
:0A09D800AA827B477C0AEA75F0034F
:0A09E200A42416F582E434E0F58346
:0E09EC00E0FAA3E0FDA3E0FE8A828D838EF088
:0E09FA00121A5AFFA3121A5AF874022AFAE4CB
:0A0A08003DFD90E008EFF0A3E8F0D8
:0E0A120090E008E0FFA3E0F84F6029EF2BF51D
:0C0A200082E83CF583E516F08A828D83A5
:0E0A2C008EF0121A5AFFA3121A5AF8A3AA82C9
:0C0A3A00AD8390E008EFF0A3E8F080CC62
:010A4600228D
:041A7B00B8000000AF
:0E1A7F00C500CE00D700E000E900F200FB0039
:081A8D0004017602BD05000012
:0E1A95002D0034003B00420049005000570075
:0E1AA3005E0073007A00810088008F009600BC
:0E1AB1009D00A400C800D100DA00E300EC00A4
:0E1ABF00F500FE0007016C022A04A3050B07C8
:021ACD00000017
:0C1ACF00140064022204BB052107000083
:0E1ADB001000230027002F00320036003900D3
:0E1AE9003D004000440047004B004E005200FC
:0E1AF700550059005C00600063006E00750031
:0E1B050078007C007F00830086008A008D003F
:0E1B13009100940098009B009F00A200A60085
:0E1B2100AA00B500BA00BE00CA00CC00D30076
:0E1B2F00D500DC00DE00E500E700EE00F0006F
:0E1B3D00F700F9000001020109010C01850208
:0E1B4B00870233043504CC05CE052307250799
:061B5900DB07E8070000B5
:031B60007F1A8069
:031B6300951A8050
:031B6600CF1A8013
:031B6900DB1A8004
:031B6C007B1A8061
:090A4700AA82AB83ACF0FDAE16EF
:0E0A50008E071EEF6017C2B3EA1392B2EDC319
:0E0A5E0013FDEC13FCEB13FBEA13FAD2B3808A
:010A6C00E3A6
:030A6D00C2B322EF
:0E0A7000E5821392B1D2B313C2B392B1D2B3E6
:0E0A7E0013C2B392B1D2B313C2B392B1D2B3CA
:0E0A8C0013C2B392B1D2B313C2B392B1D2B3BC
:0E0A9A0013C2B392B1D2B313C2B392B1D2B3AE
:040AA80000C2B322B3
:080AAC00759AE7759B80A88292
:0E0AB400C2B3E59C1392B1D2B313C2B392B198
:0E0AC200D2B313C2B392B1D2B313C2B392B186
:0E0AD000D2B313C2B392B1D2B313C2B392B178
:0E0ADE00D2B313C2B392B1D2B313C2B392B16A
:070AEC00D2B3D8C4C2B3224B
:080AF300759AE7759B80A8824B
:0C0AFB00C2B3859C80D2B3D8F7C2B322EE
:0E0B0700AA82E582A2B01392B1D2B3C2B3A209
:0E0B1500B01392B1D2B3C2B3A2B01392B1D258
:0E0B2300B3C2B3A2B01392B1D2B3C2B3A2B0A8
:0E0B31001392B1D2B3C2B3A2B01392B1D2B339
:0E0B3F00C2B3A2B01392B1D2B3C2B3A2B0132C
:0D0B4D0092B1D2B300C2B3F582228A822297
:0E0B5A00AA82AB83ACF0FD90E025EAF0A3EB9D
:0C0B6800F0A3ECF0A3EDF090E029E516FE
:080B7400F090E02AE517F022E1
:0E0B7C0090E025E0FAA3E0FBA3E0FCA3E0FD7F
:090B8A00EA4B4C4D7003020D71A1
:050B9300E5BA20E1FBC2
:0E0B9800E5BA20E2FB90E025E0FAA3E0FBA323
:0E0BA600E0FCA3E0FDC3EB9402EC9400ED94A0
:0E0BB40000B3E433FE600A7E007F0278007911
:030BC200008008A8
:080BC5008A068B078C008D01EC
:0A0BCD0090E68DE0FA752280752392
:080BD700E77524C07525E790C5
:0E0BDF00E025E0FBA3E0FCA3E0FDA3E0F88E20
:050BED00268F27E4F54E
:050BF20028F529EBB518
:080BF700260EECB5270AEDB54E
:080BFF002806E8B52902800375
:030C0700020CECF0
:0E0C0A00EE24FFFBEF34FFFC5303F88E058B46
:0E0C180000EDC398FDECC423CBC423541F6B26
:070C2600CB541FCB6BCBFC8C
:0A0C2D008B041BEC603FAC24A825EB
:090C3700852282852383E0F90582
:060C400022E4B5220205CA
:010C4600238A
:0D0C47008982C002C003C004C005C00012B5
:0E0C54000B07A982D000D005D004D003D00237
:0A0C62008C828883E9F00524E4B5D4
:060C6C0024BF052580BB3A
:090C7200852282852383E0FB0545
:060C7B0022E4B52202058F
:010C8100234F
:0B0C820090E00BEBF090E00AE4F09033
:070C8D00E00C7401F08D037F
:0E0C940090E00CE0FC6041EB603E1B90E02A1B
:0A0CA200E0FC30E005EB7002D2B276
:0D0CAC0090E00BE0FC1392B1ECC313FC9040
:0C0CB900E00BF030B00C90E00CE0FC9080
:060CC500E00AE0FD4CF026
:0E0CCB00D2B3C2B390E00CE025E0FC90E00C48
:030CD900F080B8F0
:050CDC00AB24AC2590E3
:0B0CE100E00AE0FD8B828C83F0805362
:0E0CEC00EFC423CEC423541F6ECE541FCE6E11
:040CFA00CEFF8E0398
:0A0CFE008B041BEC603BAC24AD2519
:090D0800852282852383E0FE05AB
:060D110022E4B5220205F8
:010D170023B8
:0E0D18008E82C002C003C004C005120B07AEDD
:0E0D260082D005D004D003D0028C828D83EEE3
:080D3400F00524E4B524C30519
:030D3C002580BF50
:0E0D3F0090E68DE4F090E68FEAF090E025E07B
:0E0D4D00FAA3E0FBA3E0FCA3E0FD90E025EAA2
:0A0D5B00C39526F0EB9527A3F0ECFA
:0A0D65009528A3F0ED9529A3F002F4
:020D6F000B7CFB
:060D710090E029E4F022ED
:0E0D770090E025E0FAA3E0FBA3E0FCA3E0FD82
:090D8500EA4B4C4D7003020EBD57
:0E0D8E00E5BA20E1FB90E025E0FAA3E0FBA32C
:0E0D9C00E0FCA3E0FDC3EB9402EC9400ED94A8
:0E0DAA0000B3E433FE600A7E007F0278007919
:030DB800008008B0
:080DBB008A068B078C008D01F4
:0E0DC30090E68DE090E025E0FAA3E0FBA3E0CF
:0A0DD100FCA3E0FD8E2A8F2BE4F551
:050DDB002CF52DEAB526
:080DE0002A0EEBB52B0AECB55D
:080DE8002C06EDB52D0280037D
:030DF000020E8A66
:0A0DF3007522807523E7EE24FFFA55
:0E0DFD00EF34FFFB5302F88A04EEC39CFCEBBC
:0E0E0B00C423CAC423541F6ACA541FCA6ACA29
:010E1900FBDD
:0A0E1A008A031AEB601F852282850F
:080E24002383E0FB0522E4B585
:040E2C002202052376
:0E0E30008B82C002C004120A70D004D002806F
:010E3E00DBD8
:080E3F00852282852383E090E7
:0B0E4700E00DF090E00E7401F08C0252
:0E0E520090E00EE0FB6037EA60341A90E02A70
:0A0E6000E0FB30E005EA7002D2B2B8
:0E0E6A0090E00DE0FB1392B1EBC31390E00D8E
:0D0E7800F0D2B3C2B390E00EE025E0FB9095
:050E8500E00EF080C842
:060E8A00758240120AAC63
:0E0E900090E68DE4F090E025E0FAA3E0FBA3ED
:0C0E9E00E0FCA3E0FD90E025EAC3952AEB
:0A0EAA00F0EB952BA3F0EC952CA3C0
:090EB400F0ED952DA3F0020D777D
:060EBD0090E029E4F022A0
:0C0EC30090E02AE0FA30E1047AFF80029F
:020ECF007A00A7
:040ED100EA5401FBE3
:0E0ED50090E025E0FCA3E0FDA3E0FEA3E0FF1B
:090EE300EC4D4E4F700302109813
:0E0EEC00E5BA20E2FB90E025E0FCA3E0FDA3C8
:0E0EFA00E0FEA3E0FFC3ED9402EE9400EF943F
:0B0F080000B3E433F8600E752E007596
:060F13002F02753000758D
:040F1900310080081B
:050F1D008C2E8D2F8ECB
:030F2200308F31DC
:0A0F2500AC2EAD2F8C06EDC423CED8
:0E0F2F00C423541F6ECE541FCE6ECEFFEC5462
:050F3D000760027401D1
:0A0F4200FFC003EF2EF52E7524C04A
:0C0F4C007525E790E025E0F8A3E0F9A38C
:0A0F5800E0FBA3E0FF8C328D33E4D0
:060F6200F534F535E8B599
:080F6800320EE9B5330AEBB5C6
:080F70003406EFB535028005DF
:050F7800D0030210335C
:0E0F7D00D003EC24FFFFED34FFF85307F88F8C
:0E0F8B0005ECC39DFCE8C423CFC423541F6FA4
:090F9900CF541FCF6FCFF88F0574
:0A0FA2008D071DEF6033AF24A82572
:0E0FAC008A82C002C003C004C005C007C00096
:0E0FBA00120B07A982D000D007D005D004D0BA
:0C0FC80003D0028F828883E9F00524E446
:070FD400B524CB052580C701
:0E0FDB0090E00FE4F090E0107401F0EB24FFC2
:020FE90092B1C3
:0E0FEB0090E010E0FD6031EC602E1C90E02ADA
:0A0FF900E0FD30E005EC7002D2B21A
:0E10030030B00C90E010E0FD90E00FE0FF4DEB
:01101100F0EE
:0E101200D2B3C2B390E010E025E0FD90E010F4
:03102000F080C895
:05102300AC24AD259096
:0B102800E00FE0FF8C828D83F080372A
:021033008E0429
:0A1035008C051CED602FAD24AE25E4
:0D103F008A82C002C003C004C005C00612B2
:0E104C000B07AF82D006D005D004D003D0022F
:0A105A008D828E83EFF00524E4B5CB
:0610640024CF052580CB1E
:0C106A0090E68FE52EF090E025E0FCA35E
:0E107600E0FDA3E0FEA3E0FF90E025ECC395B3
:0910840032F0ED9533A3F0EE9576
:09108D0034A3F0EF9535A3F00245
:021096000ED575
:0610980090E029E4F022C3
:0C109E0090E02AE0FA30E105753AFF808E
:0110AA000342
:0310AB00753A0093
:0E10AE0090E025E0FBA3E0FCA3E0FDA3E0FE44
:0E10BC00EB24FFFFEC34FFF8ED34FFF9EE34C7
:0E10CA00FFFA5307F88F0490E011EBC39CF07F
:0A10D8008F36E8C423C536C4235444
:0810E2001F6536C536541FC519
:0410EA00366536C56C
:0910EE0036F537E9C42354E0454E
:0410F70037F5378909
:0A10FB0038EAC423C538C423541F8B
:071105006538C538541FC511
:04110C00386538C545
:0411100038F539ABCA
:0411140036AC37AD11
:0311180038AE39B5
:0E111B008B078C008D018E021BBBFF091CBCD4
:07112900FF051DBDFF011EC3
:0C113000EF48494A6018853A82C003C0AD
:0E113C0004C005C006120A70D006D005D0040B
:04114A00D00380CD81
:0A114E00E53A1392B190E011E0FAC7
:0E115800EA60141A90E02AE0FB30E005EA702D
:0311660002D2B200
:06116900D2B3C2B380E91D
:06116F0090E029E4F022EB
:0E11750090E025E0FAA3E0FBA3E0FCA3E0FD80
:06118300EA4B4C4D604FE9
:0C118900E5BA20E1FB90E68DE0FA3000B2
:0C1195000B8A82C002120AF3D00280090B
:0911A1008A82C002120AACD002DD
:0E11AA0090E68DE4F090E025E0FBA3E0FCA3CE
:0E11B800E0FDA3E0FE7F007800790090E025C6
:0E11C600EBC39AF0EC9FA3F0ED98A3F0EE9926
:0411D400A3F0809D67
:0611D80090E029E4F02282
:0D11DE0090E029E0FA24F94032EA2A2A9034
:0311EB0011EE738F
:0711EE0002121902120302B4
:0611F500120602120902BD
:0611FB00120C02120F02AB
:021201001214C5
:03120300020B7C5F
:03120600020D775F
:03120900020EC30F
:03120C0002109E2F
:05120F00D20002117580
:05121400C2001211757B
:0112190022B2
:07121A00AA82AB83ACF0FDDA
:0E122100D2B30000000000000000000000C278
:0E122F00B30000000000001ABAFFE71BBBFF6F
:0A123D00E31CBCFFDF1DBDFFDB2238
:041B6F000000000072
:011B73000071
:011B74000070
:0E12470090E678E0FA30E0F8EA30E202D322D6
:02125500C322B2
:0E12570090E678E0FA30E0F8EA30E202D322C6
:06126500EA20E102D322A1
:02126B00C3229C
:0B126D00AA82AB833002047CAA80023E
:021278007CA256
:0E127A0090E678E0FD20E6F890E6787480F0CB
:0E12880090E679ECF0C002C003C004121257C9
:0A129600D004D003D0025002D3228E
:0E12A00090E679EBF0C002C003C004121257B2
:0A12AE00D004D003D0025002D32276
:0E12B80090E679EAF0C004121257D0045002FA
:0212C600D32231
:0E12C80090E6787480F090E67974014CF01294
:0612D60012475002D32272
:0B12DC0090E679E01212475002D32286
:0212E7007A008B
:0912E900AB097C001BBBFF011CDA
:0E12F2008A057E00C3ED9BEE64808CF063F0F5
:0B1300008095F0501FEA250AFBE43541
:0C130B000BFC90E679E08B828C83F0C034
:0A13170002121247D0025002D32246
:031321000A80C57A
:0E13240090E6787420F0C002121247D00250FA
:0313320002D322C1
:09133500EA250AFAE4350BFB90ED
:0E133E00E679E08A828B83F01212475002D3C8
:01134C00227E
:0C134D0090E6787440F090E679E0C3224E
:0B135900AA82AB833003047CAA800250
:021364007CA269
:0E13660090E678E0FD20E6F890E6787480F0DE
:0E13740090E679ECF0C002C003C004121257DC
:0A138200D004D003D0025002D322A1
:0E138C0090E679EBF0C002C003C004121257C5
:0A139A00D004D003D0025002D32289
:0E13A40090E679EAF0C004121257D00450020D
:0213B200D32244
:0613B400AA0DAB0E7D0046
:0C13BA00C3ED950C502A8A828B83E0FE64
:0E13C600A3AA82AB8390E679EEF0C002C003CA
:0E13D400C004C005121247D005D004D003D0CB
:0513E200025002D322BD
:0313E7000D80D0A6
:0813EA0090E678E0FA4440F0BF
:0813F20090E678E0FA20E6F82D
:0E13FA0090E6787480F090E679ECF0C0041272
:081408001247D0045002D32268
:0814100090E678E0FA4440F098
:0E14180090E678E0FA20E6F890E678E0FA3008
:04142600E1D2C3222A
:0E1E00001201000200000040501D2B60020085
:041E0E0001020001CC
:091E120009022E0001010080FA12
:0E1E1B000904000004FF00000007050102009A
:0E1E2900020007058102000200070502020008
:091E37000200070586020002000A
:0A1E40000A06000200000040010045
:091E4A00090219000101008032B7
:0E1E53000904000001FFFFFF00070506020062
:021E610002007D
:041E64000403090466
:0E1E680014034D0061006B0065005300740010
:061E760075006600660025
:0E1E7C002C0346005000470041004C00690056
:0E1E8A006E006B002F00460058003200200052
:0E1E98003200300031003300300037003100DE
:021EA600360004
:021EA800000038
:040000000201BB320C
:01000B0032C2
:0100130032BA
:01001B0032B2
:0100230032AA
:01002B0032A2
:0300330002150BA8
:01003B003292
:01004300328A
:01004B003282
:01005300327A
:01005B003272
:01006300326A
:03006B0002150E6D
:030073000219D09F
:03007B000215D794
:030083000215BCA7
:03008B0002152635
:03009300021571E2
:03009B000215D477
:0300A3000219F847
:0300AB000219F93E
:0300B3000219FA35
:0300BB000219FD2A
:0300C3000219CF50
:0300CB000219EA2D
:0300D3000219EB24
:0300DB000219ED1A
:0300E3000215D92A
:0300EB00021A7680
:0300F3000215D51E
:0300FB000215D615
:030103000215D80A
:03010B000215DA00
:030113000215DBF7
:03011B00021A596C
:030123000219F6C8
:03012B000219FBBB
:030133000219FEB0
:03013B00021A00A5
:030143000219F7A7
:03014B000219FC9A
:030153000219FF8F
:03015B00021A0184
:03016300021A5825
:03016B000219EE88
:030173000219F07E
:03017B000219F274
:030183000219F46A
:03018B000219EF67
:030193000219F15D
:03019B000219F353
:0301A3000219F549
:0301AB000219EC4A
:0301B3000219CE60
:04021400C204C20559
:03022A000201B618
:0501B60012142A80FE76
:0C142A00120245E500D2E890E668E044BC
:0E14360008F090E65CE04401F090E65CE044D3
:0E14440010F090E65CE04420F090E65CE0449E
:0E14520008F0D2DDD2AF90E680E0FA20E1157E
:0E14600090E680E0440AF09005DC121A02903B
:07146E00E680E0FA54F7F0FC
:0814750012037210040280034F
:03147D001215DC69
:0514800010050280F0E0
:0E14850090E682E0FA44C0F090E6817401F037
:0C14930043870100000000000000E5118C
:0E149F00702690E682E0FA30E60B90E682E0DE
:0714AD00FA30E00302148590
:0E14B40090E682E0FA30E70B90E682E0FA3034
:0514C200E103021485A6
:0E14C70090E682E0FA30E60890E682E0FA2035
:0214D500E0161F
:0B14D70090E682E0FA20E703021475A3
:0B14E20090E682E0FA20E1030214759E
:0E14ED00900005121A0290E680E04401F09093
:0E14FB00000F121A0290E680E0FA54FEF00292
:02150900147557
:03150B00C2DC320D
:0C150E00C0E0C082C083D2045391EF9073
:0C151A00E65D7401F0D083D082D0E03296
:0C152600C021C0E0C0F0C082C083C00241
:0E153200C003C004C005C006C007C000C00151
:0E154000C0D075D0007582001218D25391EF02
:0E154E0090E65D7410F0D0D0D001D000D00730
:0E155C00D006D005D004D003D002D083D082B8
:07156A00D0F0D0E0D02132E7
:0C157100C021C0E0C0F0C082C083C002F6
:0E157D00C003C004C005C006C007C000C00106
:0E158B00C0D075D0007582011218D25391EFB6
:0E15990090E65D7420F0D0D0D001D000D007D5
:0E15A700D006D005D004D003D002D083D0826D
:0715B500D0F0D0E0D021329C
:0C15BC00C0E0C082C083D2055391EF90C4
:0C15C800E65D7408F0D083D082D0E032E1
:0115D40032E4
:0115D50032E3
:0115D60032E2
:0115D70032E1
:0115D80032E0
:0115D90032DF
:0115DA0032DE
:0115DB0032DD
:0601EA00E478FFF6D8FDE9
:0801C8007916E94400601B7A7E
:0501D00001901B5F78A7
:0301D5001575920B
:0A01D800E0E493F2A308B80002056A
:0801E20092D9F4DAF27592FFE4
:07021800751000751100755F
:03021F00124A750B
:03022200131E7533
:030225001412753B
:02022800151EA1
:0C15DC0090E6B9E0FA24F450030216DC9B
:0715E800EA2A2A9015EF73B7
:0715EF000216130216280288
:0615F60016DC02163D02A6
:0615FC0016DC0216DC0201
:0616020016520216DC0284
:06160800165802167002E4
:05160E00168A0216BE61
:0A161300121750E58260030216F181
:0B161D0090E6A0E0FA4401F00216F194
:0A1628001217DCE58260030216F1E0
:0B16320090E6A0E0FA4401F00216F17F
:0A163D0012184AE58260030216F15C
:0B16470090E6A0E0FA4401F00216F16A
:061652001218FD0216F162
:0E16580012096AAA8290E740EAF090E68AE45E
:0A166600F090E68B7401F00216F11B
:0E16700090E6BAE0F582120963E5826003029B
:02167E0016F163
:0A16800090E6A0E0FA4401F0806754
:09168A0090E6BCE0FA75160F753C
:0816930017007518408A82124D
:0E169B00096EE582700A90E6A0E0FA4401F0C4
:0216A900804679
:0C16AB0090E740E50FF090E68AE4F09034
:0716B700E68B7401F08033A3
:0C16BE0090E6BCE0FA90E6BAE0F5168A6F
:0E16CA008212098BE582701F90E6A0E0FA44C0
:0416D80001F0801588
:0E16DC0090E6B9E0F5821205A3E58270089051
:0716EA00E6A0E0FA4401F064
:0816F10090E6A0E04480F02225
:0E16F900AA82747F5AFB24F74049EB2B2B90FA
:03170700170A734B
:07170A000217250217290256
:06171100173C02174C0218
:06171700174002174C020E
:06171D00174402174C0204
:02172300174865
:0417250090E6A02288
:0A172900EA30E7067AA27BE68004AE
:041733007AA17BE636
:051737008A828B832271
:04173C0090E6A3226E
:0417400090E6A42269
:0417440090E6A52264
:0417480090E6A6225F
:04174C0090000022E7
:0A17500090E6B8E0FABA80028022A9
:05175A00BA81028008C5
:05175F00BA8202803790
:031764000217D495
:0E17670090E740E4F090E741F090E68AF090C1
:07177500E68B7402F0805CBA
:0A177C00E51125E0FAE510420290A5
:0E178600E740EAF090E741E4F090E68AF09048
:07179400E68B7402F0803DBA
:0E179B0090E6BCE0F5821216F9AA82AB83EA52
:0617A9004B7003F58222E3
:0D17AF008A828B83E0FA30E0047A01800228
:0217BC007A00B1
:0E17BE0090E740EAF090E741E4F090E68AF010
:0817CC0090E68B7402F080042A
:0417D40075820022F8
:0417D80075820122F3
:0C17DC0090E6B8E0FA6005BA02578011F0
:0C17E80090E6BAE0FABA01057511008025
:0117F40051A3
:0417F50075820022D7
:0D17F90090E6BAE0703A90E6BCE0F582128E
:0E18060016F9AA82AB83E0FC5304FE8A828BA3
:0E18140083ECF090E6BCE0FA53020F90E6BCC5
:0E182200E05480C423541FFB90E6832AF0900C
:09183000E683E0FA4420F0800D8B
:041839007582002292
:09183D0090E6B9E0F5820205A372
:041846007582012284
:0C184A0090E6B8E0FA6008BA0202801FC5
:031856000218C5B0
:0B18590090E6BAE0FABA02030218CED3
:0C18640090E6BAE0FABA010575110180A7
:011870005D1A
:04187100758200225A
:0D18750090E6BAE0704690E6BCE0F5821205
:0D18820016F9AA82AB83EA4B7003F58222AF
:0E188F008A828B83E0FC4304018A828B83EC07
:0E189D00F090E6BCE0FA53020F90E6BCE05477
:0D18AB0080C423541FFB90E683EB2AF090CD
:0918B800E683E0FA4420F0800D03
:0418C100758200220A
:0918C50090E6B9E0F5820205A3EA
:0418CE0075820122FC
:0918D200AA82D20610AF02C20680
:0718DB00EA600E75121275A0
:0318E200131E755D
:0318E500144A752D
:0418E800151E800C3D
:0418EC0075124A75B2
:0318F000131E754F
:0318F30014127557
:0218F600151EBD
:0518F800A20692AF22E0
:0A18FD0090E6BBE0FABA0102801980
:05190700BA0202802776
:05190C00BA0302803067
:06191100BA06030219A54D
:06191700BA07030219B833
:03191D000219C6E6
:0A1920007A007B1E90E6B3EBF07A2C
:09192A00007B1E90E6B4EAF022F5
:0919330090E6B3E513F0AA12904E
:05193C00E6B4EAF02210
:0A1941007A647B1E7C8090E6BAE019
:03194B00FD7E001E
:09194E008E070EEDB5070280368C
:0E1957008A828B838CF0121A5A2AFAE43BFB28
:0E19650074012AFFE43BF88C018F828883898D
:0A197300F0121A5AFFBF03028006AB
:06197D007A007B007C00F3
:0A198300EA4B4C6005C3ED9E50C115
:0E198D00EA4B4C600B90E6B3EBF090E6B4EA48
:02199B00F02238
:08199D0090E6A0E04401F022F5
:0A19A5007A407B1E90E6B3EBF07A67
:0919AF00407B1E90E6B4EAF02230
:0919B80090E6B3E515F0AA1490C5
:0519C100E6B4EAF0228B
:0819C60090E6A0E04401F022CC
:0119CE0032E6
:0119CF0032E5
:0119D00032E4
:0E19D10020F71030F6118883A88220F507F663
:0519DF00A883758300E0
:0119E40022E0
:0319E500F280F796
:0219E800F022EB
:0119EA0032CA
:0119EB0032C9
:0119EC0032C8
:0119ED0032C7
:03004300021F0099
:091F000002150E000219D00002C6
:081F090015D7000215BC00020F
:081F1100152600021571000203
:081F190015D4000219F70002C3
:081F210019F8000219F9000291
:081F290019FA000219FD000283
:081F310019CF000219EA0002B9
:081F390019EB000219ED000292
:081F410015D9000219F7000296
:081F49001A76000215D5000212
:081F510015D6000215D80002AC
:081F590015DA000215DB00029D
:081F61001A59000219F70002F1
:081F690019F7000219F700024C
:081F710019F6000219FB000241
:081F790019FE00021A0000022B
:081F810019FC000219FF000227
:081F89001A0100021A580002BF
:081F910019EE000219F0000234
:081F990019F2000219F4000224
:081FA10019EF000219F1000222
:081FA90019F3000219F5000212
:071FB10019EC000219CE003B
:0119EE0032C6
:0801F0007800E84400600A7980
:0301F800007592FD
:0601FB00E0E4F309D8FC6A
:080201007815E84400600C7957
:0B0209000190E000E4F0A3D8FCD9FA5B
:0119EF0032C5
:0119F00032C4
:0119F10032C3
:0119F20032C2
:0119F30032C1
:0119F40032C0
:0119F50032BF
:0119F60032BE
:0119F70032BD
:0119F80032BC
:0119F90032BB
:0119FA0032BA
:0119FB0032B9
:0119FC0032B8
:0119FD0032B7
:0119FE0032B6
:0119FF0032B5
:011A000032B3
:011A010032B2
:0E1A0200AA82AB8390E600E05418C423541F60
:041A1000FCB4010021
:0B1A1400E433FC60067CB17D00801C08
:0E1A1F0090E600E05418C423541FFEBE0106DA
:061A2D007E617F018004D0
:041A33007EC27F02EE
:041A37008E048F0585
:041A3B008C168D1761
:081A3F00151674FFB51602151F
:011A47001787
:0A1A4800E516451770F11ABAFF0108
:011A52001B78
:051A5300EA4B70E422E3
:011A5800325B
:011A5900325A
:0301BB0075813A11
:0A01BE00121A77E58260030201B611
:0E1A5A0020F71430F6148883A88220F507E6E2
:061A6800A8837583002233
:031A6E00E280F71C
:031A7100E49322D9
:021A7400E0226E
:011A7600323D
:041A77007582002252
:00000001FF
