:2000CB00AF8290E6C2E4F0BF010790E60174E3F02290E60174E0F02290E6827445F0F09033
:2000EB00E670E4F00000000090E602E4F00000000090E603E4F00000000090E609E4F000DF
:20010B0000000090E60B7403F00000000090E6007410F00000000090E60174E0F000000047
:20012B000090E613E4F00000000090E615E4F00000000090E619E4F00000000090E61BE420
:20014B00F00000000090E61074A0F00000000090E61174A0F00000000090E61274A0F00003
:20016B0000000090E61474E0F00000000090E6047480F00000000090E6047402F000000068
:20018B000090E6047406F00000000090E604E4F090E68DF00000000090E6497482F000008A
:2001AB00000090E6497482F00000000090E6497482F00000000090E6497482F00000000045
:2001CB0090E6187410F00000000090E61A7408F00000000090E6247402F00000000090E6A0
:2001EB0025E4F090E67AE0FF43070190E67AEFF075AF077580FF75B2007590FF75B300752B
:20020B00A0FF75B40075B0FF75B50075B1FF75B6002202113EAF827E00EF24FB50030204E4
:20022B005FEF2F2F900233730202420202AF02031C0203890203F5E51B45B2602AE51C604B
:20024B0007E51B45B2FF8007E51BF4FD55B2FF8FB2E51D6007E51B4580FF8007E51BF4FD32
:20026B005580FF8F808028E51D6007E51B4580FF8007E51BF4FD5580FF8F80E51C6007E513
:20028B001B45B2FF8007E51BF4FD55B2FF8FB2E51B558060067D017F0080047D007F008D3E
:2002AB000602045FE51B45B3602AE51C6007E51B45B3FF8007E51BF4FD55B3FF8FB3E51D24
:2002CB006007E51B4590FF8007E51BF4FD5590FF8F908028E51D6007E51B4590FF8007E50C
:2002EB001BF4FD5590FF8F90E51C6007E51B45B3FF8007E51BF4FD55B3FF8FB3E51B5590DF
:20030B0060067D017F0080047D007F008D0602045FE51B45B4602AE51C6007E51B45B4FF14
:20032B008007E51BF4FD55B4FF8FB4E51D6007E51B45A0FF8007E51BF4FD55A0FF8FA08087
:20034B0028E51D6007E51B45A0FF8007E51BF4FD55A0FF8FA0E51C6007E51B45B4FF80079B
:20036B00E51BF4FD55B4FF8FB4E51B55A060067D017F0080047D007F008D0602045FE51B66
:20038B0045B5602AE51C6007E51B45B5FF8007E51BF4FD55B5FF8FB5E51D6007E51B45B04A
:2003AB00FF8007E51BF4FD55B0FF8FB08028E51D6007E51B45B0FF8007E51BF4FD55B0FFF7
:2003CB008FB0E51C6007E51B45B5FF8007E51BF4FD55B5FF8FB5E51B55B060067D017F0045
:2003EB0080047D007F008D06806AE51B45B6602AE51C6007E51B45B6FF8007E51BF4FD5541
:20040B00B6FF8FB6E51D6007E51B45B1FF8007E51BF4FD55B1FF8FB18028E51D6007E51BAB
:20042B0045B1FF8007E51BF4FD55B1FF8FB1E51C6007E51B45B6FF8007E51BF4FD55B6FF1B
:20044B008FB6E51B55B160067D017F0080047D007F008D068E8222AF82BF80028027BF8145
:20046B0003020541BF8203020582BF83030205BDBF85030205E4BF860302064CBFA203021C
:20048B00069802083490E6B8E0FFBF402790E6BBE0FE7F0090E6BAE07C004207EC4206901B
:2004AB00E6BCE0FDEF4E70088D821200CB02053D7582002290E6A0E020E1F990E740744E4B
:2004CB00F090E7417445F090E742744DF090E7437449F090E015E090E744F0E58030E20662
:2004EB007E007F0080047E017F0090E745EEF090E7467411F090E7477426F090E74874FF2C
:20050B00F090E749F090E74A7420F090E74BF090E74C7411F090E74D7414F090E74EE4F02C
:20052B0090E74FF090E68AF00000000090E68B7410F07582012290E6B8E0FFBF40028003EA
:20054B0002083490E68BE4F090E6A0E020E1F990E740E0FCA3E0FDA3E0FEA3E0FF90E6BC45
:20056B00E0F51B90E6BAE0F51C8C828D838EF0EF120A1E7582012290E6B8E0FFBF400280F2
:20058B000302083490E68BE4F090E6A0E020E1F990E740E0FCA3E0FDA3E0FEA3E0FF90E6BE
:2005AB00BAE0F51B8C828D838EF0EF1209077582012290E6B8E0FFBF400280030208349060
:2005CB00E6BAE0FCA3E0FDA3E0FEA3E08C828D838EF01211827582012290E6B8E0FFBFC029
:2005EB0002800302083490E6BAE0FF90E6BBE0FE90E6BCE0FD90E6BDE0FCEF24FB4005EEB0
:20060B0024F850047582002290E6A0E020E1F98EF005F07401800225E0D5F0FBF51B8D1C6E
:20062B008C1D8F82120220AF8290E740EFF090E68AE4F00000000090E68B7401F0758201C8
:20064B002290E6B8E0FFBF4002800302083490E6BCE0FF90E6BDE0FEEF7004758201221FE0
:20066B00BF0400501790E6BAE0FD8E04ECC454F024802DF51B8F8212088E800DEEC454F095
:20068B002480F51B8F8212088E7582012290E6B8E0FFBFC002800302078390E6BBE0FE7F9D
:2006AB000090E6BAE0FD7C0090E000ED4FF0EC4EA3F090E6BFE0FE7F0090E6BEE0FD7C001E
:2006CB0090E002ED4FF0EC4EA3F090E002E0F5F0A3E045F0700302083090E6A0E020E1F918
:2006EB0090E002E0FEA3E0FFC3EE9440EF940040047E407F007D008D037C00C3EB9EEC9F34
:20070B005010ED2440F582E434E7F5837423F00D80E590E6BCE024FFE433FD90E000E0FBA2
:20072B00A3E0FC8E02750D40750EE78B0A8C0B8A0C8D82C007C006C004C003C0021211DFCA
:20074B00D002D003D004D006D00790E68AE4F00000000090E68BEAF090E000EE2BF0EF3C15
:20076B00A3F090E002E0FCA3E0FD90E002ECC39EF0ED9FA3F00206D590E6B8E0FFBF400254
:20078B00800302083090E6BBE0FE7F0090E6BAE0FD7C0090E004ED4FF0EC4EA3F090E6BFD8
:2007AB00E0FE7F0090E6BEE0FD7C0090E006ED4FF0EC4EA3F090E006E0F5F0A3E045F06082
:2007CB006490E68BE4F090E6A0E020E1F990E68BE0FF7E0090E6BCE024FFE433FD90E004CA
:2007EB00E0FBA3E0FC8F117512407513E78B0F8C108D82C007C006C004C0031212E0D0038E
:20080B00D004D006D00790E004EF2BF0EE3CA3F090E006E0FCA3E0FD90E006ECC39FF0ED9E
:0D082B009EA3F0809075820122758200224C
:011B74000070
:200838008582087582012285088222E5827014AD1BAE1CAF1D8D828E838FF0E41219DE75FC
:2008580082012275820022E5827023E51B701F90E6837401F07421F07411F07431F07402D6
:16087800F07422F07416F07436F075820122758200227582002294
:20088E00AF827D077E09EF75F003A42416F58274E035F0F583E0FBA3E0FCA3E0FF8B828CFC
:2008AE00838FF0121A67F9A3121A67FA74022BFBE43CFC90E008E9F0EAA3F090E008E0F995
:2008CE00A3E0FA90E008E0F5F0A3E045F06029E92DF582EA3EF583E51BF08B828C838FF057
:1908EE00121A67F9A3121A67FAA3AB82AC8390E008E9F0EAA3F080C32203
:201A9400BC000000C900D200DB00E400ED00F600FF0008010000310038003F0046004D00F6
:201AB40054005B00620077007E0085008C0093009A00A100A800CC00D500DE00E700F0002F
:201AD400F90002010B016D021F049405EE060000180061021304AA05030700001000270049
:201AF4002B00330036003A003D004100440048004B004F005200560059005D00600064003E
:201B14006700720079007C008000830087008A008E009100950098009C009F00A300A600FF
:201B3400AA00AE00B900BE00C200CE00D000D700D900E000E200E900EB00F200F400FB003B
:201B5400FD00040106010D0110018102830225042704BA05BC050507070783089008000030
:0F1B7500981A80AA1A80E41A80F01A80941A80B5
:20090700AC82AD83AEF0FFAB1B8B021BEA601BC2B3EC5401FA24FF92B2EFC313FFEE13FE28
:20092700ED13FDEC13FCD2B380DFC2B322E5821392B1D2B313C2B392B1D2B313C2B392B1E0
:20094700D2B313C2B392B1D2B313C2B392B1D2B313C2B392B1D2B313C2B392B1D2B313C2F6
:20096700B392B1D2B300C2B322759AE7759B80A882C2B3E59C1392B1D2B313C2B392B1D240
:20098700B313C2B392B1D2B313C2B392B1D2B313C2B392B1D2B313C2B392B1D2B313C2B3D5
:2009A70092B1D2B313C2B392B1D2B3D8C4C2B322759AE7759B80A882C2B3859C80D2B3D8C2
:2009C700F7C2B322AF82E582A2B01392B1D2B3C2B3A2B01392B1D2B3C2B3A2B01392B1D22C
:2009E700B3C2B3A2B01392B1D2B3C2B3A2B01392B1D2B3C2B3A2B01392B1D2B3C2B3A2B090
:200A07001392B1D2B3C2B3A2B01392B1D2B300C2B3F582228F8222AF82AE83ADF0FC90E0A6
:200A270025EFF0EEA3F0EDA3F0ECA3F090E029E51BF090E02AE51CF02290E025E0F5F0A3F8
:200A4700E042F0A3E042F0A3E045F07003020C28E5BA20E1FBE5BA20E2FB90E025E0FCA31C
:200A6700E0FDA3E0FEA3E0FFC3ED9402EE9400EF9400400A780079027A007B0080088C00FE
:200A87008D018E028F0390E68DE0FF7522807523E77524C07525E790E025E0FBA3E0FCA3BB
:200AA700E0FDA3E0FE88268927E4F528F529EBB5260EECB5270AEDB52806EEB5290280038D
:200AC700020BA5E824FFFDE934FFFE5305F888048D03ECC39BFCEEC423CDC423541F6DCD53
:200AE700541FCD6DCDFE8D061DEE603FAB24AE25852282852383E0FA0522E4B5220205235E
:200B07008A82C007C006C005C004C0031209CBAA82D003D004D005D006D0078B828E83EAA6
:200B2700F00524E4B524BF052580BB852282852383E0FE0522E4B52202052390E00BEEF01D
:200B470090E00AE4F090E00C04F08C0690E00CE0603CEE60391E90E02AE030E005EE7002B2
:200B6700D2B290E00BE0FD5401FC24FF92B1EDC313F030B00B90E00CE0FD90E00AE04DF04D
:200B8700D2B3C2B390E00CE025E0FDF080BEAD24AE2590E00AE0FC8D828E83F08051E9C440
:200BA70023C8C423541F68C8541FC868C8F9880618EE603BAD24AE25852282852383E0FC52
:200BC7000522E4B5220205238C82C007C006C005C0001209CBAC82D000D005D006D0078DEF
:200BE700828E83ECF00524E4B524C3052580BF90E68DE4F090E68FEFF090E025E0FCA3E0BE
:200C0700FDA3E0FEA3E0FF90E025ECC39526F0ED9527A3F0EE9528A3F0EF9529A3F0020A18
:200C27004090E029E4F02290E025E0F5F0A3E042F0A3E042F0A3E045F07003020D6CE5BAD5
:200C470020E1FB90E025E0FCA3E0FDA3E0FEA3E0FFC3ED9402EE9400EF9400400A78007917
:200C6700027A007B0080088C008D018E028F0390E68DE090E025E0FCA3E0FDA3E0FEA3E0DA
:200C8700FF882A892BE4F52CF52DECB52A0EEDB52B0AEEB52C06EFB52D028003020D397529
:200CA70022807523E7E824FFFEE934FFFF5306F88E05E8C39DFDEFC423CEC423541F6ECE85
:200CC700541FCE6ECEFF8E071EEF601F852282852383E0FF0522E4B5220205238F82C0065A
:200CE700C005120934D005D00680DB852282852383E090E00DF090E00E7401F08D0790E04B
:200D07000EE06034EF60311F90E02AE030E005EF7002D2B290E00DE0FE5401FD24FF92B124
:200D2700EEC313F0D2B3C2B390E00EE025E0FEF080CC75824012097090E68DE4F090E02533
:200D4700E0FCA3E0FDA3E0FEA3E0FF90E025ECC3952AF0ED952BA3F0EE952CA3F0EF952D07
:200D6700A3F0020C2E90E029E4F02290E02AE030E1067EFF7F0080047E007F00EE5401FFBE
:200D870090E025E0F5F0A3E042F0A3E042F0A3E045F07003020F43E5BA20E2FB90E025E0F8
:200DA700FAA3E0FBA3E0FCA3E0FDC3EB9402EC9400ED9400400CE4F52E752F02F530F5312C
:200DC70080088A2E8B2F8C308D31AC2EAD2F8C02EDC423CAC423541F6ACA541FCA6ACAECCB
:200DE7005407600679017B00800479007B00C0068A03E92BF52E7524C07525E790E025E0E5
:200E0700F8A3E0F9A3E0FBA3E0FE8C328D33E4F534F535E8B5320EE9B5330AEBB53406EE23
:200E2700B535028005D006020EDED006EC24FFF9ED34FFFB5301F88905ECC39DFDEBC42388
:200E4700C9C423541F69C9541FC969C9FB890419EC6033AB24AC258E82C007C006C005C0E6
:200E670004C003C0011209CBA882D001D003D004D005D006D0078B828C83E8F00524E4B523
:200E870024CB052580C790E00FE4F090E01004F0EF24FF92B190E010E0602CED60291D90C0
:200EA700E02AE030E005ED7002D2B230B00B90E010E0FC90E00FE04CF0D2B3C2B390E010ED
:200EC700E025E0FCF080CEAC24AD2590E00FE0FB8C828D83F080378A058D041DEC602FABC8
:200EE70024AC258E82C007C006C005C004C0031209CBAA82D003D004D005D006D0078B82C5
:200F07008C83EAF00524E4B524CF052580CB90E68FE52EF090E025E0FAA3E0FBA3E0FCA3A0
:200F2700E0FD90E025EAC39532F0EB9533A3F0EC9534A3F0ED9535A3F0020D8790E029E4E9
:200F4700F02290E02AE030E1067EFF7F0080047E007F008E3A90E025E0F536A3E0F537A3B0
:200F6700E0F538A3E0F539E53624FFF8E53734FFF9E53834FFFAE53934FFFF5300F8AB3668
:200F8700880590E011EBC39DF08803E9C423CBC423541F6BCB541FCB6BCBFCEAC42354E0D6
:200FA7004CFC8A05EFC423CDC423541F6DCD541FCD6DCDFF8B008C018D028F061BBBFF0989
:200FC7001CBCFF051DBDFF011FE8494A4E6018853A82C007C005C004C003120934D003D0AE
:200FE70004D005D00780CDE53A540124FF92B190E011E0FFEF60131F90E02AE030E005EFB4
:201007007002D2B2D2B3C2B380EA90E029E4F02285823B90E025E0F5F0A3E042F0A3E042CA
:20102700F0A3E045F06052E5BA20E1FB90E68DE0FEE53B600B8E82C0061209B7D006800941
:201047008E82C006120970D00690E68DE4F090E025E0FAA3E0FBA3E0FCA3E0FD8E00790088
:201067007E007F0090E025EAC398F0EB99A3F0EC9EA3F0ED9FA3F0809A90E029E4F0229016
:20108700E025E0F5F0A3E042F0A3E042F0A3E045F07003021138E5BA20E2FB90E025E0FC92
:2010A700A3E0FDA3E0FEA3E0FFC3EC9440ED9400EE9400EF9400400A784079007A007B002D
:2010C70080088C008D018E028F037524C07525E78807EF602DAD24AE25758200C007C00638
:2010E700C005C0001209CBAC82D000D005D006D0078D828E83ECF00524E4B5240205251FD1
:2011070080D090E68FE8F090E025E0FCA3E0FDA3E0FEA3E0FF79007A007B0090E025ECC3F5
:2011270098F0ED99A3F0EE9AA3F0EF9BA3F002108690E029E4F02290E029E0FF24F85001C3
:2011470022EF240A83F582EF240C83F583E4738166696C6F72787E111111111111111102C1
:201167000A40020C2E020D72020F4975820102101775820002101702108622AA82AB83AC06
:20118700F0FDD2B30000000000000000000000C2B30000000000001ABAFFE71BBBFFE31CD3
:0811A700BCFFDF1DBDFFDB22D0
:061B84000000000000005B
:2011AF0090E678E0FF30E0F8EF30E204758201227582002290E678E0FF30E0F8EF30E20439
:2011CF0075820122EF20E1047582012275820022E58260067EAA7F0080047EA27F0090E6B2
:2011EF0078E020E6F990E6787480F090E679EEF0C0061211C3E582D00660047582012290F3
:20120F00E679E50BF0C0061211C3E582D00660047582012290E679E50AF0C0061211C3E5BA
:20122F0082D00660047582012290E6787480F043060190E679EEF01211AFE582600475824C
:20124F00012290E679E01211AFE5826004758201227F00AD0C7E001DBDFF011E8F037C001A
:20126F00C3EB9DEC64808EF063F08095F05023EF250DFDE4350EFE90E679E08D828E83F0D9
:20128F00C0071211AFE582D0076004758201220F80C190E6787420F0C0071211AFE582D058
:2012AF0007600475820122EF250DFFE4350EFE90E679E08F828E83F01211AFE58260047562
:2012CF0082012290E6787440F090E679E075820022E58260067EAA7F0080047EA27F0090B9
:2012EF00E678E020E6F990E6787480F090E679EEF0C0061211C3E582D0066004758201229C
:20130F0090E679E510F0C0061211C3E582D00660047582012290E679E50FF0C0061211C304
:20132F00E582D006600475820122AD12AF137C00C3EC9511502E8D828F83E0FBA3AD82AF96
:20134F008390E679EBF0C007C006C005C0041211AFE582D004D005D006D007600475820130
:20136F00220C80CC90E678E0FF7D0043074090E678EFF090E678E020E6F990E6787480F0A4
:20138F0090E679EEF0C0061211AFE582D00660047582012290E678E0FF43074090E678EFEA
:1313AF00F090E678E020E6F990E678E030E1CB75820022AB
:201E00001201000200000040501D2B6002000102000109022E0001010080FA0904000004A9
:201E2000FF0000000705010200020007058102000200070502020002000705860200020059
:201E40000A0600020000004001000902190001010080320904000001FFFFFF000705060238
:031E60000002007D
:201E64000403090414034D0061006B006500530074007500660066002C03460050004700A1
:201E840041004C0069006E006B002F0046005800320020003200300032003000310031002A
:061EA400310034000000D3
:04000000020059326F
:01000B0032C2
:0100130032BA
:01001B0032B2
:0100230032AA
:01002B0032A2
:030033000214B004
:01003B003292
:03004300021F0099
:01004B003282
:03005300021F0089
:0400B200C200C201C5
:0300C800020056DD
:030056000213C2D0
:2013C2001200E3D2E890E668E0FF43070890E668EFF090E65CE0FF43070190E65CEFF0E003
:2013E200FF43071090E65CEFF0E0FF43072090E65CEFF0E0FF7E0043070890E65CEFF0D2B5
:20140200DDD2AF90E680E020E11690E680E043E00AF09005DC121A1090E680E053E0F7F0EF
:2014220012021D100002800312157910010280F090E682E043E0C0F090E6817401F0AE8785
:201442007F004306018E8700000000000000E516701C90E682E030E60790E682E020E0D088
:2014620090E682E030E70790E682E020E1C290E682E030E60790E682E020E00E90E682E026
:2014820030E79D90E682E030E196900005121A1090E680E0FF43070190E680EFF090000FB2
:2014A200121A1090E680E053E0FEF0021422C2DC32C0E0C082C083D2005391EF90E65D74DE
:2014C20001F0D083D082D0E032C021C0E0C0F0C082C083C007C006C005C004C003C002C081
:2014E20001C000C0D075D0007582001218CE5391EF90E65D7410F0D0D0D000D001D002D068
:2015020003D004D005D006D007D083D082D0F0D0E0D02132C021C0E0C0F0C082C083C007BB
:20152200C006C005C004C003C002C001C000C0D075D0007582011218CE5391EF90E65D7475
:2015420020F0D0D0D000D001D002D003D004D005D006D007D083D082D0F0D0E0D02132C045
:17156200E0C082C083D2015391EF90E65D7408F0D083D082D0E032A1
:06008800E478FFF6D8FD4C
:1200B60075150075160075174A75181E751912751A1E55
:2015790090E6B9E0FF24F450030216A7EF240A83F582EF241083F583E473ABC7A7E3A7A744
:20159900FFA70F264882151516151616151616161616121729E58260030216C390E6A0E09C
:2015B900FF7E0043070190E6A0EFF00216C31217BDE58260030216C390E6A0E0FF7E004339
:2015D900070190E6A0EFF00216C3121838E58260030216C390E6A0E0FF7E0043070190E6DF
:2015F900A0EFF00216C312088AE58260030216C31218F90216C312083FAF8290E740EFF011
:2016190090E68AE4F090E68B04F00216C390E6BAE0F582120838E58260030216C390E6A079
:20163900E0FF7E0043070190E6A0EFF00216C390E6BCE0FF751B14751C00751D408F8212DE
:201659000843E582701190E6A0E0FF7E0043070190E6A0EFF0805390E740E514F090E68A18
:20167900E4F090E68B04F0804190E6BCE0FF90E6BAE0F51B8F8212085FE582702D90E6A0F2
:20169900E0FF7E0043070190E6A0EFF0801C90E6B9E0F582120462E582700F90E6A0E0FF1F
:2016B9007E0043070190E6A0EFF090E6A0E0FF43078090E6A0EFF022AF82747F5FFE24F7E1
:2016D9005003021725EE240A83F582EE240D83F583E473FE02152519251D252116171717A3
:2016F900171717171790E6A022EF30E7067EA27FE680047EA17FE68E828F832290E6A3220E
:2017190090E6A42290E6A52290E6A6229000002290E6B8E0FFBF80028022BF81028008BFCE
:20173900820280370217B590E740E4F090E741F090E68AF090E68B7402F08064E51625E019
:20175900FFE515420790E740EFF090E741E4F090E68AF090E68B7402F0804590E6BCE0F5E9
:20177900821216D1AE82AF838E048F05EE4F7003F582228C828D83E0FC30E0067E017F00F6
:2017990080047E007F0090E740EEF090E741E4F090E68AF090E68B7402F08004758200229A
:2017B9007582012290E6B8E0FF6005BF0264801B90E6BAE0FFBF0105751600805E90E6BA57
:2017D900E0FFBF060280547582002290E6BAE0703D90E6BCE0F5821216D1AE82AF83E0FDDF
:2017F9005305FE8E828F83EDF090E6BCE0FF30E7098F057E004305108D0753071F90E683DA
:20181900EFF07E0043072090E683EFF0800D7582002290E6B9E0F5820204627582012290D2
:20183900E6B8E0FF6008BF020280290218C190E6BAE0FFBF02030218CA90E6BAE0FFBF01DD
:2018590005751601806B90E6BAE0FFBF060280617582002290E6BAE0704A90E6BCE0F582D0
:201879001216D1AE82AF83EE4F7003F582228E828F83E0FD7C004305018E828F83EDF09058
:20189900E6BCE0FF30E7098F057E004305108D0753071F90E683EFF07E0043072090E6835E
:2018B900EFF0800D7582002290E6B9E0F58202046275820122AF827E0110AF027E00EF6044
:2018D9000E75171275181E75194A751A1E800C75174A75181E751912751A1EEE1392AF2255
:2018F90090E6BBE0FFBF01028019BF02028024BF0302802CBF06030219B3BF07030219C350
:201919000219D07E007F1E90E6B3EFF090E6B47400F02290E6B3E518F090E6B4E517F022A2
:201939007D647E1E7F8090E6BAE0F51B7B008B020BEAB51B0280428D008E018F028D828E17
:20195900838FF0121A6728F8E439F9880589068A0774012DF9E43EFA8F0489828A838CF018
:20197900121A67F9B9030280067D007E007F00ED4E6006C3E51B9B50B5ED4E600F8D038E38
:201999000490E6B3ECF090E6B4EDF02290E6A0E0FF43070190E6A0EFF0227E407F1E90E6D4
:2019B900B3EFF090E6B47440F02290E6B3E51AF090E6B4E519F02290E6A0E0FF430701906A
:0519D900E6A0EFF02282
:200066007916E94400601B7A01901B7478157592E0E493F2A308B800020592D9F4DAF275C2
:0200860092FFE7
:1B19DE0020F71130F6138883A88220F509F6A8837583002280FEF280F5F02208
:201F00000214B300021A9200021A8700021561000214CB0002151600021A8400021A040061
:201F2000021A0600021A0700021A0800021A0B00021A9100021A93000219F9000219FB008B
:201F4000021A8900021A0400021A8300021A8500021A8600021A8800021A8A00021A8B00E9
:201F6000021A6600021A0400021A0400021A0400021A0500021A0900021A0C00021A0E00E7
:201F8000021A0A00021A0D00021A0F00021A65000219FC000219FE00021A0000021A0200DC
:181FA0000219FD000219FF00021A0100021A03000219FA00021A9000FA
:0119F90032BB
:0119FA0032BA
:0119FB0032B9
:0119FC0032B8
:0119FD0032B7
:20008E007800E84400600A79007592E0E4F309D8FC7815E84400600C790190E000E4F0A3AA
:0400AE00D8FCD9FAA7
:0119FE0032B6
:0119FF0032B5
:011A000032B3
:011A010032B2
:011A020032B1
:011A030032B0
:011A040032AF
:011A050032AE
:011A060032AD
:011A070032AC
:011A080032AB
:011A090032AA
:011A0A0032A9
:011A0B0032A8
:011A0C0032A7
:011A0D0032A6
:011A0E0032A5
:011A0F0032A4
:201A1000AE82AF8390E600E05418C423541F70057CB1FD801C90E600E05418C423541FFBE6
:201A3000BB01067A617B0180047AC27B028A048B058C1B8D1C151B74FFB51B02151CE51B2C
:151A5000451C70F1EE24FFFAEF34FFFB8A068B07EA4B70DD22D1
:011A6500324E
:011A6600324D
:0D00590075813B121A8CE58260030200568F
:1C1A670020F71430F6148883A88220F507E6A88375830022E280F7E49322E0228E
:011A83003230
:011A8400322F
:011A8500322E
:011A8600322D
:011A8700322C
:011A8800322B
:011A8900322A
:011A8A003229
:011A8B003228
:041A8C00758200223D
:011A90003223
:011A91003222
:011A92003221
:011A93003220
:00000001FF
