:0E022D00AA8290E6C2E4F0BA010790E60174DE
:03023B00E3F022CB
:07023E0090E60174E0F022DC
:0E02450090E680E0440AF09005DC121A179053
:0E025300E680E0FA54F7F090E670E4F0000068
:0E026100000090E602E4F00000000090E603CA
:0E026F00E4F00000000090E609E4F00000005A
:0E027D000090E60B7403F00000000090E60015
:0E028B007410F00000000090E60174E0F00036
:0D02990000000090E613E4F000000000906B
:0E02A600E615E4F00000000090E619E4F00018
:0D02B40000000090E61BE4F0000000009048
:0E02C100E61074A0F00000000090E61174A09A
:0E02CF00F00000000090E61274A0F0000000A5
:0E02DD000090E61474E0F00000000090E604CB
:0E02EB007480F00000000090E6047402F00041
:0E02F90000000090E6047406F0000000009083
:0D030700E604E4F090E68DF00000000090A8
:0E031400E6497482F00000000090E649748211
:0E032200F00000000090E6497482F000000038
:0E0330000090E6497482F00000000090E6188C
:0E033E007410F00000000090E61A7408F00041
:0E034C0000000090E6247402F0000000009013
:0E035A00E625E4F090E67AE04401F075AF0786
:0E0368007580FF75B2007590FF75B30075A02B
:0E037600FF75B40075B0FF75B50075B1FF7569
:03038400B600229E
:030387000211F36D
:0C038A00AA827B00EA24FB50030205B5A8
:07039600EA2A2A90039D737F
:07039D000203AC020415028B
:0603A400047E0204E702E2
:0203AA00054FFD
:0A03AC00E51645B2602AE517600768
:0703B600E51645B2FA8007CD
:0703BD00E516F4FC55B2FA4D
:0A03C4008AB2E5186007E5164580CF
:0303CE00FA8007AB
:0703D100E516F4FC5580FA6B
:0403D8008A8080286F
:0A03DC00E5186007E5164580FA8079
:0103E600070F
:0703E700E516F4FC5580FA55
:0A03EE008A80E5176007E51645B2A6
:0303F800FA800781
:0703FB00E516F4FC55B2FA0F
:020402008AB2BC
:0A040400E516558060047A018002BD
:02040E007A0072
:050410008A030205B59E
:0A041500E51645B3602AE5176007FD
:07041F00E51645B3FA800762
:07042600E516F4FC55B3FAE2
:0A042D008AB3E5186007E516459054
:03043700FA800741
:07043A00E516F4FC5590FAF1
:040441008A908028F5
:0A044500E5186007E5164590FA80FF
:01044F0007A5
:07045000E516F4FC5590FADB
:0A0457008A90E5176007E51645B32B
:03046100FA800717
:07046400E516F4FC55B3FAA4
:02046B008AB352
:0A046D00E516559060047A01800244
:020477007A0009
:050479008A030205B535
:0A047E00E51645B4602AE517600793
:07048800E51645B4FA8007F8
:07048F00E516F4FC55B4FA78
:0A0496008AB4E5186007E51645A0DA
:0304A000FA8007D8
:0704A300E516F4FC55A0FA78
:0404AA008AA080287C
:0A04AE00E5186007E51645A0FA8086
:0104B800073C
:0704B900E516F4FC55A0FA62
:0A04C0008AA0E5176007E51645B4B1
:0304CA00FA8007AE
:0704CD00E516F4FC55B4FA3A
:0204D4008AB4E8
:0A04D600E51655A060047A018002CB
:0204E0007A00A0
:0504E2008A030205B5CC
:0A04E700E51645B5602AE517600729
:0704F100E51645B5FA80078E
:0704F800E516F4FC55B5FA0E
:0A04FF008AB5E5186007E51645B060
:03050900FA80076E
:07050C00E516F4FC55B0FAFE
:040513008AB0802802
:0A051700E5186007E51645B0FA800C
:0105210007D2
:07052200E516F4FC55B0FAE8
:0A0529008AB0E5176007E51645B536
:03053300FA800744
:07053600E516F4FC55B5FACF
:02053D008AB57D
:0A053F00E51655B060047A01800251
:020549007A0036
:04054B008A03806639
:0A054F00E51645B6602AE5176007BF
:07055900E51645B6FA800724
:07056000E516F4FC55B6FAA4
:0A0567008AB6E5186007E51645B1F5
:03057100FA800706
:07057400E516F4FC55B1FA95
:04057B008AB1802899
:0A057F00E5186007E51645B1FA80A3
:01058900076A
:07058A00E516F4FC55B1FA7F
:0A0591008AB1E5176007E51645B6CC
:03059B00FA8007DC
:07059E00E516F4FC55B6FA66
:0205A5008AB614
:0A05A700E51655B160047A018002E8
:0205B1007A00CE
:0205B3008A03B9
:0305B5008B822214
:0705B800AA82BA800280272D
:0605BF00BA810302068E62
:0605C500BA82030206D019
:0605CB00BA830302070CD5
:0605D100BA8503020733A6
:0605D700BA860302079C36
:0605DD00BAA2030207DED2
:0305E30002097496
:0E05E60090E6B8E0FABA402690E6BBE0FB7A59
:0D05F4000090E6BAE07D004202ED42039067
:0E060100E6BCE0FCEA4B70078C8212022D80F2
:01060F007A70
:0406100075820022CD
:0E06140090E6A0E0FA20E1F890E740744EF086
:0D06220090E7417445F090E742744DF09070
:0E062F00E7437449F090E015E0FA90E744F0DC
:09063D00E58030E2047A0080023D
:020646007A0137
:0E06480090E745EAF090E7467411F090E7471E
:0D0656007426F090E748E4F090E749F0903A
:0D066300E74AF090E74BF090E74CE4F09090
:0E067000E74DF090E74EF090E74FF090E68AED
:0C067E00E4F00000000090E68B7410F027
:04068A007582012252
:0A068E0090E6B8E0FABA40028003DB
:03069800020974E0
:05069B0090E68BE4F085
:0E06A00090E6A0E0FA20E1F890E740E0FAA32F
:0D06AE00E0FBA3E0FCA3E0FD90E6BCE0F55E
:0A06BB001690E6BAE0F5178A828B6C
:0B06C500838CF0ED120B6F7582012298
:0A06D00090E6B8E0FABA4002800399
:0306DA000209749E
:0506DD0090E68BE4F043
:0E06E20090E6A0E0FA20E1F890E740E0FAA3ED
:0D06F000E0FBA3E0FCA3E0FD90E6BAE0F51E
:0C06FD00168A828B838CF0ED120A5C756B
:0307090082012248
:0A070C0090E6B8E0FABA400280035C
:0307160002097461
:0E07190090E6BAE0FAA3E0FBA3E0FCA3E08ABE
:0C072700828B838CF012122F758201224D
:0A07330090E6B8E0FABAC0028003B5
:03073D000209743A
:0E07400090E6BAE0FA90E6BBE0FB90E6BCE083
:0E074E00FC90E6BDE0FDEA24FB4005EB24F83C
:02075C00500447
:04075E00758200227E
:0E07620090E6A0E0FE20E1F88BF005F07401B7
:02077000800205
:0207720025E080
:08077400D5F0FBF5168C178D82
:0C077C00188A8212038AAA8290E740EAE1
:0E078800F090E68AE4F00000000090E68B742A
:0607960001F07582012252
:0A079C0090E6B8E0FABA40028003CC
:0307A600020974D1
:0D07A90090E6BCE0FA90E6BDE0FBBA04006B
:0E07B600501590E6BAE0FCEBC454F024802C01
:0907C400F5168A821209ED800D80
:0B07CD00EBC454F02480F5168A821261
:0207D80009ED29
:0407DA007582012201
:0A07DE0090E6B8E0FABAC00280030A
:0307E8000208C63E
:0E07EB0090E6BBE0FB7A0090E6BAE0FC7D00F1
:0E07F90090E000EC4AF0ED4BA3F090E6BFE07C
:0E080700FB7A0090E6BEE0FC7D0090E002EC83
:060815004AF0ED4BA3F0D8
:0E081B0090E002E0FAA3E0FB4A7003020970CD
:0E08290090E6A0E0FA20E1F890E002E0FAA3E9
:0E083700E0FBC3EA9440EB940040047A407B5F
:0108450000B2
:020846007C0034
:0E0848008C057E00C3ED9AEE9B5010EC244010
:0D085600F582E434E7F5837423F00C80E5AF
:0C08630090E6BCE024FF920290E000E070
:0A086F00FCA3E0FD8A06750A40753F
:0A0879000BE78E098C828D83C0020C
:0E088300C003C004C005C006121282D006D009
:0E08910005D004D003D00290E68AE4F0000007
:0E089F00000090E68BEEF090E000EA2CF0EB0B
:0E08AD003DA3F090E002E0FCA3E0FD90E0022D
:0B08BB00ECC39AF0ED9BA3F002081BB9
:0A08C60090E6B8E0FABA40028003A1
:0308D000020970AA
:0E08D30090E6BBE0FB7A0090E6BAE0FC7D0008
:0E08E10090E004EC4AF0ED4BA3F090E6BFE08F
:0E08EF00FB7A0090E6BEE0FC7D0090E006EC97
:0608FD004AF0ED4BA3F0F0
:0E09030090E006E0FAA3E0FB4A606290E68B0B
:02091100E4F010
:0E09130090E6A0E0FA20E1F890E68BE0FA7B97
:0C0921000090E6BCE024FF920390E0048C
:0A092D00E0FCA3E0FD8A0C750D400C
:0C093700750EE78C828D83C002C003C0E7
:0E09430004C00512136ED005D004D003D002FC
:0E09510090E004EA2CF0EB3DA3F090E006E00D
:0E095F00FCA3E0FD90E006ECC39AF0ED9BA334
:03096D00F0809384
:040970007582012269
:040974007582002266
:011B74000070
:07097800858208758201224F
:04097F008508822243
:0A098300E582FA7014AA16AB17AC57
:0C098D00188A828B838CF0E41219E67546
:03099900820122B6
:04099C00758200223E
:0C09A000E582FA7044E516704090E68392
:0D09AC007401F0E0FA90E68374204AF090A8
:0E09B900E6837411F0E0FA90E68374204AF0B1
:0E09C70090E6837402F0E0FA90E68374204A12
:0E09D500F090E6837416F0E0FA90E68374204A
:0609E3004AF075820122BA
:0409E90075820022F1
:0A09ED00AA827B5C7C0AEA75F00325
:0A09F700A42416F582E434E0F58331
:0E0A0100E0FAA3E0FDA3E0FE8A828D838EF072
:0E0A0F00121A6FFFA3121A6FF874022AFAE48B
:0A0A1D003DFD90E008EFF0A3E8F0C3
:0E0A270090E008E0FFA3E0F84F6029EF2BF508
:0C0A350082E83CF583E516F08A828D8390
:0E0A41008EF0121A6FFFA3121A6FF8A3AA828A
:0C0A4F00AD8390E008EFF0A3E8F080CC4D
:010A5B002278
:041A9000B80000009A
:0E1A9400C500CE00D700E000E900F200FB0024
:081AA20004017602BD050000FD
:0E1AAA002D0034003B00420049005000570060
:0E1AB8005E0073007A00810088008F009600A7
:0E1AC6009D00A400C800D100DA00E300EC008F
:0E1AD400F500FE0007016C022A04A3050B07B3
:021AE200000002
:0C1AE400140064022204BB05210700006E
:0E1AF0001000230027002F00320036003900BE
:0E1AFE003D004000440047004B004E005200E7
:0E1B0C00550059005C00600063006E0075001B
:0E1B1A0078007C007F00830086008A008D002A
:0E1B28009100940098009B009F00A200A60070
:0E1B3600AA00B500BA00BE00CA00CC00D30061
:0E1B4400D500DC00DE00E500E700EE00F0005A
:0E1B5200F700F9000001020109010C018502F3
:0E1B6000870233043504CC05CE052307250784
:061B6E00DB07E8070000A0
:031B7500941A803F
:031B7800AA1A8026
:031B7B00E41A80E9
:031B7E00F01A80DA
:031B8100901A8037
:090A5C00AA82AB83ACF0FDAE16DA
:0E0A65008E071EEF6017C2B3EA1392B2EDC304
:0E0A730013FDEC13FCEB13FBEA13FAD2B38075
:010A8100E391
:030A8200C2B322DA
:0E0A8500E5821392B1D2B313C2B392B1D2B3D1
:0E0A930013C2B392B1D2B313C2B392B1D2B3B5
:0E0AA10013C2B392B1D2B313C2B392B1D2B3A7
:0E0AAF0013C2B392B1D2B313C2B392B1D2B399
:040ABD0000C2B3229E
:080AC100759AE7759B80A8827D
:0E0AC900C2B3E59C1392B1D2B313C2B392B183
:0E0AD700D2B313C2B392B1D2B313C2B392B171
:0E0AE500D2B313C2B392B1D2B313C2B392B163
:0E0AF300D2B313C2B392B1D2B313C2B392B155
:070B0100D2B3D8C4C2B32235
:080B0800759AE7759B80A88235
:0C0B1000C2B3859C80D2B3D8F7C2B322D8
:0E0B1C00AA82E582A2B01392B1D2B3C2B3A2F4
:0E0B2A00B01392B1D2B3C2B3A2B01392B1D243
:0E0B3800B3C2B3A2B01392B1D2B3C2B3A2B093
:0E0B46001392B1D2B3C2B3A2B01392B1D2B324
:0E0B5400C2B3A2B01392B1D2B3C2B3A2B01317
:0D0B620092B1D2B300C2B3F582228A822282
:0E0B6F00AA82AB83ACF0FD90E025EAF0A3EB88
:0C0B7D00F0A3ECF0A3EDF090E029E516E9
:080B8900F090E02AE517F022CC
:0E0B910090E025E0FAA3E0FBA3E0FCA3E0FD6A
:090B9F00EA4B4C4D7003020D8677
:050BA800E5BA20E1FBAD
:0E0BAD00E5BA20E2FB90E025E0FAA3E0FBA30E
:0E0BBB00E0FCA3E0FDC3EB9402EC9400ED948B
:0E0BC90000B3E433FE600A7E007F02780079FC
:030BD70000800893
:080BDA008A068B078C008D01D7
:0A0BE20090E68DE0FA75228075237D
:080BEC00E77524C07525E790B0
:0E0BF400E025E0FBA3E0FCA3E0FDA3E0F88E0B
:050C0200268F27E4F538
:050C070028F529EBB502
:080C0C00260EECB5270AEDB538
:080C14002806E8B5290280035F
:030C1C00020D01C5
:0E0C1F00EE24FFFBEF34FFFC5303F88E058B31
:0E0C2D0000EDC398FDECC423CBC423541F6B11
:070C3B00CB541FCB6BCBFC77
:0A0C42008B041BEC603FAC24A825D6
:090C4C00852282852383E0F9056D
:060C550022E4B5220205B5
:010C5B002375
:0D0C5C008982C002C003C004C005C00012A0
:0E0C69000B1CA982D000D005D004D003D0020D
:0A0C77008C828883E9F00524E4B5BF
:060C810024BF052580BB25
:090C8700852282852383E0FB0530
:060C900022E4B52202057A
:010C9600233A
:0B0C970090E00BEBF090E00AE4F0901E
:070CA200E00C7401F08D036A
:0E0CA90090E00CE0FC6041EB603E1B90E02A06
:0A0CB700E0FC30E005EB7002D2B261
:0D0CC10090E00BE0FC1392B1ECC313FC902B
:0C0CCE00E00BF030B00C90E00CE0FC906B
:060CDA00E00AE0FD4CF011
:0E0CE000D2B3C2B390E00CE025E0FC90E00C33
:030CEE00F080B8DB
:050CF100AB24AC2590CE
:0B0CF600E00AE0FD8B828C83F080534D
:0E0D0100EFC423CEC423541F6ECE541FCE6EFB
:040D0F00CEFF8E0382
:0A0D13008B041BEC603BAC24AD2503
:090D1D00852282852383E0FE0596
:060D260022E4B5220205E3
:010D2C0023A3
:0E0D2D008E82C002C003C004C005120B1CAEB3
:0E0D3B0082D005D004D003D0028C828D83EECE
:080D4900F00524E4B524C30504
:030D51002580BF3B
:0E0D540090E68DE4F090E68FEAF090E025E066
:0E0D6200FAA3E0FBA3E0FCA3E0FD90E025EA8D
:0A0D7000C39526F0EB9527A3F0ECE5
:0A0D7A009528A3F0ED9529A3F002DF
:020D84000B91D1
:060D860090E029E4F022D8
:0E0D8C0090E025E0FAA3E0FBA3E0FCA3E0FD6D
:090D9A00EA4B4C4D7003020ED22D
:0E0DA300E5BA20E1FB90E025E0FAA3E0FBA317
:0E0DB100E0FCA3E0FDC3EB9402EC9400ED9493
:0E0DBF0000B3E433FE600A7E007F0278007904
:030DCD000080089B
:080DD0008A068B078C008D01DF
:0E0DD80090E68DE090E025E0FAA3E0FBA3E0BA
:0A0DE600FCA3E0FD8E2A8F2BE4F53C
:050DF0002CF52DEAB511
:080DF5002A0EEBB52B0AECB548
:080DFD002C06EDB52D02800368
:030E0500020E9F3B
:0A0E08007522807523E7EE24FFFA3F
:0E0E1200EF34FFFB5302F88A04EEC39CFCEBA6
:0E0E2000C423CAC423541F6ACA541FCA6ACA14
:010E2E00FBC8
:0A0E2F008A031AEB601F85228285FA
:080E39002383E0FB0522E4B570
:040E41002202052361
:0E0E45008B82C002C004120A85D004D0028045
:010E5300DBC3
:080E5400852282852383E090D2
:0B0E5C00E00DF090E00E7401F08C023D
:0E0E670090E00EE0FB6037EA60341A90E02A5B
:0A0E7500E0FB30E005EA7002D2B2A3
:0E0E7F0090E00DE0FB1392B1EBC31390E00D79
:0D0E8D00F0D2B3C2B390E00EE025E0FB9080
:050E9A00E00EF080C82D
:060E9F00758240120AC139
:0E0EA50090E68DE4F090E025E0FAA3E0FBA3D8
:0C0EB300E0FCA3E0FD90E025EAC3952AD6
:0A0EBF00F0EB952BA3F0EC952CA3AB
:090EC900F0ED952DA3F0020D8C53
:060ED20090E029E4F0228B
:0C0ED80090E02AE0FA30E1047AFF80028A
:020EE4007A0092
:040EE600EA5401FBCE
:0E0EEA0090E025E0FCA3E0FDA3E0FEA3E0FF06
:090EF800EC4D4E4F70030210ADE9
:0E0F0100E5BA20E2FB90E025E0FCA3E0FDA3B2
:0E0F0F00E0FEA3E0FFC3ED9402EE9400EF9429
:0B0F1D0000B3E433F8600E752E007581
:060F28002F027530007578
:040F2E003100800806
:050F32008C2E8D2F8EB6
:030F3700308F31C7
:0A0F3A00AC2EAD2F8C06EDC423CEC3
:0E0F4400C423541F6ECE541FCE6ECEFFEC544D
:050F52000760027401BC
:0A0F5700FFC003EF2EF52E7524C035
:0C0F61007525E790E025E0F8A3E0F9A377
:0A0F6D00E0FBA3E0FF8C328D33E4BB
:060F7700F534F535E8B584
:080F7D00320EE9B5330AEBB5B1
:080F85003406EFB535028005CA
:050F8D00D00302104832
:0E0F9200D003EC24FFFFED34FFF85307F88F77
:0E0FA00005ECC39DFCE8C423CFC423541F6F8F
:090FAE00CF541FCF6FCFF88F055F
:0A0FB7008D071DEF6033AF24A8255D
:0E0FC1008A82C002C003C004C005C007C00081
:0E0FCF00120B1CA982D000D007D005D004D090
:0C0FDD0003D0028F828883E9F00524E431
:070FE900B524CB052580C7EC
:0E0FF00090E00FE4F090E0107401F0EB24FFAD
:020FFE0092B1AE
:0E10000090E010E0FD6031EC602E1C90E02AC4
:0A100E00E0FD30E005EC7002D2B204
:0E10180030B00C90E010E0FD90E00FE0FF4DD6
:01102600F0D9
:0E102700D2B3C2B390E010E025E0FD90E010DF
:03103500F080C880
:05103800AC24AD259081
:0B103D00E00FE0FF8C828D83F0803715
:021048008E0414
:0A104A008C051CED602FAD24AE25CF
:0D1054008A82C002C003C004C005C006129D
:0E1061000B1CAF82D006D005D004D003D00205
:0A106F008D828E83EFF00524E4B5B6
:0610790024CF052580CB09
:0C107F0090E68FE52EF090E025E0FCA349
:0E108B00E0FDA3E0FEA3E0FF90E025ECC3959E
:0910990032F0ED9533A3F0EE9561
:0910A20034A3F0EF9535A3F00230
:0210AB000EEA4B
:0610AD0090E029E4F022AE
:0C10B30090E02AE0FA30E105753AFF8079
:0110BF00032D
:0310C000753A007E
:0E10C30090E025E0FBA3E0FCA3E0FDA3E0FE2F
:0E10D100EB24FFFFEC34FFF8ED34FFF9EE34B2
:0E10DF00FFFA5307F88F0490E011EBC39CF06A
:0A10ED008F36E8C423C536C423542F
:0810F7001F6536C536541FC504
:0410FF00366536C557
:0911030036F537E9C42354E04538
:04110C0037F53789F3
:0A11100038EAC423C538C423541F75
:07111A006538C538541FC5FC
:04112100386538C530
:0411250038F539ABB5
:0411290036AC37ADFC
:03112D0038AE39A0
:0E1130008B078C008D018E021BBBFF091CBCBF
:07113E00FF051DBDFF011EAE
:0C114500EF48494A6018853A82C003C098
:0E11510004C005C006120A85D006D005D004E1
:04115F00D00380CD6C
:0A116300E53A1392B190E011E0FAB2
:0E116D00EA60141A90E02AE0FB30E005EA7018
:03117B0002D2B2EB
:06117E00D2B3C2B380E908
:0611840090E029E4F022D6
:0E118A0090E025E0FAA3E0FBA3E0FCA3E0FD6B
:06119800EA4B4C4D604FD4
:0C119E00E5BA20E1FB90E68DE0FA30009D
:0C11AA000B8A82C002120B08D0028009E0
:0911B6008A82C002120AC1D002B3
:0E11BF0090E68DE4F090E025E0FBA3E0FCA3B9
:0E11CD00E0FDA3E0FE7F007800790090E025B1
:0E11DB00EBC39AF0EC9FA3F0ED98A3F0EE9911
:0411E900A3F0809D52
:0611ED0090E029E4F0226D
:0D11F30090E029E0FA24F94032EA2A2A901F
:0312000012037363
:0712030002122E0212180274
:06120A00121B02121E027D
:061210001221021224026B
:0212160012299B
:03121800020B9135
:03121B00020D8C35
:03121E00020ED8E5
:031221000210B305
:05122400D20002118A56
:05122900C20012118A51
:01122E00229D
:07122F00AA82AB83ACF0FDC5
:0E123600D2B30000000000000000000000C263
:0E124400B30000000000001ABAFFE71BBBFF5A
:0A125200E31CBCFFDF1DBDFFDB2223
:041B8400000000005D
:011B8800005C
:011B8900005B
:0E125C0090E678E0FA30E0F8EA30E202D322C1
:02126A00C3229D
:0E126C0090E678E0FA30E0F8EA30E202D322B1
:06127A00EA20E102D3228C
:02128000C32287
:0B128200AA82AB833002047CAA800229
:02128D007CA241
:0E128F0090E678E0FD20E6F890E6787480F0B6
:0E129D0090E679ECF0C002C003C00412126C9F
:0A12AB00D004D003D0025002D32279
:0E12B50090E679EBF0C002C003C00412126C88
:0A12C300D004D003D0025002D32261
:0E12CD0090E679EAF0C00412126CD0045002D0
:0212DB00D3221C
:0E12DD0090E6787480F090E67974014CF0127F
:0612EB00125C5002D32248
:0B12F10090E679E012125C5002D3225C
:0212FC007A0076
:0912FE00AB097C001BBBFF011CC5
:0E1307008A057E00C3ED9BEE64808CF063F0DF
:0B1315008095F0501FEA250AFBE4352C
:0C1320000BFC90E679E08B828C83F0C01F
:0A132C000212125CD0025002D3221C
:031336000A80C565
:0E13390090E6787420F0C00212125CD00250D0
:0313470002D322AC
:09134A00EA250AFAE4350BFB90D8
:0E135300E679E08A828B83F012125C5002D39E
:011361002269
:0C13620090E6787440F090E679E0C32239
:0B136E00AA82AB833003047CAA80023B
:021379007CA254
:0E137B0090E678E0FD20E6F890E6787480F0C9
:0E13890090E679ECF0C002C003C00412126CB2
:0A139700D004D003D0025002D3228C
:0E13A10090E679EBF0C002C003C00412126C9B
:0A13AF00D004D003D0025002D32274
:0E13B90090E679EAF0C00412126CD0045002E3
:0213C700D3222F
:0613C900AA0DAB0E7D0031
:0C13CF00C3ED950C502A8A828B83E0FE4F
:0E13DB00A3AA82AB8390E679EEF0C002C003B5
:0E13E900C004C00512125CD005D004D003D0A1
:0513F700025002D322A8
:0313FC000D80D091
:0813FF0090E678E0FA4440F0AA
:0814070090E678E0FA20E6F817
:0E140F0090E6787480F090E679ECF0C004125C
:08141D00125CD0045002D3223E
:0814250090E678E0FA4440F083
:0E142D0090E678E0FA20E6F890E678E0FA30F3
:04143B00E1D2C32215
:0E1E00001201000200000040501D2B60020085
:041E0E0001020001CC
:091E120009022E0001010080FA12
:0E1E1B000904000004FF00000007050102009A
:0E1E2900020007058102000200070502020008
:091E37000200070586020002000A
:0A1E40000A06000200000040010045
:091E4A00090219000101008032B7
:0E1E53000904000001FFFFFF00070506020062
:021E610002007D
:041E64000403090466
:0E1E680014034D0061006B0065005300740010
:061E760075006600660025
:0E1E7C002C0346005000470041004C00690056
:0E1E8A006E006B002F00460058003200200052
:0E1E98003200300031003300300037003100DE
:021EA600360004
:021EA800000038
:040000000201BB320C
:01000B0032C2
:0100130032BA
:01001B0032B2
:0100230032AA
:01002B0032A2
:0300330002152093
:01003B003292
:01004300328A
:01004B003282
:01005300327A
:01005B003272
:01006300326A
:03006B0002152358
:030073000219E58A
:03007B000215EC7F
:030083000215D192
:03008B0002153B20
:03009300021586CD
:03009B000215E962
:0300A300021A0D31
:0300AB00021A0E28
:0300B300021A0F1F
:0300BB00021A1214
:0300C3000219E43B
:0300CB000219FF18
:0300D300021A000E
:0300DB00021A0204
:0300E3000215EE15
:0300EB00021A8B6B
:0300F3000215EA09
:0300FB000215EB00
:030103000215EDF5
:03010B000215EFEB
:030113000215F0E2
:03011B00021A6E57
:03012300021A0BB2
:03012B00021A10A5
:03013300021A139A
:03013B00021A1590
:03014300021A0C91
:03014B00021A1184
:03015300021A1479
:03015B00021A166F
:03016300021A6D10
:03016B00021A0372
:03017300021A0568
:03017B00021A075E
:03018300021A0954
:03018B00021A0451
:03019300021A0647
:03019B00021A083D
:0301A300021A0A33
:0301AB00021A0134
:0301B3000219E34B
:04021400C204C20559
:03022A000201B618
:0501B60012143F80FE61
:0C143F00120245E500D2E890E668E044A7
:0E144B0008F090E65CE04401F090E65CE044BE
:0E14590010F090E65CE04420F090E65CE04489
:0E14670008F0D2DDD2AF90E680E0FA20E11569
:0E14750090E680E0440AF09005DC121A179011
:07148300E680E0FA54F7F0E7
:08148A00120387100402800325
:031492001215F13F
:0514950010050280F0CB
:0E149A0090E682E0FA44C0F090E6817401F022
:0C14A80043870100000000000000E51177
:0E14B400702690E682E0FA30E60B90E682E0C9
:0714C200FA30E00302149A66
:0E14C90090E682E0FA30E70B90E682E0FA301F
:0514D700E10302149A7C
:0E14DC0090E682E0FA30E60890E682E0FA2020
:0214EA00E0160A
:0B14EC0090E682E0FA20E70302148A79
:0B14F70090E682E0FA20E10302148A74
:0E150200900005121A1790E680E04401F09068
:0E151000000F121A1790E680E0FA54FEF00267
:02151E00148A2D
:03152000C2DC32F8
:0C152300C0E0C082C083D2045391EF905E
:0C152F00E65D7401F0D083D082D0E03281
:0C153B00C021C0E0C0F0C082C083C0022C
:0E154700C003C004C005C006C007C000C0013C
:0E155500C0D075D0007582001218E75391EFD8
:0E15630090E65D7410F0D0D0D001D000D0071B
:0E157100D006D005D004D003D002D083D082A3
:07157F00D0F0D0E0D02132D2
:0C158600C021C0E0C0F0C082C083C002E1
:0E159200C003C004C005C006C007C000C001F1
:0E15A000C0D075D0007582011218E75391EF8C
:0E15AE0090E65D7420F0D0D0D001D000D007C0
:0E15BC00D006D005D004D003D002D083D08258
:0715CA00D0F0D0E0D0213287
:0C15D100C0E0C082C083D2055391EF90AF
:0C15DD00E65D7408F0D083D082D0E032CC
:0115E90032CF
:0115EA0032CE
:0115EB0032CD
:0115EC0032CC
:0115ED0032CB
:0115EE0032CA
:0115EF0032C9
:0115F00032C8
:0601EA00E478FFF6D8FDE9
:0801C8007916E94400601B7A7E
:0501D00001901B747892
:0301D5001575920B
:0A01D800E0E493F2A308B80002056A
:0801E20092D9F4DAF27592FFE4
:07021800751000751100755F
:03021F00124A750B
:03022200131E7533
:030225001412753B
:02022800151EA1
:0C15F10090E6B9E0FA24F450030216F171
:0715FD00EA2A2A901604738C
:0716040002162802163D0248
:06160B0016F10216520266
:0616110016F10216F102C1
:0616170016670216F10245
:06161D00166D02168502A5
:05162300169F0216D322
:0A162800121765E582600302170641
:0B16320090E6A0E0FA4401F002170669
:0A163D001217F1E5826003021706A0
:0B16470090E6A0E0FA4401F002170654
:0A16520012185FE58260030217061C
:0B165C0090E6A0E0FA4401F00217063F
:0616670012191202170621
:0E166D0012097FAA8290E740EAF090E68AE434
:0A167B00F090E68B7401F0021706F0
:0E16850090E6BAE0F582120978E58260030271
:02169300170638
:0A16950090E6A0E0FA4401F080673F
:09169F0090E6BCE0FA75160F7527
:0816A80017007518408A821238
:0E16B0000983E582700A90E6A0E0FA4401F09A
:0216BE00804664
:0C16C00090E740E50FF090E68AE4F0901F
:0716CC00E68B7401F080338E
:0C16D30090E6BCE0FA90E6BAE0F5168A5A
:0E16DF00821209A0E582701F90E6A0E0FA4496
:0416ED0001F0801573
:0E16F10090E6B9E0F5821205B8E58270089027
:0716FF00E6A0E0FA4401F04F
:0817060090E6A0E04480F0220F
:0E170E00AA82747F5AFB24F74049EB2B2B90E4
:03171C00171F7321
:07171F0002173A02173E0217
:06172600175102176102D9
:06172C00175502176102CF
:06173200175902176102C5
:02173800175D3B
:04173A0090E6A02273
:0A173E00EA30E7067AA27BE6800499
:041748007AA17BE621
:05174C008A828B83225C
:0417510090E6A32259
:0417550090E6A42254
:0417590090E6A5224F
:04175D0090E6A6224A
:0417610090000022D2
:0A17650090E6B8E0FABA8002802294
:05176F00BA81028008B0
:05177400BA820280377B
:031779000217E96B
:0E177C0090E740E4F090E741F090E68AF090AC
:07178A00E68B7402F0805CA5
:0A179100E51125E0FAE51042029090
:0E179B00E740EAF090E741E4F090E68AF09033
:0717A900E68B7402F0803DA5
:0E17B00090E6BCE0F58212170EAA82AB83EA27
:0617BE004B7003F58222CE
:0D17C4008A828B83E0FA30E0047A01800213
:0217D1007A009C
:0E17D30090E740EAF090E741E4F090E68AF0FB
:0817E10090E68B7402F0800415
:0417E90075820022E3
:0417ED0075820122DE
:0C17F10090E6B8E0FA6005BA02578011DB
:0C17FD0090E6BAE0FABA01057511008010
:01180900518D
:04180A0075820022C1
:0D180E0090E6BAE0703A90E6BCE0F5821278
:0E181B00170EAA82AB83E0FC5304FE8A828B78
:0E18290083ECF090E6BCE0FA53020F90E6BCB0
:0E183700E05480C423541FFB90E6832AF090F7
:09184500E683E0FA4420F0800D76
:04184E00758200227D
:0918520090E6B9E0F5820205B848
:04185B00758201226F
:0C185F0090E6B8E0FA6008BA0202801FB0
:03186B000218DA86
:0B186E0090E6BAE0FABA02030218E3A9
:0C18790090E6BAE0FABA01057511018092
:011885005D05
:041886007582002245
:0D188A0090E6BAE0704690E6BCE0F58212F0
:0D189700170EAA82AB83EA4B7003F5822284
:0E18A4008A828B83E0FC4304018A828B83ECF2
:0E18B200F090E6BCE0FA53020F90E6BCE05462
:0D18C00080C423541FFB90E683EB2AF090B8
:0918CD00E683E0FA4420F0800DEE
:0418D60075820022F5
:0918DA0090E6B9E0F5820205B8C0
:0418E30075820122E7
:0918E700AA82D20610AF02C2066B
:0718F000EA600E751212758B
:0318F700131E7548
:0318FA00144A7518
:0418FD00151E800C28
:0419010075124A759C
:03190500131E7539
:0319080014127541
:02190B00151EA7
:05190D00A20692AF22CA
:0A19120090E6BBE0FABA010280196A
:05191C00BA0202802761
:05192100BA0302803052
:06192600BA06030219BA23
:06192C00BA07030219CD09
:031932000219DBBC
:0A1935007A007B1E90E6B3EBF07A17
:09193F00007B1E90E6B4EAF022E0
:0919480090E6B3E513F0AA129039
:05195100E6B4EAF022FB
:0A1956007A647B1E7C8090E6BAE004
:03196000FD7E0009
:091963008E070EEDB50702803677
:0E196C008A828B838CF0121A6F2AFAE43BFBFE
:0E197A0074012AFFE43BF88C018F8288838978
:0A198800F0121A6FFFBF0302800681
:061992007A007B007C00DE
:0A199800EA4B4C6005C3ED9E50C100
:0E19A200EA4B4C600B90E6B3EBF090E6B4EA33
:0219B000F02223
:0819B20090E6A0E04401F022E0
:0A19BA007A407B1E90E6B3EBF07A52
:0919C400407B1E90E6B4EAF0221B
:0919CD0090E6B3E515F0AA1490B0
:0519D600E6B4EAF02276
:0819DB0090E6A0E04401F022B7
:0119E30032D1
:0119E40032D0
:0119E50032CF
:0E19E60020F71030F6118883A88220F507F64E
:0519F400A883758300CB
:0119F90022CB
:0319FA00F280F781
:0219FD00F022D6
:0119FF0032B5
:011A000032B3
:011A010032B2
:011A020032B1
:03004300021F0099
:091F0000021523000219E500029C
:081F090015EC000215D10002E5
:081F1100153B000215860002D9
:081F190015E900021A0C000298
:081F21001A0D00021A0E000265
:081F29001A0F00021A12000257
:081F310019E4000219FF00028F
:081F39001A0000021A02000266
:081F410015EE00021A0C00026B
:081F49001A8B000215EA0002E8
:081F510015EB000215ED000282
:081F590015EF000215F0000273
:081F61001A6E00021A0C0002C6
:081F69001A0C00021A0C000220
:081F71001A0B00021A10000215
:081F79001A1300021A15000200
:081F81001A1100021A140002FB
:081F89001A1600021A6D000295
:081F91001A0300021A05000208
:081F99001A0700021A090002F8
:081FA1001A0400021A060002F6
:081FA9001A0800021A0A0002E6
:071FB1001A01000219E30010
:011A030032B0
:0801F0007800E84400600A7980
:0301F800007592FD
:0601FB00E0E4F309D8FC6A
:080201007815E84400600C7957
:0B0209000190E000E4F0A3D8FCD9FA5B
:011A040032AF
:011A050032AE
:011A060032AD
:011A070032AC
:011A080032AB
:011A090032AA
:011A0A0032A9
:011A0B0032A8
:011A0C0032A7
:011A0D0032A6
:011A0E0032A5
:011A0F0032A4
:011A100032A3
:011A110032A2
:011A120032A1
:011A130032A0
:011A1400329F
:011A1500329E
:011A1600329D
:0E1A1700AA82AB8390E600E05418C423541F4B
:041A2500FCB401000C
:0B1A2900E433FC60067CB17D00801CF3
:0E1A340090E600E05418C423541FFEBE0106C5
:061A42007E617F018004BB
:041A48007EC27F02D9
:041A4C008E048F0570
:041A50008C168D174C
:081A5400151674FFB51602150A
:011A5C001772
:0A1A5D00E516451770F11ABAFF01F3
:011A67001B63
:051A6800EA4B70E422CE
:011A6D003246
:011A6E003245
:0301BB0075813A11
:0A01BE00121A8CE58260030201B6FC
:0E1A6F0020F71430F6148883A88220F507E6CD
:061A7D00A883758300221E
:031A8300E280F707
:031A8600E49322C4
:021A8900E02259
:011A8B003228
:041A8C00758200223D
:00000001FF
