:20022B00AF8290E6C2E4F0BF010790E60174E3F02290E60174E0F02290E680E0440AF0904E
:20024B0005DC121A9490E680E0FF54F7F090E6827445F07445F090E670E4F000000000904E
:20026B00E602E4F00000000090E603E4F00000000090E609E4F00000000090E60B7403F02F
:20028B000000000090E6007410F00000000090E60174E0F00000000090E613E4F000000051
:2002AB000090E615E4F00000000090E619E4F00000000090E61BE4F00000000090E6107412
:2002CB00A0F00000000090E61174A0F00000000090E61274A0F00000000090E61474E0F09E
:2002EB000000000090E6047480F00000000090E6047402F00000000090E6047406F00000D1
:20030B00000090E604E4F090E68DF00000000090E6497482F00000000090E6497482F00047
:20032B0000000090E6497482F00000000090E6497482F00000000090E6187410F000000066
:20034B000090E61A7408F00000000090E6247402F00000000090E625E4F090E67AE0440112
:20036B00F075AF077580FF75B2007590FF75B30075A0FF75B40075B0FF75B50075B1FF75EB
:20038B00B600220212BDAF827E00EF24FB50030205BCEF2F2F9003A4730203B302041C0203
:2003AB0004850204EE020556E51D45B2602AE51E6007E51D45B2FF8007E51DF4FD55B2FFF3
:2003CB008FB2E51F6007E51D4580FF8007E51DF4FD5580FF8F808028E51F6007E51D458069
:2003EB00FF8007E51DF4FD5580FF8F80E51E6007E51D45B2FF8007E51DF4FD55B2FF8FB273
:20040B00E51D558060047F0180027F008F060205BCE51D45B3602AE51E6007E51D45B3FFD6
:20042B008007E51DF4FD55B3FF8FB3E51F6007E51D4590FF8007E51DF4FD5590FF8F9080B0
:20044B0028E51F6007E51D4590FF8007E51DF4FD5590FF8F90E51E6007E51D45B3FF8007C1
:20046B00E51DF4FD55B3FF8FB3E51D559060047F0180027F008F060205BCE51D45B4602A8C
:20048B00E51E6007E51D45B4FF8007E51DF4FD55B4FF8FB4E51F6007E51D45A0FF8007E56B
:2004AB001DF4FD55A0FF8FA08028E51F6007E51D45A0FF8007E51DF4FD55A0FF8FA0E51E67
:2004CB006007E51D45B4FF8007E51DF4FD55B4FF8FB4E51D55A060047F0180027F008F067A
:2004EB000205BCE51D45B5602AE51E6007E51D45B5FF8007E51DF4FD55B5FF8FB5E51F6018
:20050B0007E51D45B0FF8007E51DF4FD55B0FF8FB08028E51F6007E51D45B0FF8007E51D84
:20052B00F4FD55B0FF8FB0E51E6007E51D45B5FF8007E51DF4FD55B5FF8FB5E51D55B060E9
:20054B00047F0180027F008F068066E51D45B6602AE51E6007E51D45B6FF8007E51DF4FD29
:20056B0055B6FF8FB6E51F6007E51D45B1FF8007E51DF4FD55B1FF8FB18028E51F6007E508
:20058B001D45B1FF8007E51DF4FD55B1FF8FB1E51E6007E51D45B6FF8007E51DF4FD55B694
:2005AB00FF8FB6E51D55B160047F0180027F008F068E8222AF82BF80028027BF81030206D4
:2005CB00A0BF82030206E2BF830302071EBF8503020745BF86030207AEBFA2030207F802DB
:2005EB00098E90E6B8E0FFBF402790E6BBE0FE7F0090E6BAE07C004207EC420690E6BCE07D
:20060B00FDEF4E70088D8212022B02069C7582002290E6A0E0FF20E1F890E740744EF0902B
:20062B00E7417445F090E742744DF090E7437449F090E015E0FF90E744F0E58030E2047F04
:20064B000080027F0190E745EFF090E7467411F090E7477426F090E74874FFF090E7497422
:20066B00FFF090E74A7420F090E74B7414F090E74C7403F090E74D7411F090E74EE4F09075
:20068B00E74FF090E68AF00000000090E68B7410F07582012290E6B8E0FFBF400280030217
:2006AB00098E90E68BE4F090E6A0E0FF20E1F890E740E0FCA3E0FDA3E0FEA3E0FF90E6BC8D
:2006CB00E0F51D90E6BAE0F51E8C828D838EF0EF120B8C7582012290E6B8E0FFBF4002801E
:2006EB000302098E90E68BE4F090E6A0E0FF20E1F890E740E0FCA3E0FDA3E0FEA3E0FF90EA
:20070B00E6BAE0F51D8C828D838EF0EF120A777582012290E6B8E0FFBF4002800302098EDA
:20072B0090E6BAE0FCA3E0FDA3E0FEA3E08C828D838EF01212FF7582012290E6B8E0FFBF79
:20074B00C002800302098E90E6BAE0FF90E6BBE0FE90E6BCE0FD90E6BDE0FCEF24FB400521
:20076B00EE24F850047582002290E6A0E0FB20E1F88EF005F07401800225E0D5F0FBF51DCC
:20078B008D1E8C1F8F82120391AF8290E740EFF090E68AE4F00000000090E68B7401F075CB
:2007AB0082012290E6B8E0FFBF4002800302098E90E6BCE0FF90E6BDE0FEEF7004758201E2
:2007CB00221FBF0400501590E6BAE0FDEEC454F024802DF51D8F82120A07800DEEC454F008
:2007EB002480F51D8F82120A077582012290E6B8E0FFBFC00280030208E090E6BBE0FE7F61
:20080B000090E6BAE0FD7C0090E000ED4FF0EC4EA3F090E6BFE0FE7F0090E6BEE0FD7C00BC
:20082B0090E002ED4FF0EC4EA3F090E002E0FEA3E0FF4E700302098A90E6A0E0FF20E1F82C
:20084B0090E002E0FEA3E0FFC3EE9440EF940040047E407F007D008D037C00C3EB9EEC9FD2
:20086B005010ED2440F582E434E7F5837423F00D80E590E6BCE024FF920790E000E0FCA318
:20088B00E0FD8E037524407525E78B238C828D83C007C006C005C004C003121352D003D0C6
:2008AB0004D005D006D00790E68AE4F00000000090E68BEBF090E000EE2CF0EF3DA3F0902E
:2008CB00E002E0FCA3E0FD90E002ECC39EF0ED9FA3F002083590E6B8E0FFBF40028003022F
:2008EB00098A90E6BBE0FE7F0090E6BAE0FD7C0090E004ED4FF0EC4EA3F090E6BFE0FE7F44
:20090B000090E6BEE0FD7C0090E006ED4FF0EC4EA3F090E006E0FEA3E0FF4E606290E68BE9
:20092B00E4F090E6A0E0FF20E1F890E68BE0FF7E0090E6BCE024FF920890E004E0FCA3E0EA
:20094B00FD8F267527407528E78C828D83C007C006C005C004121440D004D005D006D0078A
:20096B0090E004EF2CF0EE3DA3F090E006E0FCA3E0FD90E006ECC39FF0ED9EA3F080937503
:07098B0082012275820022A7
:011BF10000F3
:200992008582087582012285088222E582FF7014AD1DAE1EAF1F8D828E838FF0E4121A618D
:2009B2007582012275820022E582FF7044E51D704090E6837401F0E0FF90E68374204FF01D
:2009D20090E6837411F0E0FF90E68374204FF090E6837402F0E0FF90E68374204FF090E66C
:1509F200837416F0E0FF90E68374204FF0758201227582002215
:200A0700AF827D777E0AEF75F003A42416F58274E035F0F583E0FBA3E0FCA3E0FF8B828C10
:200A2700838FF0121AECF9A3121AECFA74022BFBE43CFC90E008E9F0EAA3F090E008E0F910
:200A4700A3E0FA496029E92DF582EA3EF583E51DF08B828C838FF0121AECF9A3121AECFAC0
:100A6700A3AB82AC8390E008E9F0EAA3F080CC2244
:201B0D00BA000000C700D000D900E200EB00F400FD0006017A02BB0500002F0036003D00EB
:201B2D0044004B0052005900600075007C0083008A00910098009F00A600CA00D300DC0019
:201B4D00E500EE00F7000001090170022E04A105FC060000160066022404B90512070000DA
:201B6D001000250029003100340038003B003F004200460049004D005000540057005B006F
:201B8D005E0062006500700077007A007E008100850088008C008F00930096009A009D002B
:201BAD00A100A400A800AC00B700BC00C000CC00CE00D500D700DE00E000E700E900F00088
:201BCD00F200F900FB00020104010B010E0189028B0237043904CA05CC05140716079008EF
:041BED009D0800004F
:0F1BF200111B80271B80611B806D1B800D1B80CA
:200A7700AC82AD83AEF0FFAB1D8B021BEA6019C2B3EC13920092B2EFC313FFEE13FEED1384
:200A9700FDEC13FCD2B380E1C2B322E5821392B1D2B313C2B392B1D2B313C2B392B1D2B3E8
:200AB70013C2B392B1D2B313C2B392B1D2B313C2B392B1D2B313C2B392B1D2B313C2B392C5
:200AD700B1D2B300C2B322759AE7759B80A882C2B3E59C1392B1D2B313C2B392B1D2B3134E
:200AF700C2B392B1D2B313C2B392B1D2B313C2B392B1D2B313C2B392B1D2B313C2B392B1E7
:200B1700D2B313C2B392B1D2B3D8C4C2B322759AE7759B80A882C2B3859C80D2B3D8F7C2DA
:200B3700B322AF82E582A2B01392B1D2B3C2B3A2B01392B1D2B3C2B3A2B01392B1D2B3C2FE
:200B5700B3A2B01392B1D2B3C2B3A2B01392B1D2B3C2B3A2B01392B1D2B3C2B3A2B01392EE
:200B7700B1D2B3C2B3A2B01392B1D2B300C2B3F582228F8222AF82AE83ADF0FC90E025EFC6
:200B9700F0EEA3F0EDA3F0ECA3F090E029E51DF090E02AE51EF02290E025E0FCA3E0FDA300
:200BB700E0FEA3E0FFEC4D4E4F7003020DA3E5BA20E1FBE5BA20E2FB90E025E0FCA3E0FD9B
:200BD700A3E0FEA3E0FFC3ED9402EE9400EF9400B3E433FB600A780079027A007B00800811
:200BF7008C008D018E028F0390E68DE0FF750980750AE7750BC0750CE790E025E0FBA3E0C1
:200C1700FCA3E0FDA3E0FE880D890EE4F50FF510EBB50D0EECB50E0AEDB50F06EEB51002C7
:200C37008003020D20E824FFFDE934FFFE5305F888048D03ECC39BFCEEC423CDC423541F1B
:200C57006DCD541FCD6DCDFE8D061DEE603FAB0BAE0C850982850A83E0FA0509E4B5090270
:200C7700050A8A82C007C006C005C004C003120B39AA82D003D004D005D006D0078B828E23
:200C970083EAF0050BE4B50BBF050C80BB850982850A83E0FE0509E4B50902050A90E00BE5
:200CB700EEF090E00AE4F090E00C7401F08C0690E00CE0FD6043EE60401E90E02AE0FD302F
:200CD700E005EE7002D2B290E00BE0FD13920192B1EDC313FD90E00BF030B00C90E00CE080
:200CF700FD90E00AE0FC4DF0D2B3C2B390E00CE025E0FD90E00CF080B6AD0BAE0C90E00A67
:200D1700E0FC8D828E83F08051E9C423C8C423541F68C8541FC868C8F9880618EE603BAD9D
:200D37000BAE0C850982850A83E0FC0509E4B50902050A8C82C007C006C005C000120B39A2
:200D5700AC82D000D005D006D0078D828E83ECF0050BE4B50BC3050C80BF90E68DE4F090D2
:200D7700E68FEFF090E025E0FCA3E0FDA3E0FEA3E0FF90E025ECC3950DF0ED950EA3F0EE2D
:200D9700950FA3F0EF9510A3F0020BAE90E029E4F02290E025E0FCA3E0FDA3E0FEA3E0FFA0
:200DB700EC4D4E4F7003020EF1E5BA20E1FB90E025E0FCA3E0FDA3E0FEA3E0FFC3ED9402FD
:200DD700EE9400EF9400B3E433FB600A780079027A007B0080088C008D018E028F0390E6A6
:200DF7008DE090E025E0FCA3E0FDA3E0FEA3E0FF88118912E4F513F514ECB5110EEDB512DE
:200E17000AEEB51306EFB514028003020EBE750980750AE7E824FFFEE934FFFF5306F88E83
:200E370005E8C39DFDEFC423CEC423541F6ECE541FCE6ECEFF8E071EEF601F850982850ADB
:200E570083E0FF0509E4B50902050A8F82C006C005120AA2D005D00680DB850982850A83D6
:200E7700E090E00DF090E00E7401F08D0790E00EE0FE6039EF60361F90E02AE0FE30E00571
:200E9700EF7002D2B290E00DE0FE13920292B1EEC31390E00DF0D2B3C2B390E00EE025E083
:200EB700FE90E00EF080C6758240120ADE90E68DE4F090E025E0FCA3E0FDA3E0FEA3E0FF6D
:200ED70090E025ECC39511F0ED9512A3F0EE9513A3F0EF9514A3F0020DA990E029E4F0225F
:200EF70090E02AE0FF30E1047FFF80027F00EF13920390E025E0FBA3E0FCA3E0FDA3E0FE47
:200F1700EB4C4D4E70030210C5E5BA20E2FB90E025E0FBA3E0FCA3E0FDA3E0FEC3EC9402CD
:200F3700ED9400EE9400B3E433FA600CE4F515751602F517F51880088B158C168D178E18BF
:200F5700AD15AE168D03EEC423CBC423541F6BCB541FCB6BCBFCED540760027401FCC007E2
:200F7700EC2BFC750BC0750CE790E025E0F8A3E0F9A3E0FAA3E0FF8D158E16E4F517F51874
:200F9700E8B5150EE9B5160AEAB51706EFB518028005D007021061D007ED24FFF9EE34FF72
:200FB700FA5301F88906EDC39EFEEAC423C9C423541F69C9541FC969C9FA890519ED603344
:200FD700AA0BAD0C8F82C007C006C005C004C002C001120B39A882D001D002D004D005D046
:200FF70006D0078A828D83E8F0050BE4B50BCB050C80C790E00FE4F090E0107401F0A20355
:2010170092B190E010E0FD6031EE602E1E90E02AE0FD30E005EE7002D2B230B00C90E01012
:20103700E0FD90E00FE0FA4DF0D2B3C2B390E010E025E0FD90E010F080C8AD0BAE0C90E030
:201057000FE0FA8D828E83F080378B068E051EED602FAB0BAD0C8F82C007C006C005C00475
:20107700C003120B39AA82D003D004D005D006D0078B828D83EAF0050BE4B50BCF050C80E0
:20109700CB90E68FECF090E025E0FBA3E0FCA3E0FDA3E0FE90E025EBC39515F0EC9516A386
:2010B700F0ED9517A3F0EE9518A3F0020F0990E029E4F02290E02AE0FF30E1047FFF800298
:2010D7007F00C00790E025E0FBA3E0FCA3E0FDA3E0FEEB24FFF8EC34FFF9ED34FFFAEE3469
:2010F700FFFF5300F8880690E011EBC39EF08819E9C423C519C423541F6519C519541FC508
:20111700196519C519F51AEAC42354E0451AF51A8A1BEFC423C51BC423541F651BC51B5458
:201137001FC51B651BC51BF51CD007AB19AC1AAD1BAE1C151974FFB5190C151AB51A0715A0
:201157001BB51B02151CEB4C4D4E600B8F82C007120AA2D00780D4EF13920492B190E01100
:20117700E0FFEF60141F90E02AE0FE30E005EF7002D2B2D2B3C2B380E990E029E4F0229003
:20119700E025E0FCA3E0FDA3E0FEA3E0FFEC4D4E4F6051E5BA20E1FB90E68DE0FF30050B90
:2011B7008F82C007120B25D00780098F82C007120ADED00790E68DE4F090E025E0FBA3E02B
:2011D700FCA3E0FDA3E0FE8F0079007A007F0090E025EBC398F0EC99A3F0ED9AA3F0EE9F70
:2011F700A3F0809B90E029E4F02290E025E0FCA3E0FDA3E0FEA3E0FFEC4D4E4F700302124A
:20121700B7E5BA20E2FB90E025E0FCA3E0FDA3E0FEA3E0FFC3EC9440ED9400EE9400EF9467
:2012370000B3E433FB600A784079007A007B0080088C008D018E028F03750BC0750CE7884E
:2012570007EF602DAD0BAE0C758200C007C006C005C000120B39AC82D000D005D006D007A3
:201277008D828E83ECF0050BE4B50B02050C1F80D090E68FE8F090E025E0FCA3E0FDA3E0D4
:20129700FEA3E0FF79007A007B0090E025ECC398F0ED99A3F0EE9AA3F0EF9BA3F002120117
:2012B70090E029E4F02290E029E0FF24F8500122EF240A83F582EF240C83F583E473FEE516
:2012D700E8EBEEF1F6FB1212121212121212020BAE020DA9020EF70210CBD205021196C22B
:2012F7000502119612120122AA82AB83ACF0FDD2B30000000000000000000000C2B30000F5
:15131700000000001ABAFFE71BBBFFE31CBCFFDF1DBDFFDB22C3
:061C0100000000000000DD
:20132C0090E678E0FF30E0F8EF30E202D322C32290E678E0FF30E0F8EF30E202D322EF2013
:20134C00E102D322C322AE82AF833007047DAA80027DA290E678E0FC20E6F890E6787480B5
:20136C00F090E679EDF0C007C006C00512133CD005D006D0075002D3228F0490E679ECF0CB
:20138C00C007C006C00512133CD005D006D0075002D32290E679EEF0C00512133CD00550AD
:2013AC0002D32290E6787480F090E67974014DF012132C5002D32290E679E012132C5002AD
:2013CC00D3227F00AD237E001DBDFF011E8F037C00C3EB9DEC64808EF063F08095F0501FD9
:2013EC00EF2524FDE43525FE90E679E08D828E83F0C00712132CD0075002D3220F80C59077
:20140C00E6787420F0C00712132CD0075002D322EF2524FFE43525FE90E679E08F828E8344
:20142C00F012132C5002D32290E6787440F090E679E0C322AE82AF833008047DAA80027D0E
:20144C00A290E678E0FC20E6F890E6787480F090E679EDF0C007C006C00512133CD005D020
:20146C0006D0075002D3228F0490E679ECF0C007C006C00512133CD005D006D0075002D384
:20148C002290E679EEF0C00512133CD0055002D322AE27AF287C00C3EC9526502A8E828F64
:2014AC0083E0FBA3AE82AF8390E679EBF0C007C006C005C00412132CD004D005D006D00736
:2014CC005002D3220C80D090E678E0FF4440F090E678E0FF20E6F890E6787480F090E67990
:2014EC00EDF0C00512132CD0055002D32290E678E0FF4440F090E678E0FF20E6F890E678D7
:07150C00E0FF30E1D2C32231
:201E00001201000200000040501D2B6002000102000109022E0001010080FA0904000004A9
:201E2000FF0000000705010200020007058102000200070502020002000705860200020059
:201E40000A0600020000004001000902190001010080320904000001FFFFFF000705060238
:031E60000002007D
:201E64000403090414034D0061006B006500530074007500660066002C03460050004700A1
:201E840041004C0069006E006B002F00460058003200200032003000310034003000330026
:061EA400310031000000D6
:040000000201B9320E
:01000B0032C2
:0100130032BA
:01001B0032B2
:0100230032AA
:01002B0032A2
:0300330002156B48
:01003B003292
:01004300328A
:01004B003282
:01005300327A
:01005B003272
:01006300326A
:03006B0002156E0D
:03007300021A600E
:03007B0002165D0D
:030083000216332F
:03008B00021595C6
:030093000215E46F
:03009B0002165AF0
:0300A300021A8AB4
:0300AB00021A8BAB
:0300B300021A8CA2
:0300BB00021A8F97
:0300C300021A5FBF
:0300CB00021A7C9A
:0300D300021A7D91
:0300DB00021A7F87
:0300E30002165FA3
:0300EB00021B08ED
:0300F30002165B97
:0300FB0002165C8E
:0301030002165E83
:03010B0002166079
:0301130002166170
:03011B00021AEBDA
:03012300021A8835
:03012B00021A8D28
:03013300021A901D
:03013B00021A9213
:03014300021A8914
:03014B00021A8E07
:03015300021A91FC
:03015B00021A93F2
:03016300021AEA93
:03016B00021A80F5
:03017300021A82EB
:03017B00021A84E1
:03018300021A86D7
:03018B00021A81D4
:03019300021A83CA
:03019B00021A85C0
:0301A300021A87B6
:0301AB00021A7EB7
:0301B300021A5ECF
:04021200C209C20A51
:030228000201B61A
:0301B6000215131C
:20151300120243E500D2E890E668E04408F090E65CE04401F090E65CE04410F090E65CE039
:201533004420F090E65CE04408F0D2DDD2AF90E680E0FF20E11590E680E0440AF09005DCB6
:20155300121A9490E680E0FF54F7F012038E10090280F812166280F3C2DC32C0E0C082C003
:2015730083C007C0D075D000D209AF9174EF5FF59190E65D7401F0D0D0D007D083D082D0B2
:20159300E032C022C0E0C0F0C082C083C007C006C005C004C003C002C001C000C0D075D07E
:2015B3000075820012194EAF9174EF5FF59190E65D7410F0D0D0D000D001D002D003D0041F
:2015D300D005D006D007D083D082D0F0D0E0D02232C022C0E0C0F0C082C083C007C006C039
:2015F30005C004C003C002C001C000C0D075D00075820112194EAF9174EF5FF59190E65D68
:201613007420F0D0D0D000D001D002D003D004D005D006D007D083D082D0F0D0E0D02232BE
:20163300C0E0C082C083C007C0D075D000D20AAF9174EF5FF59190E65D7408F0D0D0D007BC
:07165300D083D082D0E03209
:01165A00325D
:01165B00325C
:01165C00325B
:01165D00325A
:01165E003259
:01165F003258
:011660003257
:011661003256
:0601E800E478FFF6D8FDEB
:12021600752A00752B00752C4A752D1E752E12752F1E75
:2016620090E6B9E0FF24F4500302175DEF240A83F582EF241083F583E47394A95DBE5D5DDB
:20168200D35DD9F10B3F1616171617171617161617171217D4E582600302177290E6A0E0AE
:2016A200FF4401F002177212185DE582600302177290E6A0E0FF4401F00217721218CBE5FE
:2016C20082600302177290E6A0E0FF4401F0021772121979021772120999AF8290E740EF29
:2016E200F090E68AE4F090E68B7401F002177290E6BAE0F582120992E5826003021772901A
:20170200E6A0E0FF4401F0806790E6BCE0FF751D29751E00751F408F8212099DE582700A69
:2017220090E6A0E0FF4401F0804690E740E529F090E68AE4F090E68B7401F0803390E6BCE3
:20174200E0FF90E6BAE0F51D8F821209BAE582701F90E6A0E0FF4401F0801590E6B9E0F5E7
:20176200821205BFE582700890E6A0E0FF4401F090E6A0E04480F022AF828F0653067FEEAE
:2017820024F750030217D0EE240A83F582EE240D83F583E473A9ADC0D0C4D0C8D0CC17175D
:2017A2001717171717171790E6A022EF30E7067EA27FE680047EA17FE68E828F832290E6FB
:2017C200A32290E6A42290E6A52290E6A6229000002290E6B8E0FFBF8002801FBF8102802A
:2017E20005BF826F803490E740E4F090E741F090E68AF090E68B7402F0805CE52B25E0FF04
:20180200E52A420790E740EFF090E741E4F090E68AF090E68B7402F0803D90E6BCE0F582AF
:2018220012177AAE82AF83EE4F7003F582228E828F83E0FE30E0047F0180027F0090E7400C
:20184200EFF090E741E4F090E68AF090E68B7402F08004758200227582012290E6B8E0FF00
:201862006005BF0257801190E6BAE0FFBF0105752B0080517582002290E6BAE0703A90E6CA
:20188200BCE0F58212177AAE82AF83E0FD5305FE8E828F83EDF090E6BCE0FF53070F90E60C
:2018A200BCE05480C423541FFE90E6832FF090E683E0FF4420F0800D7582002290E6B9E065
:2018C200F5820205BF7582012290E6B8E0FF6005BF026C801B90E6BAE0FFBF02028069902A
:2018E200E6BAE0FFBF0105752B01805C7582002290E6BAE0704590E6BCE0F58212177AAE6D
:2019020082AF83EE4F7003F582228E828F83E0FD4305018E828F83EDF090E6BCE0FF530716
:201922000F90E6BCE05480C423541FFE90E6832FF090E683E0FF4420F0800D7582002290DE
:20194200E6B9E0F5820205BF75820122AF82D20B10AF02C20BEF600E752C12752D1E752EA0
:201962004A752F1E800C752C4A752D1E752E12752F1EA20B92AF2290E6BBE0FFBF01028049
:2019820019BF02028029BF03028033BF0603021A32BF0703021A47021A567E007F1E8F06E5
:2019A20090E6B3EEF07E007F1E90E6B4EEF022AF2D90E6B3EFF0AE2C90E6B4EEF0227E640F
:2019C2007D1E7F8090E6BAE0F51D7B008B020BEAB51D0280428E008D018F028E828D838F5A
:2019E200F0121AEC28F8E439F9880689058A0774012EF9E43DFA8F0489828A838CF0121AF0
:201A0200ECF9B9030280067E007D007F00EE4D6006C3E51D9B50B5EE4D600D8D0790E6B3B6
:201A2200EFF090E6B4EEF02290E6A0E04401F0227E407F1E8F0690E6B3EEF07E407F1E906C
:1C1A4200E6B4EEF022AF2F90E6B3EFF0AE2E90E6B4EEF02290E6A0E04401F022B5
:2001C6007916E94400601B7A01901BF178157592E0E493F2A308B800020592D9F4DAF275E4
:0201E60092FF86
:011A5E003255
:011A5F003254
:011A60003253
:1B1A610020F71130F6138883A88220F509F6A8837583002280FEF280F5F02284
:011A7C003237
:011A7D003236
:011A7E003235
:011A7F003234
:03004300021F0099
:201F000002156E00021A600002165D0002163300021595000215E40002165A00021A890042
:201F2000021A8A00021A8B00021A8C00021A8F00021A5F00021A7C00021A7D00021A7F00BA
:201F400002165F00021A8900021B080002165B0002165C0002165E000216600002166100F2
:201F6000021AEB00021A8900021A8900021A8900021A8800021A8D00021A9000021A9200C4
:201F8000021A8E00021A9100021A9300021AEA00021A8000021A8200021A8400021A8600B9
:181FA000021A8100021A8300021A8500021A8700021A7E00021A5E0095
:011A80003233
:011A81003232
:2001EE007800E84400600A79007592E0E4F309D8FC7815E84400600C790190E000E4F0A349
:04020E00D8FCD9FA45
:011A82003231
:011A83003230
:011A8400322F
:011A8500322E
:011A8600322D
:011A8700322C
:011A8800322B
:011A8900322A
:011A8A003229
:011A8B003228
:011A8C003227
:011A8D003226
:011A8E003225
:011A8F003224
:011A90003223
:011A91003222
:011A92003221
:011A93003220
:201A9400AE82AF8390E600E05418C423541FFDB40100E433FD60067CB17D00801C90E600CC
:201AB400E05418C423541FFBBB01067A617B0180047AC27B028A048B058C1D8D1E151D7403
:161AD400FFB51D02151EE51D451E70F11EBEFF011FEE4F70E42282
:011AEA0032C9
:011AEB0032C8
:0D01B90075812F121B09E58260030201B65B
:1C1AEC0020F71430F6148883A88220F507E6A88375830022E280F7E49322E02209
:011B080032AA
:041B090075820022BF
:00000001FF
