:0E022D00AA8290E6C2E4F0BA010790E60174DE
:03023B00E3F022CB
:07023E0090E60174E0F022DC
:0E02450090E680E0440AF09005DC121A20904A
:0E025300E680E0FA54F7F090E6827445F0740D
:0E02610045F090E670E4F00000000090E60228
:0E026F00E4F00000000090E603E4F000000060
:0E027D000090E609E4F00000000090E60B742B
:0E028B0003F00000000090E6007410F0000088
:0D029900000090E60174E0F000000000900D
:0E02A600E613E4F00000000090E615E4F0001E
:0D02B40000000090E619E4F000000000904A
:0E02C100E61BE4F00000000090E61074A0F0D0
:0E02CF000000000090E61174A0F00000000096
:0E02DD0090E61274A0F00000000090E6147489
:0E02EB00E0F00000000090E6047480F00000D7
:0D02F900000090E6047402F0000000009088
:0E030600E6047406F00000000090E604E4F047
:0E03140090E68DF00000000090E6497482F043
:0E0322000000000090E6497482F00000000028
:0E03300090E6497482F00000000090E64974E7
:0E033E0082F00000000090E6187410F000003D
:0D034C00000090E61A7408F0000000009018
:0E035900E6247402F00000000090E625E4F0B7
:0E03670090E67AE04401F075AF077580FF75EF
:0E037500B2007590FF75B30075A0FF75B4005F
:0D03830075B0FF75B50075B1FF75B60022AD
:030390000211FC5B
:0C039300AA827B00EA24FB50030205BE96
:07039F00EA2A2A9003A6736D
:0703A6000203B502041E0270
:0603AD0004870204F002C7
:0203B3000558EB
:0A03B500E51645B2602AE51760075F
:0703BF00E51645B2FA8007C4
:0703C600E516F4FC55B2FA44
:0A03CD008AB2E5186007E5164580C6
:0303D700FA8007A2
:0703DA00E516F4FC5580FA62
:0403E1008A80802866
:0A03E500E5186007E5164580FA8070
:0103EF000706
:0703F000E516F4FC5580FA4C
:0A03F7008A80E5176007E51645B29D
:03040100FA800777
:07040400E516F4FC55B2FA05
:02040B008AB2B3
:0A040D00E516558060047A018002B4
:020417007A0069
:050419008A030205BE8C
:0A041E00E51645B3602AE5176007F4
:07042800E51645B3FA800759
:07042F00E516F4FC55B3FAD9
:0A0436008AB3E5186007E51645904B
:03044000FA800738
:07044300E516F4FC5590FAE8
:04044A008A908028EC
:0A044E00E5186007E5164590FA80F6
:01045800079C
:07045900E516F4FC5590FAD2
:0A0460008A90E5176007E51645B322
:03046A00FA80070E
:07046D00E516F4FC55B3FA9B
:020474008AB349
:0A047600E516559060047A0180023B
:020480007A0000
:050482008A030205BE23
:0A048700E51645B4602AE51760078A
:07049100E51645B4FA8007EF
:07049800E516F4FC55B4FA6F
:0A049F008AB4E5186007E51645A0D1
:0304A900FA8007CF
:0704AC00E516F4FC55A0FA6F
:0404B3008AA0802873
:0A04B700E5186007E51645A0FA807D
:0104C1000733
:0704C200E516F4FC55A0FA59
:0A04C9008AA0E5176007E51645B4A8
:0304D300FA8007A5
:0704D600E516F4FC55B4FA31
:0204DD008AB4DF
:0A04DF00E51655A060047A018002C2
:0204E9007A0097
:0504EB008A030205BEBA
:0A04F000E51645B5602AE517600720
:0704FA00E51645B5FA800785
:07050100E516F4FC55B5FA04
:0A0508008AB5E5186007E51645B056
:03051200FA800765
:07051500E516F4FC55B0FAF5
:04051C008AB08028F9
:0A052000E5186007E51645B0FA8003
:01052A0007C9
:07052B00E516F4FC55B0FADF
:0A0532008AB0E5176007E51645B52D
:03053C00FA80073B
:07053F00E516F4FC55B5FAC6
:020546008AB574
:0A054800E51655B060047A01800248
:020552007A002D
:040554008A03806630
:0A055800E51645B6602AE5176007B6
:07056200E51645B6FA80071B
:07056900E516F4FC55B6FA9B
:0A0570008AB6E5186007E51645B1EC
:03057A00FA8007FD
:07057D00E516F4FC55B1FA8C
:040584008AB1802890
:0A058800E5186007E51645B1FA809A
:010592000761
:07059300E516F4FC55B1FA76
:0A059A008AB1E5176007E51645B6C3
:0305A400FA8007D3
:0705A700E516F4FC55B6FA5D
:0205AE008AB60B
:0A05B000E51655B160047A018002DF
:0205BA007A00C5
:0205BC008A03B0
:0305BE008B82220B
:0705C100AA82BA8002802724
:0605C800BA810302069750
:0605CE00BA82030206D907
:0605D400BA8303020715C3
:0605DA00BA850302073C94
:0605E000BA86030207A524
:0605E600BAA2030207E7C0
:0305EC0002097D84
:0E05EF0090E6B8E0FABA402690E6BBE0FB7A50
:0D05FD000090E6BAE07D004202ED4203905E
:0E060A00E6BCE0FCEA4B70078C8212022D80E9
:010618007A67
:0406190075820022C4
:0E061D0090E6A0E0FA20E1F890E740744EF07D
:0D062B0090E7417445F090E742744DF09067
:0E063800E7437449F090E015E0FA90E744F0D3
:09064600E58030E2047A00800234
:02064F007A012E
:0E06510090E745EAF090E7467411F090E74715
:0D065F007426F090E748E4F090E749F09031
:0D066C00E74AF090E74BF090E74CE4F09087
:0E067900E74DF090E74EF090E74FF090E68AE4
:0C068700E4F00000000090E68B7410F01E
:040693007582012249
:0A06970090E6B8E0FABA40028003D2
:0306A10002097DCE
:0506A40090E68BE4F07C
:0E06A90090E6A0E0FA20E1F890E740E0FAA326
:0D06B700E0FBA3E0FCA3E0FD90E6BCE0F555
:0A06C4001690E6BAE0F5178A828B63
:0B06CE00838CF0ED120B787582012286
:0A06D90090E6B8E0FABA4002800390
:0306E30002097D8C
:0506E60090E68BE4F03A
:0E06EB0090E6A0E0FA20E1F890E740E0FAA3E4
:0D06F900E0FBA3E0FCA3E0FD90E6BAE0F515
:0C070600168A828B838CF0ED120A657558
:030712008201223F
:0A07150090E6B8E0FABA4002800353
:03071F0002097D4F
:0E07220090E6BAE0FAA3E0FBA3E0FCA3E08AB5
:0C073000828B838CF0121238758201223B
:0A073C0090E6B8E0FABAC0028003AC
:0307460002097D28
:0E07490090E6BAE0FA90E6BBE0FB90E6BCE07A
:0E075700FC90E6BDE0FDEA24FB4005EB24F833
:0207650050043E
:040767007582002275
:0E076B0090E6A0E0FE20E1F88BF005F07401AE
:020779008002FC
:02077B0025E077
:08077D00D5F0FBF5168C178D79
:0C078500188A82120393AA8290E740EACF
:0E079100F090E68AE4F00000000090E68B7421
:06079F0001F07582012249
:0A07A50090E6B8E0FABA40028003C3
:0307AF0002097DBF
:0D07B20090E6BCE0FA90E6BDE0FBBA040062
:0E07BF00501590E6BAE0FCEBC454F024802CF8
:0907CD00F5168A821209F6800D6E
:0B07D600EBC454F02480F5168A821258
:0207E10009F617
:0407E30075820122F8
:0A07E70090E6B8E0FABAC002800301
:0307F1000208CF2C
:0E07F40090E6BBE0FB7A0090E6BAE0FC7D00E8
:0E08020090E000EC4AF0ED4BA3F090E6BFE072
:0E081000FB7A0090E6BEE0FC7D0090E002EC7A
:06081E004AF0ED4BA3F0CF
:0E08240090E002E0FAA3E0FB4A7003020979BB
:0E08320090E6A0E0FA20E1F890E002E0FAA3E0
:0E084000E0FBC3EA9440EB940040047A407B56
:01084E0000A9
:02084F007C002B
:0E0851008C057E00C3ED9AEE9B5010EC244007
:0D085F00F582E434E7F5837423F00C80E5A6
:0C086C0090E6BCE024FF920290E000E067
:0A087800FCA3E0FD8A06750A407536
:0A0882000BE78E098C828D83C00203
:0E088C00C003C004C005C00612128BD006D0F7
:0E089A0005D004D003D00290E68AE4F00000FE
:0E08A800000090E68BEEF090E000EA2CF0EB02
:0E08B6003DA3F090E002E0FCA3E0FD90E00224
:0B08C400ECC39AF0ED9BA3F0020824A7
:0A08CF0090E6B8E0FABA4002800398
:0308D90002097998
:0E08DC0090E6BBE0FB7A0090E6BAE0FC7D00FF
:0E08EA0090E004EC4AF0ED4BA3F090E6BFE086
:0E08F800FB7A0090E6BEE0FC7D0090E006EC8E
:060906004AF0ED4BA3F0E6
:0E090C0090E006E0FAA3E0FB4A606290E68B02
:02091A00E4F007
:0E091C0090E6A0E0FA20E1F890E68BE0FA7B8E
:0C092A000090E6BCE024FF920390E00483
:0A093600E0FCA3E0FD8A0C750D4003
:0C094000750EE78C828D83C002C003C0DE
:0E094C0004C005121377D005D004D003D002EA
:0E095A0090E004EA2CF0EB3DA3F090E006E004
:0E096800FCA3E0FD90E006ECC39AF0ED9BA32B
:03097600F080937B
:040979007582012260
:04097D00758200225D
:011B7D000067
:070981008582087582012246
:04098800850882223A
:0A098C00E582FA7014AA16AB17AC4E
:0C099600188A828B838CF0E41219EF7534
:0309A200820122AD
:0409A5007582002235
:0C09A900E582FA7044E516704090E68389
:0D09B5007401F0E0FA90E68374204AF0909F
:0E09C200E6837411F0E0FA90E68374204AF0A8
:0E09D00090E6837402F0E0FA90E68374204A09
:0E09DE00F090E6837416F0E0FA90E683742041
:0609EC004AF075820122B1
:0409F20075820022E8
:0A09F600AA827B657C0AEA75F00313
:0A0A0000A42416F582E434E0F58327
:0E0A0A00E0FAA3E0FDA3E0FE8A828D838EF069
:0E0A1800121A78FFA3121A78F874022AFAE470
:0A0A26003DFD90E008EFF0A3E8F0BA
:0E0A300090E008E0FFA3E0F84F6029EF2BF5FF
:0C0A3E0082E83CF583E516F08A828D8387
:0E0A4A008EF0121A78FFA3121A78F8A3AA826F
:0C0A5800AD8390E008EFF0A3E8F080CC44
:010A6400226F
:041A9900B800000091
:0E1A9D00C500CE00D700E000E900F200FB001B
:081AAB0004017602BD050000F4
:0E1AB3002D0034003B00420049005000570057
:0E1AC1005E0073007A00810088008F0096009E
:0E1ACF009D00A400C800D100DA00E300EC0086
:0E1ADD00F500FE0007016C022A04A3050B07AA
:021AEB000000F9
:0C1AED00140064022204BB052107000065
:0E1AF9001000230027002F00320036003900B5
:0E1B07003D004000440047004B004E005200DD
:0E1B1500550059005C00600063006E00750012
:0E1B230078007C007F00830086008A008D0021
:0E1B31009100940098009B009F00A200A60067
:0E1B3F00AA00B500BA00BE00CA00CC00D30058
:0E1B4D00D500DC00DE00E500E700EE00F00051
:0E1B5B00F700F9000001020109010C018502EA
:0E1B6900870233043504CC05CE05230725077B
:061B7700DB07E807000097
:031B7E009D1A802D
:031B8100B31A8014
:031B8400ED1A80D7
:031B8700F91A80C8
:031B8A00991A8025
:090A6500AA82AB83ACF0FDAE16D1
:0E0A6E008E071EEF6017C2B3EA1392B2EDC3FB
:0E0A7C0013FDEC13FCEB13FBEA13FAD2B3806C
:010A8A00E388
:030A8B00C2B322D1
:0E0A8E00E5821392B1D2B313C2B392B1D2B3C8
:0E0A9C0013C2B392B1D2B313C2B392B1D2B3AC
:0E0AAA0013C2B392B1D2B313C2B392B1D2B39E
:0E0AB80013C2B392B1D2B313C2B392B1D2B390
:040AC60000C2B32295
:080ACA00759AE7759B80A88274
:0E0AD200C2B3E59C1392B1D2B313C2B392B17A
:0E0AE000D2B313C2B392B1D2B313C2B392B168
:0E0AEE00D2B313C2B392B1D2B313C2B392B15A
:0E0AFC00D2B313C2B392B1D2B313C2B392B14C
:070B0A00D2B3D8C4C2B3222C
:080B1100759AE7759B80A8822C
:0C0B1900C2B3859C80D2B3D8F7C2B322CF
:0E0B2500AA82E582A2B01392B1D2B3C2B3A2EB
:0E0B3300B01392B1D2B3C2B3A2B01392B1D23A
:0E0B4100B3C2B3A2B01392B1D2B3C2B3A2B08A
:0E0B4F001392B1D2B3C2B3A2B01392B1D2B31B
:0E0B5D00C2B3A2B01392B1D2B3C2B3A2B0130E
:0D0B6B0092B1D2B300C2B3F582228A822279
:0E0B7800AA82AB83ACF0FD90E025EAF0A3EB7F
:0C0B8600F0A3ECF0A3EDF090E029E516E0
:080B9200F090E02AE517F022C3
:0E0B9A0090E025E0FAA3E0FBA3E0FCA3E0FD61
:090BA800EA4B4C4D7003020D8F65
:050BB100E5BA20E1FBA4
:0E0BB600E5BA20E2FB90E025E0FAA3E0FBA305
:0E0BC400E0FCA3E0FDC3EB9402EC9400ED9482
:0E0BD20000B3E433FE600A7E007F02780079F3
:030BE0000080088A
:080BE3008A068B078C008D01CE
:0A0BEB0090E68DE0FA752280752374
:080BF500E77524C07525E790A7
:0E0BFD00E025E0FBA3E0FCA3E0FDA3E0F88E02
:050C0B00268F27E4F52F
:050C100028F529EBB5F9
:080C1500260EECB5270AEDB52F
:080C1D002806E8B52902800356
:030C2500020D0AB3
:0E0C2800EE24FFFBEF34FFFC5303F88E058B28
:0E0C360000EDC398FDECC423CBC423541F6B08
:070C4400CB541FCB6BCBFC6E
:0A0C4B008B041BEC603FAC24A825CD
:090C5500852282852383E0F90564
:060C5E0022E4B5220205AC
:010C6400236C
:0D0C65008982C002C003C004C005C0001297
:0E0C72000B25A982D000D005D004D003D002FB
:0A0C80008C828883E9F00524E4B5B6
:060C8A0024BF052580BB1C
:090C9000852282852383E0FB0527
:060C990022E4B522020571
:010C9F002331
:0B0CA00090E00BEBF090E00AE4F09015
:070CAB00E00C7401F08D0361
:0E0CB20090E00CE0FC6041EB603E1B90E02AFD
:0A0CC000E0FC30E005EB7002D2B258
:0D0CCA0090E00BE0FC1392B1ECC313FC9022
:0C0CD700E00BF030B00C90E00CE0FC9062
:060CE300E00AE0FD4CF008
:0E0CE900D2B3C2B390E00CE025E0FC90E00C2A
:030CF700F080B8D2
:050CFA00AB24AC2590C5
:0B0CFF00E00AE0FD8B828C83F0805344
:0E0D0A00EFC423CEC423541F6ECE541FCE6EF2
:040D1800CEFF8E0379
:0A0D1C008B041BEC603BAC24AD25FA
:090D2600852282852383E0FE058D
:060D2F0022E4B5220205DA
:010D3500239A
:0E0D36008E82C002C003C004C005120B25AEA1
:0E0D440082D005D004D003D0028C828D83EEC5
:080D5200F00524E4B524C305FB
:030D5A002580BF32
:0E0D5D0090E68DE4F090E68FEAF090E025E05D
:0E0D6B00FAA3E0FBA3E0FCA3E0FD90E025EA84
:0A0D7900C39526F0EB9527A3F0ECDC
:0A0D83009528A3F0ED9529A3F002D6
:020D8D000B9ABF
:060D8F0090E029E4F022CF
:0E0D950090E025E0FAA3E0FBA3E0FCA3E0FD64
:090DA300EA4B4C4D7003020EDB1B
:0E0DAC00E5BA20E1FB90E025E0FAA3E0FBA30E
:0E0DBA00E0FCA3E0FDC3EB9402EC9400ED948A
:0E0DC80000B3E433FE600A7E007F02780079FB
:030DD60000800892
:080DD9008A068B078C008D01D6
:0E0DE10090E68DE090E025E0FAA3E0FBA3E0B1
:0A0DEF00FCA3E0FD8E2A8F2BE4F533
:050DF9002CF52DEAB508
:080DFE002A0EEBB52B0AECB53F
:080E06002C06EDB52D0280035E
:030E0E00020EA829
:0A0E11007522807523E7EE24FFFA36
:0E0E1B00EF34FFFB5302F88A04EEC39CFCEB9D
:0E0E2900C423CAC423541F6ACA541FCA6ACA0B
:010E3700FBBF
:0A0E38008A031AEB601F85228285F1
:080E42002383E0FB0522E4B567
:040E4A002202052358
:0E0E4E008B82C002C004120A8ED004D0028033
:010E5C00DBBA
:080E5D00852282852383E090C9
:0B0E6500E00DF090E00E7401F08C0234
:0E0E700090E00EE0FB6037EA60341A90E02A52
:0A0E7E00E0FB30E005EA7002D2B29A
:0E0E880090E00DE0FB1392B1EBC31390E00D70
:0D0E9600F0D2B3C2B390E00EE025E0FB9077
:050EA300E00EF080C824
:060EA800758240120ACA27
:0E0EAE0090E68DE4F090E025E0FAA3E0FBA3CF
:0C0EBC00E0FCA3E0FD90E025EAC3952ACD
:0A0EC800F0EB952BA3F0EC952CA3A2
:090ED200F0ED952DA3F0020D9541
:060EDB0090E029E4F02282
:0C0EE10090E02AE0FA30E1047AFF800281
:020EED007A0089
:040EEF00EA5401FBC5
:0E0EF30090E025E0FCA3E0FDA3E0FEA3E0FFFD
:090F0100EC4D4E4F70030210B6D6
:0E0F0A00E5BA20E2FB90E025E0FCA3E0FDA3A9
:0E0F1800E0FEA3E0FFC3ED9402EE9400EF9420
:0B0F260000B3E433F8600E752E007578
:060F31002F02753000756F
:040F370031008008FD
:050F3B008C2E8D2F8EAD
:030F4000308F31BE
:0A0F4300AC2EAD2F8C06EDC423CEBA
:0E0F4D00C423541F6ECE541FCE6ECEFFEC5444
:050F5B000760027401B3
:0A0F6000FFC003EF2EF52E7524C02C
:0C0F6A007525E790E025E0F8A3E0F9A36E
:0A0F7600E0FBA3E0FF8C328D33E4B2
:060F8000F534F535E8B57B
:080F8600320EE9B5330AEBB5A8
:080F8E003406EFB535028005C1
:050F9600D00302105120
:0E0F9B00D003EC24FFFFED34FFF85307F88F6E
:0E0FA90005ECC39DFCE8C423CFC423541F6F86
:090FB700CF541FCF6FCFF88F0556
:0A0FC0008D071DEF6033AF24A82554
:0E0FCA008A82C002C003C004C005C007C00078
:0E0FD800120B25A982D000D007D005D004D07E
:0C0FE60003D0028F828883E9F00524E428
:070FF200B524CB052580C7E3
:0E0FF90090E00FE4F090E0107401F0EB24FFA4
:0210070092B1A4
:0E10090090E010E0FD6031EC602E1C90E02ABB
:0A101700E0FD30E005EC7002D2B2FB
:0E10210030B00C90E010E0FD90E00FE0FF4DCD
:01102F00F0D0
:0E103000D2B3C2B390E010E025E0FD90E010D6
:03103E00F080C877
:05104100AC24AD259078
:0B104600E00FE0FF8C828D83F080370C
:021051008E040B
:0A1053008C051CED602FAD24AE25C6
:0D105D008A82C002C003C004C005C0061294
:0E106A000B25AF82D006D005D004D003D002F3
:0A1078008D828E83EFF00524E4B5AD
:0610820024CF052580CB00
:0C10880090E68FE52EF090E025E0FCA340
:0E109400E0FDA3E0FEA3E0FF90E025ECC39595
:0910A20032F0ED9533A3F0EE9558
:0910AB0034A3F0EF9535A3F00227
:0210B4000EF339
:0610B60090E029E4F022A5
:0C10BC0090E02AE0FA30E105753AFF8070
:0110C8000324
:0310C900753A0075
:0E10CC0090E025E0FBA3E0FCA3E0FDA3E0FE26
:0E10DA00EB24FFFFEC34FFF8ED34FFF9EE34A9
:0E10E800FFFA5307F88F0490E011EBC39CF061
:0A10F6008F36E8C423C536C4235426
:081100001F6536C536541FC5FA
:04110800366536C54D
:09110C0036F537E9C42354E0452F
:0411150037F53789EA
:0A11190038EAC423C538C423541F6C
:071123006538C538541FC5F3
:04112A00386538C527
:04112E0038F539ABAC
:0411320036AC37ADF3
:0311360038AE3997
:0E1139008B078C008D018E021BBBFF091CBCB6
:07114700FF051DBDFF011EA5
:0C114E00EF48494A6018853A82C003C08F
:0E115A0004C005C006120A8ED006D005D004CF
:04116800D00380CD63
:0A116C00E53A1392B190E011E0FAA9
:0E117600EA60141A90E02AE0FB30E005EA700F
:0311840002D2B2E2
:06118700D2B3C2B380E9FF
:06118D0090E029E4F022CD
:0E11930090E025E0FAA3E0FBA3E0FCA3E0FD62
:0611A100EA4B4C4D604FCB
:0C11A700E5BA20E1FB90E68DE0FA300094
:0C11B3000B8A82C002120B11D0028009CE
:0911BF008A82C002120ACAD002A1
:0E11C80090E68DE4F090E025E0FBA3E0FCA3B0
:0E11D600E0FDA3E0FE7F007800790090E025A8
:0E11E400EBC39AF0EC9FA3F0ED98A3F0EE9908
:0411F200A3F0809D49
:0611F60090E029E4F02264
:0D11FC0090E029E0FA24F94032EA2A2A9016
:03120900120C7351
:07120C000212370212210259
:0612130012240212270262
:06121900122A02122D0250
:02121F00123289
:03122100020B9A23
:03122400020D9523
:03122700020EE1D3
:03122A000210BCF3
:05122D00D20002119344
:05123200C2001211933F
:011237002294
:07123800AA82AB83ACF0FDBC
:0E123F00D2B30000000000000000000000C25A
:0E124D00B30000000000001ABAFFE71BBBFF51
:0A125B00E31CBCFFDF1DBDFFDB221A
:041B8D000000000054
:011B91000053
:011B92000052
:0E12650090E678E0FA30E0F8EA30E202D322B8
:02127300C32294
:0E12750090E678E0FA30E0F8EA30E202D322A8
:06128300EA20E102D32283
:02128900C3227E
:0B128B00AA82AB833002047CAA800220
:021296007CA238
:0E12980090E678E0FD20E6F890E6787480F0AD
:0E12A60090E679ECF0C002C003C0041212758D
:0A12B400D004D003D0025002D32270
:0E12BE0090E679EBF0C002C003C00412127576
:0A12CC00D004D003D0025002D32258
:0E12D60090E679EAF0C004121275D0045002BE
:0212E400D32213
:0E12E60090E6787480F090E67974014CF01276
:0612F40012655002D32236
:0B12FA0090E679E01212655002D3224A
:021305007A006C
:09130700AB097C001BBBFF011CBB
:0E1310008A057E00C3ED9BEE64808CF063F0D6
:0B131E008095F0501FEA250AFBE43523
:0C1329000BFC90E679E08B828C83F0C016
:0A13350002121265D0025002D3220A
:03133F000A80C55C
:0E13420090E6787420F0C002121265D00250BE
:0313500002D322A3
:09135300EA250AFAE4350BFB90CF
:0E135C00E679E08A828B83F01212655002D38C
:01136A002260
:0C136B0090E6787440F090E679E0C32230
:0B137700AA82AB833003047CAA800232
:021382007CA24B
:0E13840090E678E0FD20E6F890E6787480F0C0
:0E13920090E679ECF0C002C003C004121275A0
:0A13A000D004D003D0025002D32283
:0E13AA0090E679EBF0C002C003C00412127589
:0A13B800D004D003D0025002D3226B
:0E13C20090E679EAF0C004121275D0045002D1
:0213D000D32226
:0613D200AA0DAB0E7D0028
:0C13D800C3ED950C502A8A828B83E0FE46
:0E13E400A3AA82AB8390E679EEF0C002C003AC
:0E13F200C004C005121265D005D004D003D08F
:05140000025002D3229E
:031405000D80D087
:0814080090E678E0FA4440F0A0
:0814100090E678E0FA20E6F80E
:0E14180090E6787480F090E679ECF0C0041253
:081426001265D0045002D3222C
:08142E0090E678E0FA4440F07A
:0E14360090E678E0FA20E6F890E678E0FA30EA
:04144400E1D2C3220C
:0E1E00001201000200000040501D2B60020085
:041E0E0001020001CC
:091E120009022E0001010080FA12
:0E1E1B000904000004FF00000007050102009A
:0E1E2900020007058102000200070502020008
:091E37000200070586020002000A
:0A1E40000A06000200000040010045
:091E4A00090219000101008032B7
:0E1E53000904000001FFFFFF00070506020062
:021E610002007D
:041E64000403090466
:0E1E680014034D0061006B0065005300740010
:061E760075006600660025
:0E1E7C002C0346005000470041004C00690056
:0E1E8A006E006B002F00460058003200200052
:0E1E98003200300031003300300038003100DD
:021EA600330007
:021EA800000038
:040000000201BB320C
:01000B0032C2
:0100130032BA
:01001B0032B2
:0100230032AA
:01002B0032A2
:030033000215298A
:01003B003292
:01004300328A
:01004B003282
:01005300327A
:01005B003272
:01006300326A
:03006B0002152C4F
:030073000219EE81
:03007B000215F576
:030083000215DA89
:03008B0002154417
:0300930002158FC4
:03009B000215F259
:0300A300021A1628
:0300AB00021A171F
:0300B300021A1816
:0300BB00021A1B0B
:0300C3000219ED32
:0300CB00021A080E
:0300D300021A0905
:0300DB00021A0BFB
:0300E3000215F70C
:0300EB00021A9462
:0300F3000215F300
:0300FB000215F4F7
:030103000215F6EC
:03010B000215F8E2
:030113000215F9D9
:03011B00021A774E
:03012300021A14A9
:03012B00021A199C
:03013300021A1C91
:03013B00021A1E87
:03014300021A1588
:03014B00021A1A7B
:03015300021A1D70
:03015B00021A1F66
:03016300021A7607
:03016B00021A0C69
:03017300021A0E5F
:03017B00021A1055
:03018300021A124B
:03018B00021A0D48
:03019300021A0F3E
:03019B00021A1134
:0301A300021A132A
:0301AB00021A0A2B
:0301B3000219EC42
:04021400C204C20559
:03022A000201B618
:0501B60012144880FE58
:0C144800120245E500D2E890E668E0449E
:0E14540008F090E65CE04401F090E65CE044B5
:0E14620010F090E65CE04420F090E65CE04480
:0E14700008F0D2DDD2AF90E680E0FA20E11560
:0E147E0090E680E0440AF09005DC121A2090FF
:07148C00E680E0FA54F7F0DE
:08149300120390100402800313
:03149B001215FA2D
:05149E0010050280F0C2
:0E14A30090E682E0FA44C0F090E6817401F019
:0C14B10043870100000000000000E5116E
:0E14BD00702690E682E0FA30E60B90E682E0C0
:0714CB00FA30E0030214A354
:0E14D20090E682E0FA30E70B90E682E0FA3016
:0514E000E1030214A36A
:0E14E50090E682E0FA30E60890E682E0FA2017
:0214F300E01601
:0B14F50090E682E0FA20E70302149367
:0B15000090E682E0FA20E10302149361
:0E150B00900005121A2090E680E04401F09056
:0E151900000F121A2090E680E0FA54FEF00255
:0215270014931B
:03152900C2DC32EF
:0C152C00C0E0C082C083D2045391EF9055
:0C153800E65D7401F0D083D082D0E03278
:0C154400C021C0E0C0F0C082C083C00223
:0E155000C003C004C005C006C007C000C00133
:0E155E00C0D075D0007582001218F05391EFC6
:0E156C0090E65D7410F0D0D0D001D000D00712
:0E157A00D006D005D004D003D002D083D0829A
:07158800D0F0D0E0D02132C9
:0C158F00C021C0E0C0F0C082C083C002D8
:0E159B00C003C004C005C006C007C000C001E8
:0E15A900C0D075D0007582011218F05391EF7A
:0E15B70090E65D7420F0D0D0D001D000D007B7
:0E15C500D006D005D004D003D002D083D0824F
:0715D300D0F0D0E0D021327E
:0C15DA00C0E0C082C083D2055391EF90A6
:0C15E600E65D7408F0D083D082D0E032C3
:0115F20032C6
:0115F30032C5
:0115F40032C4
:0115F50032C3
:0115F60032C2
:0115F70032C1
:0115F80032C0
:0115F90032BF
:0601EA00E478FFF6D8FDE9
:0801C8007916E94400601B7A7E
:0501D00001901B7D7889
:0301D5001575920B
:0A01D800E0E493F2A308B80002056A
:0801E20092D9F4DAF27592FFE4
:07021800751000751100755F
:03021F00124A750B
:03022200131E7533
:030225001412753B
:02022800151EA1
:0C15FA0090E6B9E0FA24F450030216FA5F
:07160600EA2A2A90160D7379
:07160D00021631021646022D
:0616140016FA02165B024B
:06161A0016FA0216FA02A6
:0616200016700216FA022A
:06162600167602168E028A
:05162C0016A80216DC07
:0A16310012176EE582600302170F26
:0B163B0090E6A0E0FA4401F002170F57
:0A1646001217FAE582600302170F85
:0B16500090E6A0E0FA4401F002170F42
:0A165B00121868E582600302170F01
:0B16650090E6A0E0FA4401F002170F2D
:0616700012191B02170F06
:0E167600120988AA8290E740EAF090E68AE422
:0A168400F090E68B7401F002170FDE
:0E168E0090E6BAE0F582120981E5826003025F
:02169C00170F26
:0A169E0090E6A0E0FA4401F0806736
:0916A80090E6BCE0FA75160F751E
:0816B10017007518408A82122F
:0E16B900098CE582700A90E6A0E0FA4401F088
:0216C70080465B
:0C16C90090E740E50FF090E68AE4F09016
:0716D500E68B7401F0803385
:0C16DC0090E6BCE0FA90E6BAE0F5168A51
:0E16E800821209A9E582701F90E6A0E0FA4484
:0416F60001F080156A
:0E16FA0090E6B9E0F5821205C1E58270089015
:07170800E6A0E0FA4401F045
:08170F0090E6A0E04480F02206
:0E171700AA82747F5AFB24F74049EB2B2B90DB
:031725001728730F
:0717280002174302174702FC
:06172F00175A02176A02BE
:06173500175E02176A02B4
:06173B00176202176A02AA
:02174100176629
:0417430090E6A0226A
:0A174700EA30E7067AA27BE6800490
:041751007AA17BE618
:051755008A828B832253
:04175A0090E6A32250
:04175E0090E6A4224B
:0417620090E6A52246
:0417660090E6A62241
:04176A0090000022C9
:0A176E0090E6B8E0FABA800280228B
:05177800BA81028008A7
:05177D00BA8202803772
:031782000217F259
:0E17850090E740E4F090E741F090E68AF090A3
:07179300E68B7402F0805C9C
:0A179A00E51125E0FAE51042029087
:0E17A400E740EAF090E741E4F090E68AF0902A
:0717B200E68B7402F0803D9C
:0E17B90090E6BCE0F582121717AA82AB83EA15
:0617C7004B7003F58222C5
:0D17CD008A828B83E0FA30E0047A0180020A
:0217DA007A0093
:0E17DC0090E740EAF090E741E4F090E68AF0F2
:0817EA0090E68B7402F080040C
:0417F20075820022DA
:0417F60075820122D5
:0C17FA0090E6B8E0FA6005BA02578011D2
:0C18060090E6BAE0FABA01057511008006
:011812005184
:0418130075820022B8
:0D18170090E6BAE0703A90E6BCE0F582126F
:0E1824001717AA82AB83E0FC5304FE8A828B66
:0E18320083ECF090E6BCE0FA53020F90E6BCA7
:0E184000E05480C423541FFB90E6832AF090EE
:09184E00E683E0FA4420F0800D6D
:041857007582002274
:09185B0090E6B9E0F5820205C136
:041864007582012266
:0C18680090E6B8E0FA6008BA0202801FA7
:031874000218E374
:0B18770090E6BAE0FABA02030218EC97
:0C18820090E6BAE0FABA01057511018089
:01188E005DFC
:04188F00758200223C
:0D18930090E6BAE0704690E6BCE0F58212E7
:0D18A0001717AA82AB83EA4B7003F5822272
:0E18AD008A828B83E0FC4304018A828B83ECE9
:0E18BB00F090E6BCE0FA53020F90E6BCE05459
:0D18C90080C423541FFB90E683EB2AF090AF
:0918D600E683E0FA4420F0800DE5
:0418DF0075820022EC
:0918E30090E6B9E0F5820205C1AE
:0418EC0075820122DE
:0918F000AA82D20610AF02C20662
:0718F900EA600E7512127582
:03190000131E753E
:03190300144A750E
:04190600151E800C1E
:04190A0075124A7593
:03190E00131E7530
:0319110014127538
:02191400151E9E
:05191600A20692AF22C1
:0A191B0090E6BBE0FABA0102801961
:05192500BA0202802758
:05192A00BA0302803049
:06192F00BA06030219C311
:06193500BA07030219D6F7
:03193B000219E4AA
:0A193E007A007B1E90E6B3EBF07A0E
:09194800007B1E90E6B4EAF022D7
:0919510090E6B3E513F0AA129030
:05195A00E6B4EAF022F2
:0A195F007A647B1E7C8090E6BAE0FB
:03196900FD7E0000
:09196C008E070EEDB5070280366E
:0E1975008A828B838CF0121A782AFAE43BFBEC
:0E19830074012AFFE43BF88C018F828883896F
:0A199100F0121A78FFBF030280066F
:06199B007A007B007C00D5
:0A19A100EA4B4C6005C3ED9E50C1F7
:0E19AB00EA4B4C600B90E6B3EBF090E6B4EA2A
:0219B900F0221A
:0819BB0090E6A0E04401F022D7
:0A19C3007A407B1E90E6B3EBF07A49
:0919CD00407B1E90E6B4EAF02212
:0919D60090E6B3E515F0AA1490A7
:0519DF00E6B4EAF0226D
:0819E40090E6A0E04401F022AE
:0119EC0032C8
:0119ED0032C7
:0119EE0032C6
:0E19EF0020F71030F6118883A88220F507F645
:0519FD00A883758300C2
:011A020022C1
:031A0300F280F777
:021A0600F022CC
:011A080032AB
:011A090032AA
:011A0A0032A9
:011A0B0032A8
:03004300021F0099
:091F000002152C000219EE00028A
:081F090015F5000215DA0002D3
:081F110015440002158F0002C7
:081F190015F200021A15000286
:081F21001A1600021A17000253
:081F29001A1800021A1B000245
:081F310019ED00021A0800027C
:081F39001A0900021A0B000254
:081F410015F700021A15000259
:081F49001A94000215F30002D6
:081F510015F4000215F6000270
:081F590015F8000215F9000261
:081F61001A7700021A150002B4
:081F69001A1500021A1500020E
:081F71001A1400021A19000203
:081F79001A1C00021A1E0002EE
:081F81001A1A00021A1D0002E9
:081F89001A1F00021A76000283
:081F91001A0C00021A0E0002F6
:081F99001A1000021A120002E6
:081FA1001A0D00021A0F0002E4
:081FA9001A1100021A130002D4
:071FB1001A0A000219EC00FE
:011A0C0032A7
:0801F0007800E84400600A7980
:0301F800007592FD
:0601FB00E0E4F309D8FC6A
:080201007815E84400600C7957
:0B0209000190E000E4F0A3D8FCD9FA5B
:011A0D0032A6
:011A0E0032A5
:011A0F0032A4
:011A100032A3
:011A110032A2
:011A120032A1
:011A130032A0
:011A1400329F
:011A1500329E
:011A1600329D
:011A1700329C
:011A1800329B
:011A1900329A
:011A1A003299
:011A1B003298
:011A1C003297
:011A1D003296
:011A1E003295
:011A1F003294
:0E1A2000AA82AB8390E600E05418C423541F42
:041A2E00FCB4010003
:0B1A3200E433FC60067CB17D00801CEA
:0E1A3D0090E600E05418C423541FFEBE0106BC
:061A4B007E617F018004B2
:041A51007EC27F02D0
:041A55008E048F0567
:041A59008C168D1743
:081A5D00151674FFB516021501
:011A65001769
:0A1A6600E516451770F11ABAFF01EA
:011A70001B5A
:051A7100EA4B70E422C5
:011A7600323D
:011A7700323C
:0301BB0075813A11
:0A01BE00121A95E58260030201B6F3
:0E1A780020F71430F6148883A88220F507E6C4
:061A8600A8837583002215
:031A8C00E280F7FE
:031A8F00E49322BB
:021A9200E02250
:011A9400321F
:041A95007582002234
:00000001FF
