:0E022D00AA8290E6C2E4F0BA010790E60174DE
:03023B00E3F022CB
:07023E0090E60174E0F022DC
:0E02450090E680E0440AF09005DC121A339037
:0E025300E680E0FA54F7F090E6827445F0740D
:0E02610045F090E670E4F00000000090E60228
:0E026F00E4F00000000090E603E4F000000060
:0E027D000090E609E4F00000000090E60B742B
:0E028B0003F00000000090E6007410F0000088
:0D029900000090E60174E0F000000000900D
:0E02A600E613E4F00000000090E615E4F0001E
:0D02B40000000090E619E4F000000000904A
:0E02C100E61BE4F00000000090E61074A0F0D0
:0E02CF000000000090E61174A0F00000000096
:0E02DD0090E61274A0F00000000090E6147489
:0E02EB00E0F00000000090E6047480F00000D7
:0D02F900000090E6047402F0000000009088
:0E030600E6047406F00000000090E604E4F047
:0E03140090E68DF00000000090E6497482F043
:0E0322000000000090E6497482F00000000028
:0E03300090E6497482F00000000090E64974E7
:0E033E0082F00000000090E6187410F000003D
:0D034C00000090E61A7408F0000000009018
:0E035900E6247402F00000000090E625E4F0B7
:0E03670090E67AE04401F075AF077580FF75EF
:0E037500B2007590FF75B30075A0FF75B4005F
:0D03830075B0FF75B50075B1FF75B60022AD
:0303900002120F47
:0C039300AA827B00EA24FB50030205BE96
:07039F00EA2A2A9003A6736D
:0703A6000203B502041E0270
:0603AD0004870204F002C7
:0203B3000558EB
:0A03B500E51645B2602AE51760075F
:0703BF00E51645B2FA8007C4
:0703C600E516F4FC55B2FA44
:0A03CD008AB2E5186007E5164580C6
:0303D700FA8007A2
:0703DA00E516F4FC5580FA62
:0403E1008A80802866
:0A03E500E5186007E5164580FA8070
:0103EF000706
:0703F000E516F4FC5580FA4C
:0A03F7008A80E5176007E51645B29D
:03040100FA800777
:07040400E516F4FC55B2FA05
:02040B008AB2B3
:0A040D00E516558060047A018002B4
:020417007A0069
:050419008A030205BE8C
:0A041E00E51645B3602AE5176007F4
:07042800E51645B3FA800759
:07042F00E516F4FC55B3FAD9
:0A0436008AB3E5186007E51645904B
:03044000FA800738
:07044300E516F4FC5590FAE8
:04044A008A908028EC
:0A044E00E5186007E5164590FA80F6
:01045800079C
:07045900E516F4FC5590FAD2
:0A0460008A90E5176007E51645B322
:03046A00FA80070E
:07046D00E516F4FC55B3FA9B
:020474008AB349
:0A047600E516559060047A0180023B
:020480007A0000
:050482008A030205BE23
:0A048700E51645B4602AE51760078A
:07049100E51645B4FA8007EF
:07049800E516F4FC55B4FA6F
:0A049F008AB4E5186007E51645A0D1
:0304A900FA8007CF
:0704AC00E516F4FC55A0FA6F
:0404B3008AA0802873
:0A04B700E5186007E51645A0FA807D
:0104C1000733
:0704C200E516F4FC55A0FA59
:0A04C9008AA0E5176007E51645B4A8
:0304D300FA8007A5
:0704D600E516F4FC55B4FA31
:0204DD008AB4DF
:0A04DF00E51655A060047A018002C2
:0204E9007A0097
:0504EB008A030205BEBA
:0A04F000E51645B5602AE517600720
:0704FA00E51645B5FA800785
:07050100E516F4FC55B5FA04
:0A0508008AB5E5186007E51645B056
:03051200FA800765
:07051500E516F4FC55B0FAF5
:04051C008AB08028F9
:0A052000E5186007E51645B0FA8003
:01052A0007C9
:07052B00E516F4FC55B0FADF
:0A0532008AB0E5176007E51645B52D
:03053C00FA80073B
:07053F00E516F4FC55B5FAC6
:020546008AB574
:0A054800E51655B060047A01800248
:020552007A002D
:040554008A03806630
:0A055800E51645B6602AE5176007B6
:07056200E51645B6FA80071B
:07056900E516F4FC55B6FA9B
:0A0570008AB6E5186007E51645B1EC
:03057A00FA8007FD
:07057D00E516F4FC55B1FA8C
:040584008AB1802890
:0A058800E5186007E51645B1FA809A
:010592000761
:07059300E516F4FC55B1FA76
:0A059A008AB1E5176007E51645B6C3
:0305A400FA8007D3
:0705A700E516F4FC55B6FA5D
:0205AE008AB60B
:0A05B000E51655B160047A018002DF
:0205BA007A00C5
:0205BC008A03B0
:0305BE008B82220B
:0705C100AA82BA8002802724
:0605C800BA81030206A245
:0605CE00BA82030206E4FC
:0605D400BA8303020720B8
:0605DA00BA850302074789
:0605E000BA86030207B019
:0605E600BAA2030207FAAD
:0305EC0002099071
:0E05EF0090E6B8E0FABA402790E6BBE0FB7A4F
:0D05FD000090E6BAE07D004202ED4203905E
:0E060A00E6BCE0FCEA4B70088C8212022D0266
:02061800069E3C
:04061A0075820022C3
:0E061E0090E6A0E0FA20E1F890E740744EF07C
:0D062C0090E7417445F090E742744DF09066
:0E063900E7437449F090E015E0FA90E744F0D2
:09064700E58030E2047A00800233
:020650007A012D
:0E06520090E745EAF090E7467411F090E74714
:0E0660007426F090E74874FFF090E74974FFAD
:0E066E00F090E74A7420F090E74B7413F09080
:0E067C00E74C7412F090E74D7417F090E74EC3
:0E068A00E4F090E74FF090E68AF000000000E8
:0606980090E68B7410F0E7
:04069E00758201223E
:0A06A20090E6B8E0FABA40028003C7
:0306AC00020990B0
:0506AF0090E68BE4F071
:0E06B40090E6A0E0FA20E1F890E740E0FAA31B
:0D06C200E0FBA3E0FCA3E0FD90E6BCE0F54A
:0A06CF001690E6BAE0F5178A828B58
:0B06D900838CF0ED120B8B7582012268
:0A06E40090E6B8E0FABA4002800385
:0306EE000209906E
:0506F10090E68BE4F02F
:0E06F60090E6A0E0FA20E1F890E740E0FAA3D9
:0D070400E0FBA3E0FCA3E0FD90E6BAE0F509
:0C071100168A828B838CF0ED120A78753A
:03071D0082012234
:0A07200090E6B8E0FABA4002800348
:03072A0002099031
:0E072D0090E6BAE0FAA3E0FBA3E0FCA3E08AAA
:0C073B00828B838CF012124B758201221D
:0A07470090E6B8E0FABAC0028003A1
:030751000209900A
:0E07540090E6BAE0FA90E6BBE0FB90E6BCE06F
:0E076200FC90E6BDE0FDEA24FB4005EB24F828
:02077000500433
:04077200758200226A
:0E07760090E6A0E0FE20E1F88BF005F07401A3
:020784008002F1
:0207860025E06C
:08078800D5F0FBF5168C178D6E
:0C079000188A82120393AA8290E740EAC4
:0E079C00F090E68AE4F00000000090E68B7416
:0607AA0001F0758201223E
:0A07B00090E6B8E0FABA40028003B8
:0307BA00020990A1
:0E07BD0090E6BCE0FA90E6BDE0FBEA70047541
:0307CB0082012286
:0407CE001ABA04004F
:0E07D200501590E6BAE0FCEBC454F024802CE5
:0907E000F5168A82120A09800D47
:0B07E900EBC454F02480F5168A821245
:0207F4000A09F0
:0407F60075820122E5
:0A07FA0090E6B8E0FABAC0028003EE
:030804000208E205
:0E08070090E6BBE0FB7A0090E6BAE0FC7D00D4
:0E08150090E000EC4AF0ED4BA3F090E6BFE05F
:0E082300FB7A0090E6BEE0FC7D0090E002EC67
:060831004AF0ED4BA3F0BC
:0E08370090E002E0FAA3E0FB4A700302098C95
:0E08450090E6A0E0FA20E1F890E002E0FAA3CD
:0E085300E0FBC3EA9440EB940040047A407B43
:010861000096
:020862007C0018
:0E0864008C057E00C3ED9AEE9B5010EC2440F4
:0D087200F582E434E7F5837423F00C80E593
:0C087F0090E6BCE024FF920290E000E054
:0A088B00FCA3E0FD8A06750A407523
:0A0895000BE78E098C828D83C002F0
:0E089F00C003C004C005C00612129ED006D0D1
:0E08AD0005D004D003D00290E68AE4F00000EB
:0E08BB00000090E68BEEF090E000EA2CF0EBEF
:0E08C9003DA3F090E002E0FCA3E0FD90E00211
:0B08D700ECC39AF0ED9BA3F002083781
:0A08E20090E6B8E0FABA4002800385
:0308EC0002098C72
:0E08EF0090E6BBE0FB7A0090E6BAE0FC7D00EC
:0E08FD0090E004EC4AF0ED4BA3F090E6BFE073
:0E090B00FB7A0090E6BEE0FC7D0090E006EC7A
:060919004AF0ED4BA3F0D3
:0E091F0090E006E0FAA3E0FB4A606290E68BEF
:02092D00E4F0F4
:0E092F0090E6A0E0FA20E1F890E68BE0FA7B7B
:0C093D000090E6BCE024FF920390E00470
:0A094900E0FCA3E0FD8A0C750D40F0
:0C095300750EE78C828D83C002C003C0CB
:0E095F0004C00512138AD005D004D003D002C4
:0E096D0090E004EA2CF0EB3DA3F090E006E0F1
:0E097B00FCA3E0FD90E006ECC39AF0ED9BA318
:03098900F0809368
:04098C00758201224D
:04099000758200224A
:011B90000054
:070994008582087582012233
:04099B008508822227
:0A099F00E582FA7014AA16AB17AC3B
:0C09A900188A828B838CF0E4121A02750D
:0309B5008201229A
:0409B8007582002222
:0C09BC00E582FA7044E516704090E68376
:0D09C8007401F0E0FA90E68374204AF0908C
:0E09D500E6837411F0E0FA90E68374204AF095
:0E09E30090E6837402F0E0FA90E68374204AF6
:0E09F100F090E6837416F0E0FA90E68374202E
:0609FF004AF0758201229E
:040A050075820022D4
:0A0A0900AA827B787C0AEA75F003EC
:0A0A1300A42416F582E434E0F58314
:0E0A1D00E0FAA3E0FDA3E0FE8A828D838EF056
:0E0A2B00121A8BFFA3121A8BF874022AFAE437
:0A0A39003DFD90E008EFF0A3E8F0A7
:0E0A430090E008E0FFA3E0F84F6029EF2BF5EC
:0C0A510082E83CF583E516F08A828D8374
:0E0A5D008EF0121A8BFFA3121A8BF8A3AA8236
:0C0A6B00AD8390E008EFF0A3E8F080CC31
:010A7700225C
:041AAC00B80000007E
:0E1AB000C500CE00D700E000E900F200FB0008
:081ABE0004017602BD050000E1
:0E1AC6002D0034003B00420049005000570044
:0E1AD4005E0073007A00810088008F0096008B
:0E1AE2009D00A400C800D100DA00E300EC0073
:0E1AF000F500FE0007016C022A04A3050B0797
:021AFE000000E6
:0C1B0000140064022204BB052107000051
:0E1B0C001000230027002F00320036003900A1
:0E1B1A003D004000440047004B004E005200CA
:0E1B2800550059005C00600063006E007500FF
:0E1B360078007C007F00830086008A008D000E
:0E1B44009100940098009B009F00A200A60054
:0E1B5200AA00B500BA00BE00CA00CC00D30045
:0E1B6000D500DC00DE00E500E700EE00F0003E
:0E1B6E00F700F9000001020109010C018502D7
:0E1B7C00870233043504CC05CE052307250768
:061B8A00DB07E807000084
:031B9100B01A8007
:031B9400C61A80EE
:031B9700001B80B0
:031B9A000C1B80A1
:031B9D00AC1A80FF
:090A7800AA82AB83ACF0FDAE16BE
:0E0A81008E071EEF6017C2B3EA1392B2EDC3E8
:0E0A8F0013FDEC13FCEB13FBEA13FAD2B38059
:010A9D00E375
:030A9E00C2B322BE
:0E0AA100E5821392B1D2B313C2B392B1D2B3B5
:0E0AAF0013C2B392B1D2B313C2B392B1D2B399
:0E0ABD0013C2B392B1D2B313C2B392B1D2B38B
:0E0ACB0013C2B392B1D2B313C2B392B1D2B37D
:040AD90000C2B32282
:080ADD00759AE7759B80A88261
:0E0AE500C2B3E59C1392B1D2B313C2B392B167
:0E0AF300D2B313C2B392B1D2B313C2B392B155
:0E0B0100D2B313C2B392B1D2B313C2B392B146
:0E0B0F00D2B313C2B392B1D2B313C2B392B138
:070B1D00D2B3D8C4C2B32219
:080B2400759AE7759B80A88219
:0C0B2C00C2B3859C80D2B3D8F7C2B322BC
:0E0B3800AA82E582A2B01392B1D2B3C2B3A2D8
:0E0B4600B01392B1D2B3C2B3A2B01392B1D227
:0E0B5400B3C2B3A2B01392B1D2B3C2B3A2B077
:0E0B62001392B1D2B3C2B3A2B01392B1D2B308
:0E0B7000C2B3A2B01392B1D2B3C2B3A2B013FB
:0D0B7E0092B1D2B300C2B3F582228A822266
:0E0B8B00AA82AB83ACF0FD90E025EAF0A3EB6C
:0C0B9900F0A3ECF0A3EDF090E029E516CD
:080BA500F090E02AE517F022B0
:0E0BAD0090E025E0FAA3E0FBA3E0FCA3E0FD4E
:090BBB00EA4B4C4D7003020DA23F
:050BC400E5BA20E1FB91
:0E0BC900E5BA20E2FB90E025E0FAA3E0FBA3F2
:0E0BD700E0FCA3E0FDC3EB9402EC9400ED946F
:0E0BE50000B3E433FE600A7E007F02780079E0
:030BF30000800877
:080BF6008A068B078C008D01BB
:0A0BFE0090E68DE0FA752280752361
:080C0800E77524C07525E79093
:0E0C1000E025E0FBA3E0FCA3E0FDA3E0F88EEE
:050C1E00268F27E4F51C
:050C230028F529EBB5E6
:080C2800260EECB5270AEDB51C
:080C30002806E8B52902800343
:030C3800020D1D8D
:0E0C3B00EE24FFFBEF34FFFC5303F88E058B15
:0E0C490000EDC398FDECC423CBC423541F6BF5
:070C5700CB541FCB6BCBFC5B
:0A0C5E008B041BEC603FAC24A825BA
:090C6800852282852383E0F90551
:060C710022E4B522020599
:010C77002359
:0D0C78008982C002C003C004C005C0001284
:0E0C85000B38A982D000D005D004D003D002D5
:0A0C93008C828883E9F00524E4B5A3
:060C9D0024BF052580BB09
:090CA300852282852383E0FB0514
:060CAC0022E4B52202055E
:010CB200231E
:0B0CB30090E00BEBF090E00AE4F09002
:070CBE00E00C7401F08D034E
:0E0CC50090E00CE0FC6041EB603E1B90E02AEA
:0A0CD300E0FC30E005EB7002D2B245
:0D0CDD0090E00BE0FC1392B1ECC313FC900F
:0C0CEA00E00BF030B00C90E00CE0FC904F
:060CF600E00AE0FD4CF0F5
:0E0CFC00D2B3C2B390E00CE025E0FC90E00C17
:030D0A00F080B8BE
:050D0D00AB24AC2590B1
:0B0D1200E00AE0FD8B828C83F0805330
:0E0D1D00EFC423CEC423541F6ECE541FCE6EDF
:040D2B00CEFF8E0366
:0A0D2F008B041BEC603BAC24AD25E7
:090D3900852282852383E0FE057A
:060D420022E4B5220205C7
:010D48002387
:0E0D49008E82C002C003C004C005120B38AE7B
:0E0D570082D005D004D003D0028C828D83EEB2
:080D6500F00524E4B524C305E8
:030D6D002580BF1F
:0E0D700090E68DE4F090E68FEAF090E025E04A
:0E0D7E00FAA3E0FBA3E0FCA3E0FD90E025EA71
:0A0D8C00C39526F0EB9527A3F0ECC9
:0A0D96009528A3F0ED9529A3F002C3
:020DA0000BAD99
:060DA20090E029E4F022BC
:0E0DA80090E025E0FAA3E0FBA3E0FCA3E0FD51
:090DB600EA4B4C4D7003020EEEF5
:0E0DBF00E5BA20E1FB90E025E0FAA3E0FBA3FB
:0E0DCD00E0FCA3E0FDC3EB9402EC9400ED9477
:0E0DDB0000B3E433FE600A7E007F02780079E8
:030DE9000080087F
:080DEC008A068B078C008D01C3
:0E0DF40090E68DE090E025E0FAA3E0FBA3E09E
:0A0E0200FCA3E0FD8E2A8F2BE4F51F
:050E0C002CF52DEAB5F4
:080E11002A0EEBB52B0AECB52B
:080E19002C06EDB52D0280034B
:030E2100020EBB03
:0A0E24007522807523E7EE24FFFA23
:0E0E2E00EF34FFFB5302F88A04EEC39CFCEB8A
:0E0E3C00C423CAC423541F6ACA541FCA6ACAF8
:010E4A00FBAC
:0A0E4B008A031AEB601F85228285DE
:080E55002383E0FB0522E4B554
:040E5D002202052345
:0E0E61008B82C002C004120AA1D004D002800D
:010E6F00DBA7
:080E7000852282852383E090B6
:0B0E7800E00DF090E00E7401F08C0221
:0E0E830090E00EE0FB6037EA60341A90E02A3F
:0A0E9100E0FB30E005EA7002D2B287
:0E0E9B0090E00DE0FB1392B1EBC31390E00D5D
:0D0EA900F0D2B3C2B390E00EE025E0FB9064
:050EB600E00EF080C811
:060EBB00758240120ADD01
:0E0EC10090E68DE4F090E025E0FAA3E0FBA3BC
:0C0ECF00E0FCA3E0FD90E025EAC3952ABA
:0A0EDB00F0EB952BA3F0EC952CA38F
:090EE500F0ED952DA3F0020DA81B
:060EEE0090E029E4F0226F
:0C0EF40090E02AE0FA30E1047AFF80026E
:020F00007A0075
:040F0200EA5401FBB1
:0E0F060090E025E0FCA3E0FDA3E0FEA3E0FFE9
:090F1400EC4D4E4F70030210C9B0
:0E0F1D00E5BA20E2FB90E025E0FCA3E0FDA396
:0E0F2B00E0FEA3E0FFC3ED9402EE9400EF940D
:0B0F390000B3E433F8600E752E007565
:060F44002F02753000755C
:040F4A0031008008EA
:050F4E008C2E8D2F8E9A
:030F5300308F31AB
:0A0F5600AC2EAD2F8C06EDC423CEA7
:0E0F6000C423541F6ECE541FCE6ECEFFEC5431
:050F6E000760027401A0
:0A0F7300FFC003EF2EF52E7524C019
:0C0F7D007525E790E025E0F8A3E0F9A35B
:0A0F8900E0FBA3E0FF8C328D33E49F
:060F9300F534F535E8B568
:080F9900320EE9B5330AEBB595
:080FA1003406EFB535028005AE
:050FA900D003021064FA
:0E0FAE00D003EC24FFFFED34FFF85307F88F5B
:0E0FBC0005ECC39DFCE8C423CFC423541F6F73
:090FCA00CF541FCF6FCFF88F0543
:0A0FD3008D071DEF6033AF24A82541
:0E0FDD008A82C002C003C004C005C007C00065
:0E0FEB00120B38A982D000D007D005D004D058
:0C0FF90003D0028F828883E9F00524E415
:07100500B524CB052580C7CF
:0E100C0090E00FE4F090E0107401F0EB24FF90
:02101A0092B191
:0E101C0090E010E0FD6031EC602E1C90E02AA8
:0A102A00E0FD30E005EC7002D2B2E8
:0E10340030B00C90E010E0FD90E00FE0FF4DBA
:01104200F0BD
:0E104300D2B3C2B390E010E025E0FD90E010C3
:03105100F080C864
:05105400AC24AD259065
:0B105900E00FE0FF8C828D83F08037F9
:021064008E04F8
:0A1066008C051CED602FAD24AE25B3
:0D1070008A82C002C003C004C005C0061281
:0E107D000B38AF82D006D005D004D003D002CD
:0A108B008D828E83EFF00524E4B59A
:0610950024CF052580CBED
:0C109B0090E68FE52EF090E025E0FCA32D
:0E10A700E0FDA3E0FEA3E0FF90E025ECC39582
:0910B50032F0ED9533A3F0EE9545
:0910BE0034A3F0EF9535A3F00214
:0210C7000F0612
:0610C90090E029E4F02292
:0C10CF0090E02AE0FA30E105753AFF805D
:0110DB000311
:0310DC00753A0062
:0E10DF0090E025E0FBA3E0FCA3E0FDA3E0FE13
:0E10ED00EB24FFFFEC34FFF8ED34FFF9EE3496
:0E10FB00FFFA5307F88F0490E011EBC39CF04E
:0A1109008F36E8C423C536C4235412
:081113001F6536C536541FC5E7
:04111B00366536C53A
:09111F0036F537E9C42354E0451C
:0411280037F53789D7
:0A112C0038EAC423C538C423541F59
:071136006538C538541FC5E0
:04113D00386538C514
:0411410038F539AB99
:0411450036AC37ADE0
:0311490038AE3984
:0E114C008B078C008D018E021BBBFF091CBCA3
:07115A00FF051DBDFF011E92
:0C116100EF48494A6018853A82C003C07C
:0E116D0004C005C006120AA1D006D005D004A9
:04117B00D00380CD50
:0A117F00E53A1392B190E011E0FA96
:0E118900EA60141A90E02AE0FB30E005EA70FC
:0311970002D2B2CF
:06119A00D2B3C2B380E9EC
:0611A00090E029E4F022BA
:0E11A60090E025E0FAA3E0FBA3E0FCA3E0FD4F
:0611B400EA4B4C4D604FB8
:0C11BA00E5BA20E1FB90E68DE0FA300081
:0C11C6000B8A82C002120B24D0028009A8
:0911D2008A82C002120ADDD0027B
:0E11DB0090E68DE4F090E025E0FBA3E0FCA39D
:0E11E900E0FDA3E0FE7F007800790090E02595
:0E11F700EBC39AF0EC9FA3F0ED98A3F0EE99F5
:04120500A3F0809D35
:0612090090E029E4F02250
:0D120F0090E029E0FA24F94032EA2A2A9002
:03121C00121F732B
:07121F0002124A0212340220
:06122600123702123A0229
:06122C00123D0212400217
:02123200124563
:03123400020BADFD
:03123700020DA8FD
:03123A00020EF4AD
:03123D000210CFCD
:05124000D2000211A61E
:05124500C2001211A619
:01124A002281
:07124B00AA82AB83ACF0FDA9
:0E125200D2B30000000000000000000000C247
:0E126000B30000000000001ABAFFE71BBBFF3E
:0A126E00E31CBCFFDF1DBDFFDB2207
:041BA0000000000041
:011BA4000040
:011BA500003F
:0E12780090E678E0FA30E0F8EA30E202D322A5
:02128600C32281
:0E12880090E678E0FA30E0F8EA30E202D32295
:06129600EA20E102D32270
:02129C00C3226B
:0B129E00AA82AB833002047CAA80020D
:0212A9007CA225
:0E12AB0090E678E0FD20E6F890E6787480F09A
:0E12B90090E679ECF0C002C003C00412128867
:0A12C700D004D003D0025002D3225D
:0E12D10090E679EBF0C002C003C00412128850
:0A12DF00D004D003D0025002D32245
:0E12E90090E679EAF0C004121288D004500298
:0212F700D32200
:0E12F90090E6787480F090E67974014CF01263
:0613070012785002D3220F
:0B130D0090E679E01212785002D32223
:021318007A0059
:09131A00AB097C001BBBFF011CA8
:0E1323008A057E00C3ED9BEE64808CF063F0C3
:0B1331008095F0501FEA250AFBE43510
:0C133C000BFC90E679E08B828C83F0C003
:0A13480002121278D0025002D322E4
:031352000A80C549
:0E13550090E6787420F0C002121278D0025098
:0313630002D32290
:09136600EA250AFAE4350BFB90BC
:0E136F00E679E08A828B83F01212785002D366
:01137D00224D
:0C137E0090E6787440F090E679E0C3221D
:0B138A00AA82AB833003047CAA80021F
:021395007CA238
:0E13970090E678E0FD20E6F890E6787480F0AD
:0E13A50090E679ECF0C002C003C0041212887A
:0A13B300D004D003D0025002D32270
:0E13BD0090E679EBF0C002C003C00412128863
:0A13CB00D004D003D0025002D32258
:0E13D50090E679EAF0C004121288D0045002AB
:0213E300D32213
:0613E500AA0DAB0E7D0015
:0C13EB00C3ED950C502A8A828B83E0FE33
:0E13F700A3AA82AB8390E679EEF0C002C00399
:0E140500C004C005121278D005D004D003D068
:05141300025002D3228B
:031418000D80D074
:08141B0090E678E0FA4440F08D
:0814230090E678E0FA20E6F8FB
:0E142B0090E6787480F090E679ECF0C0041240
:081439001278D0045002D32206
:0814410090E678E0FA4440F067
:0E14490090E678E0FA20E6F890E678E0FA30D7
:04145700E1D2C322F9
:0E1E00001201000200000040501D2B60020085
:041E0E0001020001CC
:091E120009022E0001010080FA12
:0E1E1B000904000004FF00000007050102009A
:0E1E2900020007058102000200070502020008
:091E37000200070586020002000A
:0A1E40000A06000200000040010045
:091E4A00090219000101008032B7
:0E1E53000904000001FFFFFF00070506020062
:021E610002007D
:041E64000403090466
:0E1E680014034D0061006B0065005300740010
:061E760075006600660025
:0E1E7C002C0346005000470041004C00690056
:0E1E8A006E006B002F00460058003200200052
:0E1E98003200300031003300310032003100E2
:021EA600370003
:021EA800000038
:040000000201BB320C
:01000B0032C2
:0100130032BA
:01001B0032B2
:0100230032AA
:01002B0032A2
:0300330002153C77
:01003B003292
:01004300328A
:01004B003282
:01005300327A
:01005B003272
:01006300326A
:03006B0002153F3C
:03007300021A016D
:03007B0002160862
:030083000215ED76
:03008B0002155704
:030093000215A2B1
:03009B0002160545
:0300A300021A2915
:0300AB00021A2A0C
:0300B300021A2B03
:0300BB00021A2EF8
:0300C300021A001E
:0300CB00021A1BFB
:0300D300021A1CF2
:0300DB00021A1EE8
:0300E30002160AF8
:0300EB00021AA74F
:0300F300021606EC
:0300FB00021607E3
:03010300021609D8
:03010B0002160BCE
:0301130002160CC5
:03011B00021A8A3B
:03012300021A2796
:03012B00021A2C89
:03013300021A2F7E
:03013B00021A3174
:03014300021A2875
:03014B00021A2D68
:03015300021A305D
:03015B00021A3253
:03016300021A89F4
:03016B00021A1F56
:03017300021A214C
:03017B00021A2342
:03018300021A2538
:03018B00021A2035
:03019300021A222B
:03019B00021A2421
:0301A300021A2617
:0301AB00021A1D18
:0301B3000219FF2F
:04021400C204C20559
:03022A000201B618
:0501B60012145B80FE45
:0C145B00120245E500D2E890E668E0448B
:0E14670008F090E65CE04401F090E65CE044A2
:0E14750010F090E65CE04420F090E65CE0446D
:0E14830008F0D2DDD2AF90E680E0FA20E1154D
:0E14910090E680E0440AF09005DC121A3390D9
:07149F00E680E0FA54F7F0CB
:0814A600120390100402800300
:0314AE0012160D06
:0514B10010050280F0AF
:0E14B60090E682E0FA44C0F090E6817401F006
:0C14C40043870100000000000000E5115B
:0E14D000702690E682E0FA30E60B90E682E0AD
:0714DE00FA30E0030214B62E
:0E14E50090E682E0FA30E70B90E682E0FA3003
:0514F300E1030214B644
:0E14F80090E682E0FA30E60890E682E0FA2004
:02150600E016ED
:0B15080090E682E0FA20E7030214A640
:0B15130090E682E0FA20E1030214A63B
:0E151E00900005121A3390E680E04401F09030
:0E152C00000F121A3390E680E0FA54FEF0022F
:02153A0014A6F5
:03153C00C2DC32DC
:0C153F00C0E0C082C083D2045391EF9042
:0C154B00E65D7401F0D083D082D0E03265
:0C155700C021C0E0C0F0C082C083C00210
:0E156300C003C004C005C006C007C000C00120
:0E157100C0D075D0007582001219035391EF9F
:0E157F0090E65D7410F0D0D0D001D000D007FF
:0E158D00D006D005D004D003D002D083D08287
:07159B00D0F0D0E0D02132B6
:0C15A200C021C0E0C0F0C082C083C002C5
:0E15AE00C003C004C005C006C007C000C001D5
:0E15BC00C0D075D0007582011219035391EF53
:0E15CA0090E65D7420F0D0D0D001D000D007A4
:0E15D800D006D005D004D003D002D083D0823C
:0715E600D0F0D0E0D021326B
:0C15ED00C0E0C082C083D2055391EF9093
:0C15F900E65D7408F0D083D082D0E032B0
:0116050032B2
:0116060032B1
:0116070032B0
:0116080032AF
:0116090032AE
:01160A0032AD
:01160B0032AC
:01160C0032AB
:0601EA00E478FFF6D8FDE9
:0801C8007916E94400601B7A7E
:0501D00001901B907876
:0301D5001575920B
:0A01D800E0E493F2A308B80002056A
:0801E20092D9F4DAF27592FFE4
:07021800751000751100755F
:03021F00124A750B
:03022200131E7533
:030225001412753B
:02022800151EA1
:0C160D0090E6B9E0FA24F4500302170D37
:07161900EA2A2A9016207353
:0716200002164402165902F4
:06162700170D02166E0211
:06162D00170D02170D026B
:06163300168302170D02F0
:0616390016890216A10251
:05163F0016BB0216EFCE
:0A164400121781E5826003021722ED
:0B164E0090E6A0E0FA4401F002172231
:0A16590012180DE58260030217224B
:0B16630090E6A0E0FA4401F00217221C
:0A166E0012187BE5826003021722C8
:0B16780090E6A0E0FA4401F002172207
:0616830012192E021722CD
:0E16890012099BAA8290E740EAF090E68AE4FC
:0A169700F090E68B7401F0021722B8
:0E16A10090E6BAE0F582120994E58260030239
:0216AF00172200
:0A16B10090E6A0E0FA4401F0806723
:0916BB0090E6BCE0FA75160F750B
:0816C40017007518408A82121C
:0E16CC00099FE582700A90E6A0E0FA4401F062
:0216DA00804648
:0C16DC0090E740E50FF090E68AE4F09003
:0716E800E68B7401F0803372
:0C16EF0090E6BCE0FA90E6BAE0F5168A3E
:0E16FB00821209BCE582701F90E6A0E0FA445E
:0417090001F0801556
:0E170D0090E6B9E0F5821205C1E58270089001
:07171B00E6A0E0FA4401F032
:0817220090E6A0E04480F022F3
:0E172A00AA82747F5AFB24F74049EB2B2B90C8
:03173800173B73E9
:07173B0002175602175A02C3
:06174200176D02177D0285
:06174800177102177D027B
:06174E00177502177D0271
:02175400177903
:0417560090E6A02257
:0A175A00EA30E7067AA27BE680047D
:041764007AA17BE605
:051768008A828B832240
:04176D0090E6A3223D
:0417710090E6A42238
:0417750090E6A52233
:0417790090E6A6222E
:04177D0090000022B6
:0A17810090E6B8E0FABA8002802278
:05178B00BA8102800894
:05179000BA820280375F
:0317950002180532
:0E17980090E740E4F090E741F090E68AF09090
:0717A600E68B7402F0805C89
:0A17AD00E51125E0FAE51042029074
:0E17B700E740EAF090E741E4F090E68AF09017
:0717C500E68B7402F0803D89
:0E17CC0090E6BCE0F58212172AAA82AB83EAEF
:0617DA004B7003F58222B2
:0D17E0008A828B83E0FA30E0047A018002F7
:0217ED007A0080
:0E17EF0090E740EAF090E741E4F090E68AF0DF
:0817FD0090E68B7402F08004F9
:0418050075820022C6
:0418090075820122C1
:0C180D0090E6B8E0FA6005BA02578011BE
:0C18190090E6BAE0FABA010575110080F3
:011825005171
:0418260075820022A5
:0D182A0090E6BAE0703A90E6BCE0F582125C
:0E183700172AAA82AB83E0FC5304FE8A828B40
:0E18450083ECF090E6BCE0FA53020F90E6BC94
:0E185300E05480C423541FFB90E6832AF090DB
:09186100E683E0FA4420F0800D5A
:04186A007582002261
:09186E0090E6B9E0F5820205C123
:041877007582012253
:0C187B0090E6B8E0FA6008BA0202801F94
:031887000218F64E
:0B188A0090E6BAE0FABA02030218FF71
:0C18950090E6BAE0FABA01057511018076
:0118A1005DE9
:0418A2007582002229
:0D18A60090E6BAE0704690E6BCE0F58212D4
:0D18B300172AAA82AB83EA4B7003F582224C
:0E18C0008A828B83E0FC4304018A828B83ECD6
:0E18CE00F090E6BCE0FA53020F90E6BCE05446
:0D18DC0080C423541FFB90E683EB2AF0909C
:0918E900E683E0FA4420F0800DD2
:0418F20075820022D9
:0918F60090E6B9E0F5820205C19B
:0418FF0075820122CB
:09190300AA82D20610AF02C2064E
:07190C00EA600E751212756E
:03191300131E752B
:03191600144A75FB
:04191900151E800C0B
:04191D0075124A7580
:03192100131E751D
:0319240014127525
:02192700151E8B
:05192900A20692AF22AE
:0A192E0090E6BBE0FABA010280194E
:05193800BA0202802745
:05193D00BA0302803036
:06194200BA06030219D6EB
:06194800BA07030219E9D1
:03194E000219F784
:0A1951007A007B1E90E6B3EBF07AFB
:09195B00007B1E90E6B4EAF022C4
:0919640090E6B3E513F0AA12901D
:05196D00E6B4EAF022DF
:0A1972007A647B1E7C8090E6BAE0E8
:03197C00FD7E00ED
:09197F008E070EEDB5070280365B
:0E1988008A828B838CF0121A8B2AFAE43BFBC6
:0E19960074012AFFE43BF88C018F828883895C
:0A19A400F0121A8BFFBF0302800649
:0619AE007A007B007C00C2
:0A19B400EA4B4C6005C3ED9E50C1E4
:0E19BE00EA4B4C600B90E6B3EBF090E6B4EA17
:0219CC00F02207
:0819CE0090E6A0E04401F022C4
:0A19D6007A407B1E90E6B3EBF07A36
:0919E000407B1E90E6B4EAF022FF
:0919E90090E6B3E515F0AA149094
:0519F200E6B4EAF0225A
:0819F70090E6A0E04401F0229B
:0119FF0032B5
:011A000032B3
:011A010032B2
:0E1A020020F71030F6118883A88220F507F631
:051A1000A883758300AE
:011A150022AE
:031A1600F280F764
:021A1900F022B9
:011A1B003298
:011A1C003297
:011A1D003296
:011A1E003295
:03004300021F0099
:091F000002153F00021A01000263
:081F09001608000215ED0002AC
:081F11001557000215A20002A1
:081F1900160500021A2800025F
:081F21001A2900021A2A00022D
:081F29001A2B00021A2E00021F
:081F31001A0000021A1B000255
:081F39001A1C00021A1E00022E
:081F4100160A00021A28000232
:081F49001AA7000216060002AF
:081F5100160700021609000248
:081F5900160B0002160C000239
:081F61001A8A00021A2800028E
:081F69001A2800021A280002E8
:081F71001A2700021A2C0002DD
:081F79001A2F00021A310002C8
:081F81001A2D00021A300002C3
:081F89001A3200021A8900025D
:081F91001A1F00021A210002D0
:081F99001A2300021A250002C0
:081FA1001A2000021A220002BE
:081FA9001A2400021A260002AE
:071FB1001A1D000219FF00D8
:011A1F003294
:0801F0007800E84400600A7980
:0301F800007592FD
:0601FB00E0E4F309D8FC6A
:080201007815E84400600C7957
:0B0209000190E000E4F0A3D8FCD9FA5B
:011A20003293
:011A21003292
:011A22003291
:011A23003290
:011A2400328F
:011A2500328E
:011A2600328D
:011A2700328C
:011A2800328B
:011A2900328A
:011A2A003289
:011A2B003288
:011A2C003287
:011A2D003286
:011A2E003285
:011A2F003284
:011A30003283
:011A31003282
:011A32003281
:0E1A3300AA82AB8390E600E05418C423541F2F
:041A4100FCB40100F0
:0B1A4500E433FC60067CB17D00801CD7
:0E1A500090E600E05418C423541FFEBE0106A9
:061A5E007E617F0180049F
:041A64007EC27F02BD
:041A68008E048F0554
:041A6C008C168D1730
:081A7000151674FFB5160215EE
:011A78001756
:0A1A7900E516451770F11ABAFF01D7
:011A83001B47
:051A8400EA4B70E422B2
:011A8900322A
:011A8A003229
:0301BB0075813A11
:0A01BE00121AA8E58260030201B6E0
:0E1A8B0020F71430F6148883A88220F507E6B1
:061A9900A8837583002202
:031A9F00E280F7EB
:031AA200E49322A8
:021AA500E0223D
:011AA700320C
:041AA8007582002221
:00000001FF
